:020000040800F2
:1000000000000420295400085D140008631400084F
:10001000691400086F14000875140008000000003F
:100020000000000000000000000000007B14000839
:10003000891400080000000097140008A5140008A7
:10004000795400087954000879540008795400085C
:10005000795400087954000879540008795400084C
:100060007954000879540008B11400087954000844
:100070007954000879540008C1140008D514000808
:10008000E9140008FD1400087954000879540008A8
:10009000795400087954000879540008795400080C
:1000A00079540008795400087954000879540008FC
:1000B0007954000879540008111500087954000893
:1000C00079540008795400087954000879540008DC
:1000D000795400087954000825150008795400085F
:1000E00079540008795400087954000879540008BC
:1000F00079540008795400087954000879540008AC
:100100000000000079540008795400087954000870
:100110000000000000000000795400087954000835
:10012000795400087954000879540008795400087B
:10013000795400087954000879540008795400086B
:10014000795400087954000879540008795400085B
:10015000795400087954000879540008795400084B
:1001600079540008795400080000000000000000E5
:10017000000000000000000000000000000000007F
:1001800079540008795400080000000000000000C5
:1001900079540008795400080000000000000000B5
:1001A000000000000000000000000000000000004F
:1001B000000000000000000000000000795400086A
:0401C0007954000866
:1001D00010B5054C237833B9044B13B10448AFF381
:1001E00000800123237010BDB80000200000000033
:1001F0003089010808B5034B1BB103490348AFF32D
:10020000008008BD00000000BC000020308901080B
:1002100001F0FF01102A2BDB10F0070F08D010F8B7
:10022000013B013A8B422DD010F0070F42B3F6D1BB
:10023000F0B441EA012141EA014122F007047FF0D4
:1002400000070023F0E80256083C85EA010586EA2B
:10025000010685FA47F5A3FA87F586FA47F6A5FA67
:1002600087F68EB9EED1F0BC01F0FF0102F0070273
:1002700032B110F8013B013A83EA010313B1F8D11E
:100280000020704701387047002D06BF35460338FF
:10029000073815F0010F07D1013015F4807F02BF38
:1002A000013015F4C03F0130F0BC0138704700BF89
:1002B00053B94AB9002908BF00281CBF4FF0FF31CD
:1002C0004FF0FF3000F07AB9ADF1080C6DE904CEC3
:1002D00000F006F8DDF804E0DDE9022304B0704721
:1002E0002DE9F0478C460D460446089E002B51D15F
:1002F0008A4217466DD9B2FA82FEBEF1000F0BD0CA
:10030000CEF1200C01FA0EF520FA0CFC02FA0EF7E1
:100310004CEA050C00FA0EF44FEA174A250CBCFB18
:10032000FAF81FFA87F90AFB18CC45EA0C4508FBD6
:1003300009F3AB420AD9ED1908F1FF3280F02381AD
:10034000AB4240F22081A8F102083D44ED1AA4B26C
:10035000B5FBFAF00AFB105544EA054400FB09F925
:10036000A14509D9E41900F1FF3380F00A81A145C4
:1003700040F2078102383C44A4EB090440EA0840FB
:100380000021002E61D024FA0EF400233460736043
:10039000BDE8F0878B4207D9002E54D0002186E8B3
:1003A00021000846BDE8F087B3FA83F1002940F048
:1003B0008E80AB4202D3824200F2FA80841A65EB4F
:1003C00003050120AC46002E3FD086E81010BDE8A2
:1003D000F08712B90127B7FBF2F7B7FA87FEBEF133
:1003E000000F34D1EB1B3A0C1FFA87FC0121B3FB41
:1003F000F2F8250C02FB183345EA03450CFB08F321
:10040000AB4207D9ED1908F1FF3002D2AB4200F23E
:10041000D1808046ED1AA3B2B5FBF2F002FB105575
:1004200043EA05440CFB00FCA44507D9E41900F19C
:10043000FF3302D2A44500F2B8801846A4EB0C04A6
:1004400040EA08409DE731463046BDE8F087CEF1EE
:10045000200405FA0EF307FA0EF720FA04F83A0C16
:1004600025FA04F448EA0308B4FBF2F14FEA184510
:1004700002FB11441FFA87FC45EA044501FB0CF31B
:10048000AB4200FA0EF409D9ED1901F1FF3080F00A
:100490008A80AB4240F2878002393D44EB1A1FFA52
:1004A00088F5B3FBF2F002FB103345EA034500FB8D
:1004B0000CF3AB4207D9ED1900F1FF386FD2AB4214
:1004C0006DD902383D44EB1A40EA01418FE7C1F192
:1004D000200722FA07F88B4005FA01F448EA0303E3
:1004E00020FA07FE4FEA134CFD404EEA040EB5FB1E
:1004F000FCF94FEA1E440CFB19551FFA83F844EA35
:10050000054509FB08F4AC4202FA01F200FA01FACF
:1005100008D9ED1809F1FF3043D2AC4241D9A9F115
:1005200002091D442D1B1FFA8EFEB5FBFCF00CFBCF
:1005300010554EEA054400FB08F8A04507D9E41819
:1005400000F1FF3529D2A04527D902381C4440EAE2
:100550000940A4EB0804A0FB02894C45C6464D4661
:1005600015D312D056B1BAEB0E0364EB050404FAAE
:1005700007F7CB401F43CC40376074600021BDE8D3
:10058000F0871846F8E69046E0E6C245EAD2B8EBB6
:10059000020E69EB03050138E4E72846D7E7404639
:1005A00091E78146BEE7014678E702383C4445E7DB
:1005B000084608E7A8F102083D442BE7704700BF52
:1005C00080B500AF00F0F8FD00BF80BD80B400AF83
:1005D00000BFBD465DF8047B7047000080B500AFEA
:1005E0000B4B1B68002B05DC0A4B0B4A0F210B48F9
:1005F00017F01AF8064B1B68013B054A1360002BE5
:1006000003DC034B00221A6062B600BF80BD00BF4E
:10061000D400002048890108108B01085C8901087A
:1006200080B400AF72B6054B1B680133034A1360F8
:1006300000BFBD465DF8047B704700BFD4000020BA
:1006400080B400AF00BFBD465DF8047B704780B545
:1006500082B000AF7860396000F05AFD00F020FDF4
:1006600000F018FE7B68012B02D06FF0360303E028
:10067000386800F011F8034618460837BD4680BDBB
:1006800080B400AF034B1B681846BD465DF8047B81
:10069000704700BF0000002080B485B000AF7860D4
:1006A0000023FB600AE0114B1A68FB680133DA4053
:1006B0007B689A4206D9FB680133FB60FB68072B15
:1006C000F1D900E000BF0A4B1B68094A12681268A2
:1006D00022F03801FA68D2000A431A600023184653
:1006E0001437BD465DF8047B704700BF440000200E
:1006F0000005002080B588B000AF786000237B61E2
:100700000323BB61194B9B69FB61184B1B6AFB60A0
:100710007B683B61154BDB6907F10C0211461846FB
:1007200001F026FF114B1B6BFB607B683B610F4B9D
:10073000DB6A07F10C021146184601F019FF0B4B5A
:100740009B6BFB607B68012B01D07B6800E0002382
:100750003B61064B5B6B07F10C021146184601F03A
:1007600007FF00BF2037BD4680BD00BF000000204E
:1007700080B582B000AFFFF753FF104B1B687B6062
:100780007B68002B03D0FFF729FF7B6811E00B4B40
:1007900033221A60FFF722FF084BD869074B1B6A08
:1007A0009BB20122194602F06DF80120FFF7A2FF6B
:1007B000002318460837BD4680BD00BF000000205A
:1007C00080B582B000AFFFF72BFF0B4B1B687B603F
:1007D0007B68332B03D0FFF701FF7B6808E0064BF3
:1007E00000221A60FFF7FAFE0220FFF783FF0023C2
:1007F00018460837BD4680BD0000002080B584B093
:1008000000AFF8600B467A60FB72FB7A042B02D8CB
:100810007B68012B02D96FF004031CE0104B1B68AE
:10082000332B02D06FF0340315E0FB7A0C4A03330C
:10083000DB0013445868FB7A094A0333DB00134496
:100840009B689BB27A68D2B2194602F01BF80A2064
:1008500004F074FE002318461037BD4680BD00BF6B
:100860000000002080B584B000AFF8600B467A60CD
:10087000FB72FB7A042B02D87B68002B02D16FF04D
:1008800004031EE0114B1B68332B02D06FF03403BE
:1008900017E0FB7A0D4A0333DB0013445868FB7AF8
:1008A0000A4A0333DB0013449B689BB2194601F0EC
:1008B000D1FF03461A467B681A600A2004F03EFE08
:1008C000002318461037BD4680BD00BF0000002041
:1008D00080B584B000AF7860FFF7A2FE144B1B68B0
:1008E000FB60FB68002B03D0FFF778FEFB681AE083
:1008F0000F4B02221A60FFF771FE0D4B586A0C4B2A
:100900009B6A9BB20022194601F0BCFF084B586A53
:10091000074B9B6A9BB20122194601F0B3FF044BBF
:1009200000221A60002318461037BD4680BD00BF64
:100930000000002080B586B000AFF860B9607A6032
:100940003B60BB68002B06D03B68002B03D03B68A4
:10095000B3F5803F02D36FF0040346E0FB68012B40
:1009600002D06FF0360340E0FFF75AFE214B1B68C0
:100970003B613B69002B03D0FFF730FE3B6934E05D
:100980001C4B02221A60FFF729FE1A4A3B6A936049
:10099000184A7B6AD360174B586A164B9B6A9BB206
:1009A0000022194601F06EFFFFF73AFE7B68002B2C
:1009B00009D03B689BB27A68B9680F4802F0DAFC4C
:1009C0000346FB7508E03B689BB21A46B9680A48C3
:1009D00002F022FC0346FB75FFF700FEFB7D002BB7
:1009E00002D04FF0FF3300E0002318461837BD4611
:1009F00080BD00BF000000200005002080B584B04D
:100A000000AF7860104B00221A600F4B586A0E4BF3
:100A10009B6A9BB20122194601F034FF0A4B9B6886
:100A2000002B0CD0084B9B68FB60074B00229A60A0
:100A3000054BDA68FB6811467868984778607B68F0
:100A400018461037BD4680BD0000002080B582B03A
:100A500000AF78600020FFF7D1FF00BF0837BD4628
:100A600080BD80B584B000AF78607B689B6BFB6015
:100A7000F868FFF7EBFF00BF1037BD4680BD0000F0
:100A800080B582B000AF78607B689B6C93F834309F
:100A9000002B03D17868FFF7D9FF03E07B689B6CDC
:100AA000024ADA6300BF0837BD4680BD630A00080A
:100AB00080B582B000AF094B1B687B607B68002B60
:100AC00001D1002306E07B68022B02D1044802F02A
:100AD00053FD002318460837BD4680BD00000020A6
:100AE0000005002080B582B000AF78604FF0FF3085
:100AF000FFF784FF00BF0837BD4680BD80B485B0D6
:100B000000AFF860B9607A60064ABB681361054AB5
:100B10007B685361002318461437BD465DF8047B9B
:100B2000704700BF0000002080B582B000AF786041
:100B3000064BDA6B054B1B6C9BB21946104601F055
:100B400089FE034618460837BD4680BD00000020D8
:100B500080B582B000AF0346FB80FA88084B1B6C5F
:100B60009A4209D1064B1B69002B05D0044B1B6927
:100B7000034A52691046984700BF0837BD4680BDFA
:100B80000000002080B500AF00F0A8FD00F0F4FDEB
:100B900000F03EFE034803F0DCF8034803F0D9F808
:100BA00000BF80BD980600205806002080B483B0A6
:100BB00000AF786039600B4B1B685A6A3B681A605B
:100BC000094B1B685A6A7B681A603B681A68054BB8
:100BD0001B685B6A9A42EED800BF0C37BD465DF8D1
:100BE000047B7047980600205806002080B584B02A
:100BF00000AF78603960264A3B681360254B1B685C
:100C00007A689A4201D100233DE0224A7B68136052
:100C1000214B1B68214AA2FB03239B0CFB6005E0D0
:100C20007B685B087B60FB685B00FB607B68B3F5FF
:100C3000803FF5D2FB68B3F5803F05D9184B194AC0
:100C40004921194816F0F0FC184B1B68FA68013A64
:100C50009A62164B1B687A68013ADA627B68013B3C
:100C6000124AD360114B1B68104A1268D26842F0D6
:100C70000102DA600D4B1B680C4A1268126842F0E0
:100C800001021A60002318461037BD4680BD00BF20
:100C9000D8000020DC0000204400002083DE1B433D
:100CA0006C8901081C8B0108848901081806002042
:100CB00080B483B000AF78600E4B00221A600E4BF8
:100CC00000221A600D4B1B680C4A1268D26822F091
:100CD0000102DA60094B1B68084A1268126842F088
:100CE00001021A60002318460C37BD465DF8047BEC
:100CF000704700BFDC000020D8000020180600204C
:100D000080B582B000AF786039607B68002B05D079
:100D100039687868FFF76AFF034603E03868FFF731
:100D2000C7FF034618460837BD4680BD80B483B070
:100D300000AF7860044A7B681360002318460C37C4
:100D4000BD465DF8047B7047E000002080B582B0AE
:100D500000AF78607B68084A934209D1074B1B6853
:100D6000002B05D0054B1B68054A126810469847B2
:100D700000BF0837BD4680BD18060020E0000020F7
:100D8000D800002080B500AF00F08AF900F0E2FD45
:100D90000023184680BD000080B584B000AFF86025
:100DA000B9607A603B60FB68002B02D0BB68002B07
:100DB00002D16FF0040317E00D4B1B78DBB2002B60
:100DC00001D0022310E00A4B01221A70094A7B6805
:100DD0001360094A3B681360BB689BB21A46F96806
:100DE000064803F0A1FC002318461037BD4680BD1D
:100DF000E4000020E8040020EC0400209807002014
:100E000080B584B000AF78600E4B00221A707B680A
:100E100093F83930DBB2E02B02D14FF0FF3300E022
:100E20000023FB60084B1B68002B06D0064B1B6899
:100E3000064A12681146F868984700BF1037BD4649
:100E400080BD00BFE4000020E8040020EC04002086
:100E50000FB480B582B000AF07F114033B603B686C
:100E60003A694FF480610C4817F020F878607B688D
:100E7000002B02DA4FF0FF3306E0796800230022EE
:100E80000548FFF789FF002318460837BD46BDE82F
:100E9000804004B0704700BFE800002080B5ADF589
:100EA0007E7D02AF04F04EFDC7F8EC0300F0C0F801
:100EB0000121D7F8EC0304F099FCC7F8E80304F02B
:100EC000E3FDC7F8E403D7F8E4331B0E87F8E333F8
:100ED000D7F8E4331B0C87F8E233D7F8E43387F80C
:100EE000E133D7F8EC0304F0F7FDC7F8DC03D7F8DB
:100EF000EC0304F0CDFD034687F8DB3397F8E313EA
:100F000097F8E22397F8E10397F8DB33012B25D01C
:100F100097F8DB33022B1FD097F8DB33072B19D060
:100F200097F8DB33032B13D097F8DB33042B0DD06A
:100F300097F8DB33052B07D097F8DB33062B01D16D
:100F40002D4B0CE02D4B0AE02D4B08E02D4B06E01D
:100F50002D4B04E02D4B02E02D4B00E02D4B019377
:100F6000D7F8DC33009303462B48FFF771FF2B497A
:100F7000D7F8EC0304F0D4FD294B00221A6029496C
:100F8000D7F8EC0304F010FDC7F8E803D7F8E8330E
:100F9000692B01D100BFEFE7D7F8E833002BEBD185
:100FA000D7F8EC0304F0E0FCC7F8E80300BFD7F87B
:100FB000E833022BF4D0D7F8E833002BDCD1184B00
:100FC0001A683B1D1946D7F8EC0304F02BFDC7F84F
:100FD000E803D7F8E833002BCED13B1DD3F8BC3360
:100FE000114A82FB03121A441213DB17D31A194653
:100FF0000E48FFF72DFFBFE794890108A889010873
:10100000B0890108C4890108D8890108EC89010860
:10101000008A0108148A0108288A0108A0860100B4
:10102000F00400205910000897A304FAD08A0108A0
:1010300080B500AFFFF7C4FAFFF7C8FAFFF700FB6F
:10104000FFF7A0FDFFF79EFE02490120FFF7FFFA20
:1010500000BF80BD808D5B0080B582B000AF78603E
:1010600039607B68002B0DD1094B1B68002B06D023
:10107000084B094A4FF49871084816F0D5FA044A0B
:101080003B6813607B6818460837BD4680BD00BFCB
:10109000F0040020E08A0108288B0108EC8A01088E
:1010A00080B582B000AF00237B60184A174B1B6BE2
:1010B00043F400131363154B1B6B03F400137B60A5
:1010C0007B68002201210E2000F01CFE0E2000F0A3
:1010D00035FE002202210F2000F014FE0F2000F048
:1010E0002DFE00220521102000F00CFE102000F043
:1010F00025FE00220521112000F004FE112000F041
:101100001DFE00BF0837BD4680BD00BF003802404D
:1011100080B588B000AF07F10C0300221A605A6056
:101120009A60DA601A610023BB60204A1F4B1B6B78
:1011300043F0800313631D4B1B6B03F08003BB6004
:10114000BB6800237B60194A184B1B6B43F00103FB
:101150001363164B1B6B03F001037B607B6800235A
:101160003B60124A114B1B6B43F0020313630F4B9E
:101170001B6B03F002033B603B681023FB600C4BCE
:101180003B6101237B6107F10C031946094801F01B
:10119000EFF9002203210A2000F0B4FD0A2000F03C
:1011A000CDFD00BF2037BD4680BD00BF00380240E6
:1011B000000021100004024080B594B000AF07F198
:1011C0001C0334220021184616F0AAFA07F108037E
:1011D00000221A605A609A60DA601A6100237B600C
:1011E000284A284B1B6C43F080531364254B1B6C1F
:1011F00003F080537B607B6800233B60224A224BD4
:101200001B6843F4404313601F4B1B6803F44043C7
:101210003B603B680123FB614FF480333B62022358
:101220007B634FF48003BB630823FB63C0233B64F1
:1012300002237B640223BB640223FB6407F11C03CB
:10124000184601F043FD0346002B01D000F01EF8C4
:101250000F23BB600223FB6000233B614FF48053EC
:101260007B610023BB6107F108030321184601F0ED
:101270003BFB0346002B01D000F008F800BF5037BD
:10128000BD4680BD003802400070004080B400AF11
:1012900072B6FEE780B500AF174B184A1A60164BBE
:1012A0004FF482725A60144B00229A60124B002253
:1012B000DA60114B02221A610F4B01225A610E4B68
:1012C0004FF480229A610C4B0822DA610A4B00220B
:1012D0001A62094B00225A62074B00229A62064B9F
:1012E0000A22DA62044801F033FF0346002B01D0E2
:1012F000FFF7CCFF00BF80BD000500200038004094
:1013000080B58AB000AF786007F1140300221A603C
:101310005A609A60DA601A617B681B68484A934297
:1013200040F0898000233B61464A464B1B6C43F4E6
:1013300080431364434B1B6C03F480433B613B6964
:101340000023FB603F4A3F4B1B6B43F002031363D8
:101350003C4B1B6B03F00203FB60FB684FF45443F0
:101360007B610223BB610023FB6103233B620523F6
:101370007B6207F114031946334801F0F9F8334B47
:10138000334A1A60314B00225A60304B00229A6077
:101390002E4B0022DA602D4B4FF480621A612B4BEA
:1013A00000225A61294B00229A61284B0022DA61FF
:1013B000264B4FF480321A62244B00225A62234893
:1013C00000F0D6FC0346002B01D0FFF75FFF7B68DF
:1013D0001E4ADA641D4A7B6893631E4B1E4A1A60DC
:1013E0001C4B00225A601B4B40229A60194B002272
:1013F000DA60184B4FF480621A61164B00225A6172
:10140000144B00229A61134B0022DA61114B4FF406
:1014100080321A620F4B00225A620E4800F0A8FC7C
:101420000346002B01D0FFF731FF7B68094A9A641D
:10143000084A7B68936300BF2837BD4680BD00BF64
:1014400000380040003802400004024058050020E7
:1014500058600240B80500207060024080B400AFC0
:10146000FEE780B400AFFEE780B400AFFEE780B4D3
:1014700000AFFEE780B400AFFEE780B400AF00BF6E
:10148000BD465DF8047B704780B400AF00BFBD4629
:101490005DF8047B704780B400AF00BFBD465DF8C7
:1014A000047B704780B500AF00F062FB00BF80BDD9
:1014B00080B500AF102001F0FFF900BF80BD000033
:1014C00080B500AF024800F0EBFD00BF80BD00BF5B
:1014D0005805002080B500AF024800F0E1FD00BFD4
:1014E00080BD00BFB805002080B500AF024800F005
:1014F000D7FD00BF80BD00BFD806002080B500AF7B
:10150000024800F0CDFD00BF80BD00BF38070020BD
:1015100080B500AF024802F040FC00BF80BD00BFB4
:101520001806002080B500AF024803F069F900BF3B
:1015300080BD00BF9807002080B400AF012318468B
:10154000BD465DF8047B704780B582B000AF78601F
:10155000396016F087F80246162313604FF0FF3308
:1015600018460837BD4680BD80B582B000AF7860B0
:101570004FF0FF317868FFF7E7FFFEE790B587B0DF
:1015800000AFF860B9607A6000237B610AE0BC6854
:10159000631CBB60AFF300800346DBB223707B6942
:1015A00001337B617A697B689A42F0DB7B6818467D
:1015B0001C37BD4690BD80B586B000AFF860B960FD
:1015C0007A6000237B6109E0BB685A1CBA601B7813
:1015D0001846AFF300807B6901337B617A697B68D1
:1015E0009A42F1DB7B6818461837BD4680BD000083
:1015F00080B584B000AF7860114B1B68002B02D11E
:101600000F4B104A1A600E4B1B68FB600C4B1A689C
:101610007B6813446A46934207D916F023F80246C2
:101620000C2313604FF0FF3306E0054B1A687B680C
:101630001344034A1360FB6818461037BD4680BD4B
:10164000F4040020E007002080B483B000AF78608D
:101650004FF0FF3318460C37BD465DF8047B7047EA
:1016600080B483B000AF786039603B684FF40052BB
:101670005A60002318460C37BD465DF8047B70475E
:1016800080B483B000AF7860012318460C37BD46A4
:101690005DF8047B704780B485B000AFF860B96036
:1016A0007A60002318461437BD465DF8047B704706
:1016B00080B400AF084A084BD3F8883043F4700375
:1016C000C2F88830044B4FF000629A6000BFBD46FC
:1016D0005DF8047B704700BF00ED00E080B586B088
:1016E00000AF07F1080300221A605A609A60DA60BE
:1016F0003B4600221A605A601D4B4FF080421A6030
:101700001B4B5F225A601A4B00229A60184B194AF1
:10171000DA60174B00221A61154B00229A611448B7
:1017200002F0ECFA0346002B01D0FFF7AFFD4FF4B7
:101730008053BB6007F1080319460D4802F035FCE1
:101740000346002B01D0FFF7A1FD20233B600023BF
:101750007B603B461946064802F008FF0346002B13
:1017600001D0FFF793FD00BF1837BD4680BD00BF15
:101770009806002040420F0080B586B000AF07F108
:10178000080300221A605A609A60DA603B46002221
:101790001A605A601C4B1D4A1A601B4B5F225A602C
:1017A000194B10229A60184B0022DA60164B002267
:1017B0001A61154B00229A61134802F09FFA034602
:1017C000002B01D0FFF762FD4FF48053BB6007F19F
:1017D000080319460C4802F0E8FB0346002B01D031
:1017E000FFF754FD10233B6000237B603B46194606
:1017F000054802F0BBFE0346002B01D0FFF746FD73
:1018000000BF1837BD4680BD180600200008004004
:1018100080B588B000AF07F10C0300221A605A604F
:101820009A60DA601A613B1D00221A605A601E4BF2
:101830001E4A1A601C4B00225A601B4B00229A6001
:10184000194B4FF0FF32DA60174B00221A61164B2A
:1018500000229A61144802F051FA0346002B01D08D
:10186000FFF714FD0723FB6000233B6107F10C0326
:1018700019460D4802F050FC0346002B01D0FFF73B
:1018800005FD00237B600023BB603B1D1946064815
:1018900002F06CFE0346002B01D0FFF7F7FC00BFFF
:1018A0002037BD4680BD00BF58060020000C004018
:1018B00080B586B000AF78607B681B68B3F1804F5D
:1018C0000ED100237B61204A1F4B1B6C43F00103A8
:1018D00013641D4B1B6C03F001037B617B692EE0DD
:1018E0007B681B68194A934216D100233B61164A54
:1018F000154B1B6C43F004031364134B1B6C03F078
:1019000004033B613B69002204211E2000F0FAF928
:101910001E2000F013FA12E07B681B680C4A934209
:101920000DD10023FB60084A074B1B6C43F00803F2
:101930001364054B1B6C03F00803FB60FB6800BFDE
:101940001837BD4680BD00BF003802400008004087
:10195000000C004080B500AF114B124A1A60104BCA
:101960004FF4E1325A600E4B00229A600C4B002279
:10197000DA600B4B00221A61094B0C225A61084BAA
:1019800000229A61064B0022DA61054802F07EFED1
:101990000346002B01D0FFF779FC00BF80BD00BFDC
:1019A000980700200044004080B58AB000AF7860FE
:1019B00007F1140300221A605A609A60DA601A6113
:1019C0007B681B684B4A934240F0908000233B6148
:1019D000494A494B1B6C43F400331364464B1B6C60
:1019E00003F400333B613B690023FB60424A424BF6
:1019F0001B6B43F0010313633F4B1B6B03F00103AD
:101A0000FB60FB680C237B610223BB610023FB614D
:101A100003233B6207237B6207F11403194637480F
:101A200000F0A6FD364B374A1A60354B4FF0006286
:101A30005A60334B00229A60314B0022DA60304BFF
:101A40004FF480621A612E4B00225A612C4B002207
:101A50009A612B4B0022DA61294B00221A62284B33
:101A600000225A62264800F083F90346002B01D079
:101A7000FFF70CFC7B68224A5A63214A7B68936318
:101A8000214B224A1A60204B4FF000625A601E4BD5
:101A900040229A601C4B0022DA601B4B4FF480629C
:101AA0001A61194B00225A61174B00229A61164B9A
:101AB0000022DA61144B00221A62134B00225A6290
:101AC000114800F055F90346002B01D0FFF7DEFB6B
:101AD0007B680D4A1A630C4A7B68936300220021DD
:101AE000262000F00FF9262000F028F900BF283743
:101AF000BD4680BD00440040003802400000024066
:101B0000D80600208860024038070020A06002400C
:101B100080B582B000AF7860124B1A68124B1B7808
:101B200019464FF47A73B3FBF1F3B2FBF3F31846A3
:101B300000F012F90346002B01D001230EE07B6870
:101B40000F2B0AD8002279684FF0FF3000F0DAF846
:101B5000064A7B681360002300E00123184608371B
:101B6000BD4680BD440000204C00002048000020FD
:101B700080B400AF064B1B781A46064B1B68134413
:101B8000044A136000BFBD465DF8047B704700BF88
:101B90004C000020D807002080B400AF034B1B6826
:101BA0001846BD465DF8047B704700BFD80700208B
:101BB00080B400AF044BDB681B0A03F00703184630
:101BC000BD465DF8047B704700ED00E080B483B053
:101BD00000AF0346FB7197F90730002B0BDB094977
:101BE00097F907305B09FA7902F01F02012000FA29
:101BF00002F241F8232000BF0C37BD465DF8047B9C
:101C0000704700BF00E100E080B483B000AF03463E
:101C10003960FB7197F90730002B0ADB0D4997F902
:101C200007303A68D2B21201D2B20B4483F80023D3
:101C30000AE00949FB7903F00F03043B3A68D2B28A
:101C40001201D2B20B441A7600BF0C37BD465DF8C4
:101C5000047B704700E100E000ED00E080B489B053
:101C600000AFF860B9607A60FB6803F00703FB61BE
:101C7000FB69C3F10703042B28BF0423BB61FB6985
:101C80000433062B02D9FB69033B00E000237B6190
:101C90000122BB6902FA03F35A1EBB681A407B6932
:101CA0009A4001217B6901FA03F3591E7B680B40BE
:101CB000134318462437BD465DF8047B7047000087
:101CC00080B582B000AF78607B68013BB3F1807F64
:101CD00001D301230FE00A4A7B68013B53600F21C7
:101CE0004FF0FF30FFF790FF054B00229A60044B46
:101CF00007221A60002318460837BD4680BD00BF82
:101D000010E000E080B586B000AF0346B9607A60AD
:101D1000FB7300237B61FFF74BFF78617A68B9683A
:101D20007869FFF79BFF024697F90F301146184676
:101D3000FFF76AFF00BF1837BD4680BD80B582B08F
:101D400000AF0346FB7197F907301846FFF73EFFD7
:101D500000BF0837BD4680BD80B582B000AF786057
:101D60007868FFF7ADFF034618460837BD4680BDCB
:101D700080B586B000AF786000237B61FFF70CFF71
:101D800038617B68002B01D1012399E07B68002238
:101D900083F834207B68022283F835207B681B6837
:101DA0007A681268126822F001021A600FE0FFF7E9
:101DB000F3FE02463B69D31A052B08D97B68202223
:101DC0005A657B68032283F83520032378E07B681B
:101DD0001B681B6803F00103002BE8D17B681B68BC
:101DE0001B687B617A69384B13407B617B685A685A
:101DF0007B689B681A437B68DB681A437B681B69B6
:101E00001A437B685B691A437B689B691A437B684A
:101E1000DB691A437B681B6A13437A6913437B614E
:101E20007B685B6A042B07D17B68DA6A7B681B6B73
:101E300013437A6913437B617B681B687A691A6074
:101E40007B681B685B697B617B6923F007037B61AF
:101E50007B685B6A7A6913437B617B685B6A042BEE
:101E600017D17B689B6A7A6913437B617B68DB6A65
:101E7000002B0ED0786800F001FB0346002B08D041
:101E80007B6840225A657B68012283F83520012354
:101E900016E07B681B687A695A61786800F0B8FAC6
:101EA0000346FB607B68DB6D3F229A40FB689A60CB
:101EB0007B6800225A657B68012283F83520002365
:101EC00018461837BD4680BD3F8010F080B586B0FB
:101ED00000AFF860B9607A603B600023FB75FB6877
:101EE0009B6D3B61FB6893F83430012B01D10223D9
:101EF00040E0FB68012283F83420FB6893F835301A
:101F0000DBB2012B2FD1FB68022283F83520FB685E
:101F100000225A653B687A68B968F86800F04AFAA6
:101F2000FB68DB6D3F229A403B699A60FB681B6847
:101F3000FA681268126842F016021A60FB681B6C9D
:101F4000002B07D0FB681B68FA681268126842F021
:101F500008021A60FB681B68FA681268126842F08F
:101F600001021A6005E0FB68002283F83420022396
:101F7000FB75FB7D18461837BD4680BD80B584B023
:101F800000AF78607B689B6DFB60FFF705FEB86073
:101F90007B6893F83530DBB2022B08D07B68802257
:101FA0005A657B68002283F83420012352E07B6865
:101FB0001B687A681268126822F016021A607B6841
:101FC0001B687A681268526922F080025A617B6845
:101FD0001B6C002B03D17B689B6C002B07D07B68AC
:101FE0001B687A681268126822F008021A607B681F
:101FF0001B687A681268126822F001021A6013E006
:10200000FFF7CAFD0246BB68D31A052B0CD97B68C3
:1020100020225A657B68002283F834207B680322E3
:1020200083F83520032315E07B681B681B6803F0E9
:102030000103002BE4D17B68DB6D3F229A40FB68F3
:102040009A607B68002283F834207B68012283F841
:102050003520002318461037BD4680BD80B483B0BC
:1020600000AF78607B6893F83530DBB2022B04D088
:102070007B6880225A6501230CE07B68052283F887
:1020800035207B681B687A681268126822F00102AA
:102090001A60002318460C37BD465DF8047B704774
:1020A00080B586B000AF78600023BB60924B1B68A0
:1020B000924AA2FB03239B0A7B617B689B6D3B6179
:1020C0003B691B68FB607B68DB6D08229A40FB68FC
:1020D0001340002B1AD07B681B681B6803F00403B5
:1020E000002B13D07B681B687A681268126822F094
:1020F00004021A607B68DB6D08229A403B699A6093
:102100007B685B6D43F001027B685A657B68DB6D21
:1021100001229A40FB681340002B12D07B681B6899
:102120005B6903F08003002B0BD07B68DB6D012221
:102130009A403B699A607B685B6D43F002027B6862
:102140005A657B68DB6D04229A40FB681340002BC4
:1021500012D07B681B681B6803F00203002B0BD0B6
:102160007B68DB6D04229A403B699A607B685B6DFB
:1021700043F004027B685A657B68DB6D10229A404D
:10218000FB681340002B43D07B681B681B6803F07F
:102190000803002B3CD07B68DB6D10229A403B6922
:1021A0009A607B681B681B6803F48023002B18D09F
:1021B0007B681B681B6803F40023002B08D17B6835
:1021C0001B6C002B24D07B681B6C786898471FE041
:1021D0007B689B6C002B1BD07B689B6C7868984756
:1021E00016E07B681B681B6803F48073002B07D123
:1021F0007B681B687A681268126822F008021A600D
:102200007B681B6C002B03D07B681B6C786898473D
:102210007B68DB6D20229A40FB681340002B00F0A6
:102220008E807B681B681B6803F01003002B00F096
:1022300086807B68DB6D20229A403B699A607B68D0
:1022400093F83530DBB2052B36D17B681B687A6892
:102250001268126822F016021A607B681B687A689E
:102260001268526922F080025A617B681B6C002B55
:1022700003D17B689B6C002B07D07B681B687A6856
:102280001268126822F008021A607B68DB6D3F2238
:102290009A403B699A607B68002283F834207B680F
:1022A000012283F835207B681B6D002B7DD07B6875
:1022B0001B6D7868984778E07B681B681B6803F49F
:1022C0008023002B1CD07B681B681B6803F4002351
:1022D000002B08D17B685B6C002B30D07B685B6C7B
:1022E000786898472BE07B68DB6B002B27D07B68F6
:1022F000DB6B7868984722E044000020B5814E1BD4
:102300007B681B681B6803F48073002B0FD17B680C
:102310001B687A681268126822F010021A607B68E3
:10232000002283F834207B68012283F835207B6803
:10233000DB6B002B03D07B68DB6B786898477B688E
:102340005B6D002B32D07B685B6D03F00103002BCB
:1023500022D07B68052283F835207B681B687A6869
:102360001268126822F001021A60BB680133BB6078
:102370007A69934207D87B681B681B6803F00103E6
:10238000002BF2D100E000BF7B68002283F83420EC
:102390007B68012283F835207B68DB6C002B05D03D
:1023A0007B68DB6C7868984700E000BF1837BD4653
:1023B00080BD00BF80B485B000AFF860B9607A60BE
:1023C0003B60FB681B68FA681268126822F480227E
:1023D0001A60FB681B683A685A60FB689B68402B70
:1023E00008D1FB681B687A689A60FB681B68BA684A
:1023F000DA6007E0FB681B68BA689A60FB681B68D4
:102400007A68DA6000BF1437BD465DF8047B704718
:1024100080B485B000AF78607B681B68DBB2103B8E
:10242000144AA2FB03231B09FB60134AFB681344F5
:102430001B781A467B68DA65FB68032B09D97B6831
:102440001B6823F47F7323F003031A1D7B689A65CE
:1024500007E07B681B6823F47F7323F003037A682B
:1024600093657B689B6D18461437BD465DF8047B09
:10247000704700BFABAAAAAA5C8B010880B485B0E4
:1024800000AF78600023FB737B689B6ABB607B684E
:102490009B69002B1FD1BB68032B55D801A252F8B2
:1024A00023F000BFB5240008C7240008B5240008A5
:1024B000492500087B68DB6A03F08073002B45D058
:1024C0000123FB7342E07B68DB6AB3F1C07F3FD13D
:1024D0000123FB733CE07B689B69B3F5005F21D16E
:1024E000BB68032B36D801A252F823F0FD24000864
:1024F00003250008FD240008152500080123FB73AF
:102500002FE07B68DB6A03F08073002B24D001236B
:10251000FB7321E07B68DB6AB3F1C07F1ED101232E
:10252000FB731BE0BB68022B02D9032B03D018E01E
:102530000123FB7315E07B68DB6A03F08073002BDB
:102540000ED00123FB730BE000BF0AE000BF08E0E0
:1025500000BF06E000BF04E000BF02E000BF00E0F3
:1025600000BFFB7B18461437BD465DF8047B7047FF
:1025700080B489B000AF7860396000237B610023AC
:102580003B610023BB610023FB614DE10122FB693C
:1025900002FA03F37B613B681A687B6913403B6175
:1025A0003A697B699A4240F03C813B685B68012B49
:1025B0000BD03B685B68022B07D03B685B68112B34
:1025C00003D03B685B68122B30D17B689B68BB6192
:1025D000FB695B00032202FA03F3DB43BA69134091
:1025E000BB613B68DA68FB695B0002FA03F3BA6916
:1025F0001343BB617B68BA699A607B685B68BB61A7
:102600000122FB6902FA03F3DB43BA691340BB61A1
:102610003B685B681B0903F00102FB6902FA03F3E4
:10262000BA691343BB617B68BA695A607B68DB682F
:10263000BB61FB695B00032202FA03F3DB43BA6967
:102640001340BB613B689A68FB695B0002FA03F3C5
:10265000BA691343BB617B68BA69DA603B685B683F
:10266000022B03D03B685B68122B23D1FB69DA088D
:102670007B68083253F82230BB61FB6903F0070323
:102680009B000F2202FA03F3DB43BA691340BB61DC
:102690003B681A69FB6903F007039B0002FA03F326
:1026A000BA691343BB61FB69DA087B680832B96910
:1026B00043F822107B681B68BB61FB695B00032247
:1026C00002FA03F3DB43BA691340BB613B685B6802
:1026D00003F00302FB695B0002FA03F3BA691343D8
:1026E000BB617B68BA691A603B685B6803F0805322
:1026F000002B00F096800023FB60504A4F4B5B6C30
:1027000043F4804353644D4B5B6C03F48043FB60A4
:10271000FB684B4AFB699B08023352F82330BB61CC
:10272000FB6903F003039B000F2202FA03F3DB4370
:10273000BA691340BB617B68424A93420DD07B6803
:10274000414A934207D07B68404A934201D1022319
:1027500004E0072302E0012300E00023FA6902F00D
:10276000030292009340BA691343BB613449FB6989
:102770009B080233BA6941F82320354B1B68BB61C3
:102780003B69DB43BA691340BB613B685B6803F498
:102790008033002B03D0BA693B691343BB612C4AD9
:1027A000BB6913602A4B5B68BB613B69DB43BA6959
:1027B0001340BB613B685B6803F40033002B03D01C
:1027C000BA693B691343BB61214ABB695360204B23
:1027D0009B68BB613B69DB43BA691340BB613B68E3
:1027E0005B6803F48013002B03D0BA693B69134381
:1027F000BB61174ABB699360154BDB68BB613B69E2
:10280000DB43BA691340BB613B685B6803F40013A8
:10281000002B03D0BA693B691343BB610C4ABB6907
:10282000D360FB690133FB61FB690F2B7FF6AEAE12
:1028300000BF2437BD465DF8047B70470038024076
:10284000003801400000024000040240000802403D
:10285000003C014080B485B000AF78600B467B80BF
:102860007B681A697B881340002B02D00123FB731D
:1028700001E00023FB73FB7B18461437BD465DF86F
:10288000047B704780B483B000AF78600B467B80D8
:1028900013467B707B78002B03D07A887B689A6123
:1028A00003E07B881A047B689A6100BF0C37BD4641
:1028B0005DF8047B7047000080B582B000AF03462E
:1028C000FB80084B5A69FB881340002B06D0054A51
:1028D000FB885361FB881846FEF73AF900BF0837BA
:1028E000BD4680BD003C014080B584B000AF78603B
:1028F00039607B68002B01D10123CCE0684B1B6859
:1029000003F00F023B689A420CD2654B3A68D2B290
:102910001A70634B1B6803F00F023B689A4201D0A8
:102920000123B8E07B681B6803F00203002B20D072
:102930007B681B6803F00403002B05D0594A594BF0
:102940009B6843F4E05393607B681B6803F00803C3
:10295000002B05D0534A534B9B6843F4604393606C
:102960005049504B9B6823F0F0027B689B681343EF
:102970008B607B681B6803F00103002B44D07B68ED
:102980005B68012B07D1474B1B6803F40033002B16
:1029900019D101237FE07B685B68022B03D07B6841
:1029A0005B68032B07D13F4B1B6803F00073002BC0
:1029B00009D101236FE03B4B1B6803F00203002B9E
:1029C00001D1012367E03749364B9B6823F00302AE
:1029D0007B685B6813438B60FFF7DEF8F8600AE002
:1029E000FFF7DAF80246FB68D31A41F288329342C5
:1029F00001D903234FE02B4B9B6803F00C027B684B
:102A00005B689B009A42EBD1254B1B6803F00F02D9
:102A10003B689A420CD9224B3A68D2B21A70204BCA
:102A20001B6803F00F023B689A4201D0012332E099
:102A30007B681B6803F00403002B08D01949194B6D
:102A40009B6823F4E0527B68DB6813438B607B68F0
:102A50001B6803F00803002B09D01249114B9B6837
:102A600023F460427B681B69DB0013438B6000F03A
:102A700021F801460B4B9B681B0903F00F030A4A20
:102A8000D35C21FA03F3094A1360094B1B6818460B
:102A9000FFF73EF8002318461037BD4680BD00BF43
:102AA000003C024000380240448B010844000020F2
:102AB000480000202DE9F04F8FB000AF0023FB62EB
:102AC00000237B630023BB6200233B63624B9B6854
:102AD00003F00C03042B07D0082B08D0002B40F088
:102AE000B2805E4B3B63B1E05D4B3B63AEE05A4B63
:102AF0005B6803F03F03FB62574B5B6803F48003A2
:102B0000002B4ED0544B5B689B094FF0000440F201
:102B1000FF114FF0000201EA030102EA04020B4632
:102B2000144660017862786A40EAD36078625B019B
:102B30003B62D7E908345B1A64EB02044FEA84195C
:102B400049EA93694FEA8318B8EB030869EB040973
:102B50004FEAC903FB61FB6943EA5873FB614FEA23
:102B6000C803BB61D7E9068918EB010849EB0209E4
:102B70004FEA49237B617B6943EAD8537B614FEA83
:102B800048233B61D7E9048940464946FB6A4FF038
:102B900000041A462346FDF78BFB03460C467B6375
:102BA00043E02D4B5B689B094FF0000440F2FF119E
:102BB0004FF0000201EA030102EA04020B46144648
:102BC0006001F860F86840EAD360F8605B01BB60C0
:102BD000D7E902345B1A64EB0204A60146EA936665
:102BE0009D01ED1A66EB0406F3007B607B6843EA07
:102BF00055737B60EB003B6097E860006D1846EB17
:102C000002064FEA862B4BEA955B4FEA852A55462A
:102C10005E4628463146FB6A4FF000041A462346BA
:102C2000FDF746FB03460C467B630B4B5B681B0CB6
:102C300003F0030301335B00BB627A6BBB6AB2FB38
:102C4000F3F33B6302E0054B3B6300BF3B6B18466D
:102C50003C37BD46BDE8F08F003802400024F40048
:102C600000127A0080B400AF034B1B681846BD46C3
:102C70005DF8047B704700BF4400002080B500AFC2
:102C8000FFF7F0FF0146054B9B689B0A03F0070323
:102C9000034AD35C21FA03F3184680BD0038024092
:102CA000548B010880B500AFFFF7DCFF0146054BF0
:102CB0009B685B0B03F00703034AD35C21FA03F321
:102CC000184680BD00380240548B010880B586B09C
:102CD00000AF786000233B617B681B6803F0010351
:102CE000002B75D0A24B9B6803F00C03042B0CD077
:102CF0009F4B9B6803F00C03082B12D19C4B5B6825
:102D000003F48003B3F5800F0BD1994B1B6803F4D8
:102D10000033002B5BD07B685B68002B57D101230D
:102D20000BE27B685B68B3F5803F06D1904A904B1D
:102D30001B6843F4803313601DE07B685B68B3F568
:102D4000A02F0CD18A4A8A4B1B6843F4802313605E
:102D5000874A874B1B6843F4803313600BE0844A37
:102D6000834B1B6823F480331360814A804B1B68BC
:102D700023F4802313607B685B68002B13D0FEF77D
:102D80000BFF386108E0FEF707FF02463B69D31AE4
:102D9000642B01D90323D0E1754B1B6803F4003386
:102DA000002BF0D014E0FEF7F7FE386108E0FEF7E4
:102DB000F3FE02463B69D31A642B01D90323BCE11D
:102DC0006B4B1B6803F40033002BF0D100E000BF15
:102DD0007B681B6803F00203002B63D0644B9B6885
:102DE00003F00C03002B0BD0614B9B6803F00C032A
:102DF000082B1CD15E4B5B6803F48003002B16D1BB
:102E00005B4B1B6803F00203002B05D07B68DB687B
:102E1000012B01D0012390E15549554B1B6823F04C
:102E2000F8027B681B69DB0013430B603AE07B68A8
:102E3000DB68002B20D04F4B01221A60FEF7ACFE5E
:102E4000386108E0FEF7A8FE02463B69D31A022B60
:102E500001D9032371E1464B1B6803F00203002BE9
:102E6000F0D04349424B1B6823F0F8027B681B6992
:102E7000DB0013430B6015E03E4B00221A60FEF7A7
:102E80008BFE386108E0FEF787FE02463B69D31AE5
:102E9000022B01D9032350E1354B1B6803F00203D9
:102EA000002BF0D17B681B6803F00803002B30D0A7
:102EB0007B685B69002B16D02F4B01221A60FEF74E
:102EC0006BFE386108E0FEF767FE02463B69D31AE5
:102ED000022B01D9032330E1254B5B6F03F0020382
:102EE000002BF0D015E0244B00221A60FEF754FEB0
:102EF000386108E0FEF750FE02463B69D31A022B08
:102F000001D9032319E11A4B5B6F03F00203002B75
:102F1000F0D17B681B6803F00403002B00F09F8056
:102F20000023FB75124B1B6C03F08053002B0FD159
:102F30000023FB600E4A0E4B1B6C43F0805313645E
:102F40000B4B1B6C03F08053FB60FB680123FB758C
:102F50000A4B1B6803F48073002B20D1074A074BF0
:102F60001B6843F480731360FEF716FE386110E0AF
:102F70000038024000004742800E47420070004087
:102F8000FEF70AFE02463B69D31A022B01D903233E
:102F9000D3E06C4B1B6803F48073002BF0D07B688C
:102FA0009B68012B06D1684A674B1B6F43F00103F6
:102FB00013671CE07B689B68052B0CD1624A624B4F
:102FC0001B6F43F0040313675F4A5F4B1B6F43F0B3
:102FD000010313670BE05C4A5B4B1B6F23F001039B
:102FE0001367594A584B1B6F23F0040313677B6820
:102FF0009B68002B15D0FEF7CFFD38610AE0FEF785
:10300000CBFD02463B69D31A41F28832934201D983
:10301000032392E04C4B1B6F03F00203002BEED016
:1030200014E0FEF7B9FD38610AE0FEF7B5FD02468F
:103030003B69D31A41F28832934201D903237CE0E1
:10304000414B1B6F03F00203002BEED1FB7D012BE4
:1030500005D13D4A3C4B1B6C23F0805313647B68C5
:103060009B69002B68D0384B9B6803F00C03082B3E
:1030700060D07B689B69022B45D1344B00221A60DB
:10308000FEF78AFD386108E0FEF786FD02463B69DF
:10309000D31A022B01D903234FE02B4B1B6803F0FB
:1030A0000073002BF0D128497B68DA697B681B6AC2
:1030B0001A437B685B6A9B011A437B689B6A5B08C7
:1030C000013B1B041A437B68DB6A1B061A437B68BF
:1030D0001B6B1B0713434B601C4B01221A60FEF74E
:1030E0005BFD386108E0FEF757FD02463B69D31AE5
:1030F000022B01D9032320E0134B1B6803F000735C
:10310000002BF0D018E0114B00221A60FEF744FDAE
:10311000386108E0FEF740FD02463B69D31A022BF6
:1031200001D9032309E0084B1B6803F00073002B4F
:10313000F0D101E0012300E0002318461837BD4616
:1031400080BD00BF00700040003802406000474270
:1031500080B582B000AF78607B68002B01D101237D
:1031600055E07B6800229A627B6893F85130DBB2AD
:10317000002B06D17B68002283F850207868FEF788
:10318000BFF87B68022283F851207B681B687A684D
:103190001268126822F040021A607B681B687A6825
:1031A00051687A68926811437A68D26811437A68E4
:1031B000126911437A68526911437A68926902F47C
:1031C000007211437A68D26911437A68126A114316
:1031D0007A68926A0A431A607B681B687A68926907
:1031E000120C02F004017A68526A0A435A607B6842
:1031F0001B687A681268D26922F40062DA617B681F
:1032000000225A657B68012283F85120002318466A
:103210000837BD4680BD000080B586B000AFF860BD
:10322000B9601346FB800023FB75FB6893F85030B0
:10323000012B01D1022393E0FB68012283F8502087
:10324000FB6893F85130DBB2012B02D00223FB75EF
:1032500081E0BB68002B02D0FB88002B02D1012348
:10326000FB7578E0FB68032283F85120FB6800229D
:103270005A65FB68BA681A63FB68FA889A86FB6825
:10328000FA88DA86FB6800229A63FB6800225A6497
:10329000FB6800221A64FB6800229A87FB68002200
:1032A000DA87FB689B68B3F5004F07D1FB681B68A2
:1032B000FA681268126842F480421A60FB689B6CDC
:1032C000294A1A64FB689B6C284ADA63FB689B6C8A
:1032D000274ADA64FB689B6C00221A65FB68986CCD
:1032E000FB681B6B1946FB681B680C331A46FB68AE
:1032F000DB8E9BB2FEF7EAFD0346002B0CD0FB6889
:103300005B6D43F01002FB685A650123FB75FB6897
:10331000012283F851201EE0FB681B681B6803F044
:103320004003402B07D0FB681B68FA6812681268DC
:1033300042F040021A60FB681B68FA681268526823
:1033400042F020025A60FB681B68FA6812685268F3
:1033500042F002025A60FB68002283F85020FB7D95
:1033600018461837BD4680BD81390008A1370008CE
:10337000D539000880B586B000AFF860B9607A60D2
:103380007B800023FB75FB6893F85030012B01D143
:103390000223E3E0FB68012283F85020FB6893F8E6
:1033A0005130BB75FB685B683B61BB7D012B0DD069
:1033B0003B69B3F5827F06D1FB689B68002B02D185
:1033C000BB7D042B02D00223FB75C2E0BB68002B3F
:1033D00005D07B68002B02D07B88002B02D1012313
:1033E000FB75B6E0FB6893F85130DBB2042B03D0D9
:1033F000FB68052283F85120FB6800225A65FB68B0
:10340000BA681A63FB687A889A86FB687A88DA86D3
:10341000FB687A689A63FB687A889A87FB687A887F
:10342000DA87FB6800221A64FB6800225A64FB6892
:1034300093F85130DBB2042B08D1FB68DB6C494AAE
:103440001A64FB68DB6C484ADA6307E0FB68DB6CF4
:10345000464A1A64FB68DB6C454ADA63FB68DB6C3E
:10346000444ADA64FB68DB6C00221A65FB68D86C9E
:10347000FB681B680C331946FB689B6B1A46FB689C
:10348000DB8F9BB2FEF722FD0346002B0CD0FB68BE
:103490005B6D43F01002FB685A650123FB75FB6806
:1034A000012283F8512054E0FB681B68FA68126817
:1034B000526842F001025A60FB689B6C00221A6459
:1034C000FB689B6C0022DA63FB689B6C0022DA6469
:1034D000FB689B6C00221A65FB68986CFB681B6B91
:1034E0001946FB681B680C331A46FB68DB8E9BB2DF
:1034F000FEF7ECFC0346002B0CD0FB685B6D43F041
:103500001002FB685A650123FB75FB68012283F8F2
:1035100051201EE0FB681B681B6803F04003402B32
:1035200007D0FB681B68FA681268126842F0400214
:103530001A60FB681B68FA681268526842F0200241
:103540005A60FB681B68FA681268526842F002020F
:103550005A60FB68002283F85020FB7D184618371C
:10356000BD4680BD9D39000849380008B9390008BA
:10357000F1380008D539000880B588B000AF786010
:103580000023FB776E4B1B686E4AA2FB03235B0A8A
:10359000642202FB03F37B617B69BB617B681B6870
:1035A0007A681268526822F020025A607B681B68B1
:1035B0005B6803F08003802B17D17B68624A5A64F2
:1035C000BB69002B06D17B685B6D43F040027B68D2
:1035D0005A6508E0BB69013BBB617B6893F85130D9
:1035E000DBB2072BECD17B69BB617B681B685B6836
:1035F00003F04003402B17D17B68544A1A64BB691F
:10360000002B06D17B685B6D43F040027B685A65F6
:1036100008E0BB69013BBB617B6893F85130DBB2CA
:10362000072BECD17B69BB617B681B685B6803F08F
:103630000203022B2ED17B689B6C002B2AD07B6867
:103640009B6C00221A657B689B6C1846FEF796FC03
:103650000346002B02D07B6840225A657B681B68BA
:103660007A681268526822F002025A60BB69002B25
:1036700006D17B685B6D43F040027B685A6509E0C8
:10368000BB69013BBB617B681B689B6803F002035D
:10369000002BEBD07B681B685B6803F00103012BF8
:1036A00022D17B68DB6C002B1ED07B68DB6C002298
:1036B0001A657B68DB6C1846FEF760FC0346002B3E
:1036C00002D07B6840225A657B681B687A68126862
:1036D000126822F040021A607B681B687A681268E0
:1036E000526822F001025A607B680022DA877B6808
:1036F0000022DA867B685B6D402B02D10123FB77C9
:1037000002E07B6800225A6500233B617B681B68EE
:10371000DB683B617B681B689B683B613B690023FE
:10372000FB607B681B689B68FB60FB687B68012211
:1037300083F85120FB7F18462037BD4680BD00BF6F
:1037400044000020F1197605C13C0008393C00080E
:1037500080B483B000AF786000BF0C37BD465DF821
:10376000047B704780B483B000AF786000BF0C3733
:10377000BD465DF8047B704780B483B000AF7860CD
:1037800000BF0C37BD465DF8047B704780B483B042
:1037900000AF786000BF0C37BD465DF8047B704712
:1037A00080B586B000AF78607B689B6B7B61FEF76D
:1037B000F3F938617B681B681B6803F48073B3F509
:1037C000807F3BD07B691B687A691268526822F05F
:1037D00020025A607B691B687A691268526822F07D
:1037E00002025A603A696421786900F0E3F90346FD
:1037F000002B05D07B695B6D43F020027B695A6525
:103800007B699B68002B0AD10023FB607B691B68E6
:10381000DB68FB607B691B689B68FB60FB687B69FE
:103820000022DA867B69012283F851207B695B6D77
:10383000002B03D07869FDF755F902E07869FDF7B0
:1038400005F91837BD4680BD80B584B000AF7860FB
:103850007B689B6BFB60FEF79FF9B8607B681B6819
:103860001B6803F48073B3F5807F3BD0FB681B6853
:10387000FA681268526822F020025A60FB689B685E
:10388000002B0DD1FB685B68B3F5827F08D1FB6824
:103890001B68FA681268526822F003025A6007E057
:1038A000FB681B68FA681268526822F001025A60CD
:1038B000BA686421F86800F017F90346002B02D0BB
:1038C000FB6820225A65FB680022DA87FB68012228
:1038D00083F85120FB685B6D002B03D0F868FDF77F
:1038E00001F902E0F868FFF733FF1037BD4680BDED
:1038F00080B584B000AF78607B689B6BFB60FEF79F
:103900004BF9B8607B681B681B6803F48073B3F5E0
:10391000807F2FD0FB681B68FA681268526822F01B
:1039200020025A60BA686421F86800F043F903463F
:10393000002B05D0FB685B6D43F02002FB685A65E5
:10394000FB681B68FA681268526822F003025A602A
:10395000FB680022DA86FB680022DA87FB68012216
:1039600083F85120FB685B6D002B03D0F868FDF7EE
:10397000B9F802E0F868FDF783F81037BD4680BD5E
:1039800080B584B000AF78607B689B6BFB60F868A3
:10399000FFF7E8FE00BF1037BD4680BD80B584B09C
:1039A00000AF78607B689B6BFB60F868FFF7E4FE14
:1039B00000BF1037BD4680BD80B584B000AF7860D1
:1039C0007B689B6BFB60F868FFF7E0FE00BF103779
:1039D000BD4680BD80B584B000AF78607B689B6BCE
:1039E000FB60FB681B68FA681268526822F00302E9
:1039F0005A60FB685B6D43F01002FB685A65FB6818
:103A0000012283F85120F868FDF76CF800BF1037E9
:103A1000BD4680BD80B584B000AFF860B9603B6042
:103A20001346FB714CE03B68B3F1FF3F48D0FEF713
:103A3000B3F80246BB69D21A3B689A4202D23B688D
:103A4000002B3DD1FB681B68FA681268526822F0AF
:103A5000E0025A60FB685B68B3F5827F11D1FB68B6
:103A60009B68B3F5004F04D0FB689B68B3F5806F8B
:103A700007D1FB681B68FA681268126822F04002DE
:103A80001A60FB689B6AB3F5005F0FD1FB681B6887
:103A9000FA681268126822F400521A60FB681B6808
:103AA000FA681268126842F400521A60FB68012238
:103AB00083F85120FB68002283F8502003230FE095
:103AC000FB681B689A68BB681A40BB689A420CBFC7
:103AD00001230023DBB21A46FB799A42A3D10023CB
:103AE00018461037BD4680BD80B586B002AFF8607D
:103AF000B9607A60FB685B68B3F5827F11D1FB68BF
:103B00009B68B3F5004F04D0FB689B68B3F5806FEA
:103B100007D1FB681B68FA681268126822F040023D
:103B20001A60FB685B68B3F5827F2AD1FB689B68EB
:103B3000B3F5806F12D07B680093BB6800228021B0
:103B4000F868FFF767FF0346002B2DD0FB685B6D1D
:103B500043F02002FB685A65032326E07B6800934C
:103B6000BB6800220121F868FFF754FF0346002BD1
:103B70001AD0FB685B6D43F02002FB685A65032393
:103B800013E07B680093BB6800220121F868FFF70F
:103B900041FF0346002B07D0FB685B6D43F020021A
:103BA000FB685A65032300E0002318461037BD4622
:103BB00080BD000080B588B002AFF860B9607A605F
:103BC0001B4B1B681B4AA2FB03235B0D4FF47A724D
:103BD00002FB03F37B61FB685B68B3F5827F12D164
:103BE0007B680093BB6800228021F868FFF712FF12
:103BF0000346002B16D0FB685B6D43F02002FB6888
:103C00005A6503230FE07B69002B0AD07B69013BD7
:103C10007B61FB681B689B6803F08003802BF2D0FC
:103C200000E000BF002318461837BD4680BD00BF26
:103C300044000020819F5E1680B485B000AF78609C
:103C40001D4B1B681D4AA2FB03235B0A642202FB77
:103C500003F3FB60FB68002B06D17B685B6D43F0D0
:103C600040027B685A6509E0FB68013BFB607B68AA
:103C70001B689B6803F00203002BEBD07B681B687A
:103C80007A681268126822F040021A607B681B682A
:103C90007A681268526822F0E0025A607B681B68FA
:103CA000DB687B68072283F8512000BF1437BD46CC
:103CB0005DF8047B704700BF44000020F1197605D1
:103CC00080B483B000AF78607B681B687A68126844
:103CD000526822F080025A607B681B687A6812681A
:103CE000126822F040021A607B68072283F8512094
:103CF00000BF0C37BD465DF8047B704780B582B0CD
:103D000000AF78607B68002B01D101231DE07B6848
:103D100093F83D30DBB2002B06D17B68002283F89C
:103D20003C207868FDF7C4FD7B68022283F83D20C3
:103D30007B681A687B6804331946104600F056FA0F
:103D40007B68012283F83D20002318460837BD46D2
:103D500080BD80B485B000AF78607B68022283F8B4
:103D60003D207B681B689B6803F00703FB60FB68D2
:103D7000062B07D07B681B687A681268126842F0CD
:103D800001021A607B68012283F83D200023184657
:103D90001437BD465DF8047B704780B582B000AF34
:103DA00078607B681B681B6903F00203022B22D139
:103DB0007B681B68DB6803F00203022B1BD17B6866
:103DC0001B686FF002021A617B6801221A777B6818
:103DD0001B689B6903F00303002B03D0786800F095
:103DE000E7F905E0786800F0D9F9786800F0EAF9B9
:103DF0007B6800221A777B681B681B6903F0040349
:103E0000042B22D17B681B68DB6803F00403042BBE
:103E10001BD17B681B686FF004021A617B68022269
:103E20001A777B681B689B6903F44073002B03D0EF
:103E3000786800F0BDF905E0786800F0AFF97868BF
:103E400000F0C0F97B6800221A777B681B681B6949
:103E500003F00803082B22D17B681B68DB6803F0A2
:103E60000803082B1BD17B681B686FF008021A61DE
:103E70007B6804221A777B681B68DB6903F0030305
:103E8000002B03D0786800F093F905E0786800F023
:103E900085F9786800F096F97B6800221A777B68CC
:103EA0001B681B6903F01003102B22D17B681B6871
:103EB000DB6803F01003102B1BD17B681B686FF0CD
:103EC00010021A617B6808221A777B681B68DB691D
:103ED00003F44073002B03D0786800F069F905E023
:103EE000786800F05BF9786800F06CF97B68002274
:103EF0001A777B681B681B6903F00103012B0ED145
:103F00007B681B68DB6803F00103012B07D17B682A
:103F10001B686FF001021A617868FCF717FF7B6875
:103F20001B681B6903F08003802B0ED17B681B6824
:103F3000DB6803F08003802B07D17B681B686FF080
:103F400080021A61786800F097FB7B681B681B6928
:103F500003F04003402B0ED17B681B68DB6803F045
:103F60004003402B07D17B681B686FF040021A6149
:103F7000786800F031F97B681B681B6903F0200347
:103F8000202B0ED17B681B68DB6803F02003202BFD
:103F900007D17B681B686FF020021A61786800F017
:103FA00061FB00BF0837BD4680BD80B584B000AF5F
:103FB000786039607B6893F83C30012B01D1022393
:103FC000A6E07B68012283F83C207B68022283F80C
:103FD0003D207B681B689B68FB60FB6823F07703D0
:103FE000FB60FB6823F47F43FB607B681B68FA6817
:103FF0009A603B681B68402B67D0402B0BD8102B76
:1040000073D0102B02D8002B6FD078E0202B6CD00F
:10401000302B6AD073E0702B0DD0702B04D8502B4E
:1040200033D0602B41D06AE0B3F5805F66D0B3F542
:10403000005F17D063E07B6818683B6899683B684D
:104040005A683B68DB6800F071FA7B681B689B6804
:10405000FB60FB6843F07703FB607B681B68FA68D2
:104060009A604CE07B6818683B6899683B685A68BE
:104070003B68DB6800F05AFA7B681B687A68126854
:10408000926842F480429A6039E07B6818683B6825
:1040900059683B68DB681A4600F0CEF97B681B68FC
:1040A0005021184600F027FA29E07B6818683B6821
:1040B00059683B68DB681A4600F0EDF97B681B68BD
:1040C0006021184600F017FA19E07B6818683B6811
:1040D00059683B68DB681A4600F0AEF97B681B68DC
:1040E0004021184600F007FA09E07B681A683B682F
:1040F0001B681946104600F0FEF900E000BF7B681F
:10410000012283F83D207B68002283F83C200023B5
:1041100018461037BD4680BD80B582B000AF7860CC
:1041200039607B6893F83C30012B01D1022331E0E8
:104130007B68012283F83C207B68022283F83D20C3
:104140003968786800F0F2F80346002B09D07B68E4
:10415000012283F83D207B68002283F83C20012364
:1041600018E07B681B687A681268D26822F0400207
:10417000DA607B681B687A681268D26822F4804231
:10418000DA607B68012283F83D207B68002283F897
:104190003C20002318460837BD4680BD80B483B05C
:1041A00000AF786000BF0C37BD465DF8047B7047F8
:1041B00080B483B000AF786000BF0C37BD465DF8B7
:1041C000047B704780B483B000AF786000BF0C37C9
:1041D000BD465DF8047B704780B483B000AF786063
:1041E00000BF0C37BD465DF8047B704780B485B0D6
:1041F00000AF786039607B681B68FB607B68404A71
:10420000934213D07B68B3F1804F0FD07B683D4A57
:1042100093420BD07B683C4A934207D07B683B4A71
:10422000934203D07B683A4A934208D1FB6823F05B
:104230007003FB603B685B68FA681343FB607B6854
:104240002F4A93422BD07B68B3F1804F27D07B68F5
:104250002C4A934223D07B682B4A93421FD07B6821
:104260002A4A93421BD07B68294A934217D07B6825
:10427000284A934213D07B68274A93420FD07B6829
:10428000264A93420BD07B68254A934207D07B682D
:10429000244A934203D07B68234A934208D1FB68A7
:1042A00023F44073FB603B68DB68FA681343FB60F0
:1042B000FB6823F080023B685B691343FB607B680B
:1042C000FA681A603B689A687B68DA623B681A6829
:1042D0007B689A627B680A4A934203D07B680C4AE7
:1042E000934203D13B681A697B681A637B68012299
:1042F0005A6100BF1437BD465DF8047B704700BFAC
:10430000000001400004004000080040000C004094
:1043100000040140004001400044014000480140C9
:1043200000180040001C00400020004080B586B00E
:1043300000AF786039607B681B689B687B617B6934
:1043400023F070037B613B685B687A6913437B6190
:104350007B6923F007037B613B681B687A69134321
:104360007B617B681B687A699A603B685B68302B6D
:104370005CD0302B06D8102B58D0202B56D0002BD9
:1043800054D054E0502B3DD0502B02D8402B10D0AD
:104390004DE0602B40D0702B00D048E07B6818685F
:1043A0003B68D9683B689A683B681B6900F0BEF8B7
:1043B0003DE03B681B68052B01D1012338E07B6899
:1043C0001B681B6A3B617B681B687A681268126A0B
:1043D00022F001021A627B681B689B69FB60FB6824
:1043E00023F0F003FB603B681B691B01FA68134371
:1043F000FB607B681B68FA689A617B681B683A6996
:104400001A6214E07B6818683B6899683B681B690E
:104410001A4600F011F80AE07B6818683B68996852
:104420003B681B691A4600F036F800E000BF002325
:1044300018461837BD4680BD80B487B000AFF8601D
:10444000B9607A60FB681B6A7B61FB681B6A23F0BA
:104450000102FB681A62FB689B693B613B6923F0C0
:10446000F0033B617B681B013A6913433B617B6945
:1044700023F00A037B617A69BB6813437B61FB68A5
:104480003A699A61FB687A691A6200BF1C37BD46B7
:104490005DF8047B704780B487B000AFF860B96006
:1044A0007A60FB681B6A23F01002FB681A62FB68E3
:1044B0009B697B61FB681B6A3B617B6923F47043EA
:1044C0007B617B681B037A6913437B613B6923F043
:1044D000A0033B61BB681B013A6913433B61FB6866
:1044E0007A699A61FB683A691A6200BF1C37BD4657
:1044F0005DF8047B704780B485B000AF78603960A8
:104500007B689B68FB60FB6823F07003FB603A6884
:10451000FB68134343F00703FB607B68FA689A600B
:1045200000BF1437BD465DF8047B704780B487B088
:1045300000AFF860B9607A603B60FB689B687B61A4
:104540007B6923F47F437B613B681A027B681A43D3
:10455000BB6813437A6913437B61FB687A699A608D
:1045600000BF1C37BD465DF8047B704780B485B042
:1045700000AF786039607B6893F83C30012B01D143
:1045800002235AE07B68012283F83C207B680222E8
:1045900083F83D207B681B685B68FB607B681B6859
:1045A0009B68BB60FB6823F07003FB603B681B6883
:1045B000FA681343FB607B681B68FA685A607B6883
:1045C0001B68214A934222D07B681B68B3F1804F5D
:1045D0001DD07B681B681D4A934218D07B681B68FE
:1045E0001B4A934213D07B681B681A4A93420ED031
:1045F0007B681B68184A934209D07B681B68174A7E
:10460000934204D07B681B68154A93420CD1BB6867
:1046100023F08003BB603B685B68BA681343BB60F0
:104620007B681B68BA689A607B68012283F83D202A
:104630007B68002283F83C20002318461437BD46CF
:104640005DF8047B704700BF00000140000400409B
:1046500000080040000C0040000401400040014000
:104660000018004080B483B000AF786000BF0C3702
:10467000BD465DF8047B704780B483B000AF7860BE
:1046800000BF0C37BD465DF8047B704780B582B033
:1046900000AF78607B68002B01D101233FE07B688D
:1046A00093F83930DBB2002B06D17B68002283F807
:1046B00038207868FDF778F97B68242283F8392060
:1046C0007B681B687A681268D26822F40052DA604C
:1046D000786800F06BFB7B681B687A681268126967
:1046E00022F490421A617B681B687A6812685269EA
:1046F00022F02A025A617B681B687A681268D268C5
:1047000042F40052DA607B680022DA637B68202280
:1047100083F839207B68202283F83A20002318464A
:104720000837BD4680BD000080B586B000AFF86098
:10473000B9601346FB80FB6893F83930DBB2202B5D
:1047400053D1BB68002B02D0FB88002B01D1012381
:104750004CE0FB6893F83830012B01D1022345E08F
:10476000FB68012283F83820BA68FB681A62FB688C
:10477000FA889A84FB68FA88DA84FB680022DA6394
:10478000FB68212283F83920FB681B6B194ADA6326
:10479000FB681B6B184A1A64FB681B6B174ADA64C8
:1047A000FB681B6B00221A6507F108037B61FB683D
:1047B000186B7B691968FB681B6804331A46FB8811
:1047C000FDF784FBFB681B686FF040021A60FB6812
:1047D000002283F83820FB681B68FA681268526967
:1047E00042F080025A61002300E002231846183785
:1047F000BD4680BD3D4A00088F4A0008AB4A00080C
:1048000080B588B000AF78607B681B681B68FB616F
:104810007B681B68DB68BB617B681B685B697B61CD
:1048200000233B610023FB60FB6903F00F033B6146
:104830003B69002B0DD1FB6903F02003002B08D04E
:10484000BB6903F02003002B03D0786800F02CFA3A
:10485000D1E03B69002B00F0B0807B6903F00103DD
:10486000002B05D1BB6903F49073002B00F0A580E9
:10487000FB6903F00103002B0AD0BB6903F48073CA
:10488000002B05D07B68DB6B43F001027B68DA63A9
:10489000FB6903F00403002B0AD07B6903F00103DA
:1048A000002B05D07B68DB6B43F002027B68DA6388
:1048B000FB6903F00203002B0AD07B6903F00103BC
:1048C000002B05D07B68DB6B43F004027B68DA6366
:1048D000FB6903F00803002B0FD0BB6903F0200332
:1048E000002B04D17B6903F00103002B05D07B680A
:1048F000DB6B43F008027B68DA637B68DB6B002BC1
:1049000078D0FB6903F02003002B07D0BB6903F0CC
:104910002003002B02D0786800F0C6F97B681B6882
:104920005B6903F04003402B0CBF01230023DBB283
:10493000FB607B68DB6B03F00803002B02D1FB6894
:10494000002B31D0786800F010F97B681B685B6938
:1049500003F04003402B23D17B681B687A68126800
:10496000526922F040025A617B685B6B002B13D0C6
:104970007B685B6B214A1A657B685B6B1846FDF7A9
:104980006DFB0346002B16D07B685B6B1B6D7A6852
:10499000526B104698470EE0786800F045F80AE040
:1049A000786800F041F806E0786800F03DF87B6830
:1049B0000022DA631EE000BF1CE0FB6903F0800305
:1049C000002B08D0BB6903F08003002B03D078686C
:1049D00000F0FDF80FE0FB6903F04003002B0AD064
:1049E000BB6903F04003002B05D0786800F044F960
:1049F00000BF00E000BF2037BD4680BDA74B0008C8
:104A000080B483B000AF786000BF0C37BD465DF85E
:104A1000047B704780B483B000AF786000BF0C3770
:104A2000BD465DF8047B704780B483B000AF78600A
:104A300000BF0C37BD465DF8047B704780B584B07D
:104A400000AF78607B689B6BFB607B681B681B68B2
:104A500003F48073002B13D1FB680022DA84FB6817
:104A60001B68FA681268526922F080025A61FB687A
:104A70001B68FA681268D26842F04002DA6002E00D
:104A8000F868FCF7BDF900BF1037BD4680BD80B5A2
:104A900084B000AF78607B689B6BFB60F868FFF7C1
:104AA000AFFF00BF1037BD4680BD80B584B000AFFA
:104AB00078600023FB607B689B6BBB60BB681B68F6
:104AC0005B6903F08003802B0CBF01230023DBB262
:104AD000FB60BB6893F83930DBB2212B08D1FB684F
:104AE000002B05D0BB680022DA84B86800F027F8F4
:104AF000BB681B685B6903F04003402B0CBF0123BC
:104B00000023DBB2FB60BB6893F83A30DBB2222BA8
:104B100008D1FB68002B05D0BB680022DA85B86895
:104B200000F023F8BB68DB6B43F01002BB68DA636C
:104B3000B868FFF779FF00BF1037BD4680BD80B46D
:104B400083B000AF78607B681B687A681268D268AF
:104B500022F0C002DA607B68202283F8392000BF8F
:104B60000C37BD465DF8047B704780B483B000AF5E
:104B700078607B681B687A681268D26822F4907249
:104B8000DA607B681B687A681268526922F0010259
:104B90005A617B68202283F83A2000BF0C37BD465B
:104BA0005DF8047B704780B584B000AF78607B68A7
:104BB0009B6BFB60FB680022DA85FB680022DA84CD
:104BC000F868FFF731FF00BF1037BD4680BD80B4E5
:104BD00085B000AF78607B6893F83930DBB2212B69
:104BE00043D17B689B68B3F5805F19D17B681B6AF2
:104BF000FB607B681B68FA681288C2F308025A607F
:104C00007B681B69002B05D17B681B6A9A1C7B683B
:104C10001A620EE07B681B6A5A1C7B681A6208E005
:104C20007B681A687B681B6A581C796808621B7865
:104C300053607B68DB8C9BB2013B9BB27A68194660
:104C4000D184002B0FD17B681B687A681268D26808
:104C500022F08002DA607B681B687A681268D2688A
:104C600042F04002DA60002300E0022318461437C5
:104C7000BD465DF8047B704780B582B000AF7860B8
:104C80007B681B687A681268D26822F04002DA609A
:104C90007B68202283F839207868FCF7B1F800237C
:104CA00018460837BD4680BD80B584B000AF786037
:104CB0007B6893F83A30DBB2222B71D17B689B681A
:104CC000B3F5805F23D17B689B6AFB607B681B69BF
:104CD000002B0ED17B681B685B689BB2C3F3080393
:104CE0009AB2FB681A807B689B6A9A1C7B689A62FE
:104CF00029E07B681B685B689BB2DBB29AB2FB68F9
:104D00001A807B689B6A5A1C7B689A621BE07B68EE
:104D10001B69002B0AD17B689B6A591C7A689162D7
:104D20007A6812685268D2B21A700CE07B689B6A8B
:104D3000591C7A6891627A6812685268D2B202F09D
:104D40007F02D2B21A707B68DB8D9BB2013B9BB2B3
:104D50007A681946D185002B20D17B681B687A6858
:104D60001268D26822F02002DA607B681B687A68D9
:104D70001268D26822F48072DA607B681B687A68F5
:104D80001268526922F001025A617B68202283F87E
:104D90003A207868FFF73EFE002302E0002300E09F
:104DA000022318461037BD4680BD00002DE9F04FA4
:104DB000A3B000AFF867FB6F1968FB6F1B681B6936
:104DC00023F44052FB6FDB6813430B61FB6F9A685F
:104DD000FB6F1B691A43FB6F5B691A43FB6FDB694F
:104DE0001343C7F88430FB6F1968FB6F1B68DB68DF
:104DF00023F4164222F00C02D7F884301343CB6020
:104E0000FB6F1968FB6F1B685B6923F44072FB6FD3
:104E10009B6913434B61FB6FDB69B3F5004F40F0B7
:104E20007181FB6F1B68B44A934205D0FB6F1B680E
:104E3000B24A934240F0B180FDF734FFC7F88000DA
:104E4000FB6F1D68D7F8803019464FF000020B4603
:104E50001446DB1844EB04045B1844EB0204E00046
:104E60007864786C40EA53707864DB003B64D7E97F
:104E7000103413EB010844EB020940464946FB6F2E
:104E80005B684FF00004DB1844EB04041A46234629
:104E9000FBF70EFA03460C461A46994BA3FB022376
:104EA0005B091E01D7F8803019464FF000020B460F
:104EB0001446DB1844EB04045B1844EB0204E000E6
:104EC000F863F86B40EA5370F863DB00BB63D7E923
:104ED0000E3413EB010844EB020940464946FB6FD0
:104EE0005B684FF00004DB1844EB04041A462346C9
:104EF000FBF7DEF903460C461A46814BA3FB02136F
:104F00005B09642101FB03F3D31ADB0032337C4AD3
:104F1000A2FB03235B095B0003F4F8731E44D7F87C
:104F2000803019464FF000020B461446DB1844EB64
:104F300004045B1844EB0204E0007863786B40EAF9
:104F400053707863DB003B63D7E90C3413EB010843
:104F500044EB020940464946FB6F5B684FF0000492
:104F6000DB1844EB04041A462346FBF7A1F9034679
:104F70000C461A46624BA3FB02135B09642101FB3A
:104F800003F3D31ADB0032335D4AA2FB03235B0930
:104F900003F007033344AB6040E2FDF76FFEC7F850
:104FA0008000FB6F1A683A67D7F8803019464FF0D7
:104FB00000020B461446DB1844EB04045B1844EB78
:104FC0000204E000F862F86A40EA5370F862DB001D
:104FD000BB62D7E90A345D1844EB02062846314625
:104FE000FB6F5B684FF00004DB1844EB04041A46C7
:104FF0002346FBF75DF903460C461A46404BA3FBDC
:1050000002235B091E01D7F8803019464FF00002D9
:105010000B461446DB1844EB04045B1844EB020413
:105020004FEAC40B4BEA537B4FEAC30A53465C4634
:1050300013EB010A44EB020B50465946FB6F5B68C9
:105040004FF00004DB1844EB04041A462346FBF738
:105050002FF903460C461A46294BA3FB02135B09A2
:10506000642101FB03F3D31ADB003233244AA2FB91
:1050700003235B095B0003F4F8731E44D7F8803008
:1050800019464FF000020B461446DB1844EB0404AB
:105090005B1844EB02044FEAC40949EA53794FEA2A
:1050A000C30843464C4613EB010844EB0209404653
:1050B0004946FB6F5B684FF00004DB1844EB0404C7
:1050C0001A462346FBF7F4F803460C461A460C4BE7
:1050D000A3FB02135B09642101FB03F3D31ADB007A
:1050E0003233074AA2FB03235B0903F0070333446F
:1050F0003A6F936092E100BF00100140001401403C
:105100001F85EB51FB6F1A68C14B9A4205D0FB6FAC
:105110001A68C04B9A4240F0BF80FDF7C3FDC7F844
:105120008000FB6F1E68D7F8803019464FF00002F0
:105130000B461446DB1844EB04045B1844EB0204F2
:10514000E0007862786A40EA53707862DB003B6284
:10515000D7E9083413EB010844EB020940464946FD
:10516000FB6F5B684FF00004A200FA65FA6D42EA3B
:105170009372FA659B00BB65D7E91623FBF798F895
:1051800003460C461A46A44BA3FB02235B091D01F0
:10519000D7F8803019464FF000020B461446DB1852
:1051A00044EB04045B1844EB0204E000F861F86986
:1051B00040EA5370F861DB00BB61D7E9063413EBBA
:1051C000010844EB020940464946FB6F5B684FF01B
:1051D0000004A2007A657A6D42EA93727A659B00B8
:1051E0003B65D7E91423FBF763F803460C461A46E0
:1051F000894BA3FB02135B09642101FB03F3D31A60
:105200001B013233844AA2FB03235B0903F0F00342
:105210001D44D7F8803019464FF000020B46144663
:10522000DB1844EB04045B1844EB0204E0007861F3
:10523000786940EA53707861DB003B61D7E9043458
:1052400013EB010844EB020940464946FB6F5B68DB
:105250004FF00004A200FA64FA6C42EA9372FA6416
:105260009B00BB64D7E91223FBF722F803460C46E8
:105270001A46694BA3FB02135B09642101FB03F38C
:10528000D31A1B013233644AA2FB03235B0903F0E8
:105290000F032B44B360C1E0FDF7F0FCC7F88000BA
:1052A000FB6F1B68BB65D7F8803019464FF00002D2
:1052B0000B461446DB1844EB04045B1844EB020471
:1052C000E60046EA5376DD002B4634465D1844EB93
:1052D000020628463146FB6F5B684FF00004A500CC
:1052E0007D677D6F45EA93757D679C003C67D7E9D4
:1052F0001C23FAF7DDFF03460C461A46464BA3FB78
:1053000002135B091D01D7F8803019464FF00002E7
:105310000B461446DB1844EB04045B1844EB020410
:10532000E000F860F86840EA5370F860D800B860B0
:10533000D7E9023413EB010844EB02094046494621
:10534000FB6F5B684FF00004A600FE66FE6E46EA47
:105350009376FE669C00BC66D7E91A23FAF7A8FF8D
:1053600003460C461A462C4BA3FB02135B0964212F
:1053700001FB03F3D31A1B013233274AA2FB0313A9
:105380005B0903F0F0031D44D7F8803019464FF055
:1053900000020B461446DB1844EB04045B1844EB94
:1053A0000204E0007860786840EA53707860D800C2
:1053B000386097E8180013EB010844EB02094046F7
:1053C0004946FB6F5B684FF00004A6007E667E6E68
:1053D00046EA93767E669C003C66D7E91823FAF786
:1053E00067FF03460C461A460B4BA3FB02135B09EF
:1053F000642101FB03F3D31A1B013233064AA2FBDB
:1054000003135B0903F00F032B44BA6D936005E0AF
:1054100000100140001401401F85EB5100BF8C3784
:10542000BD46BDE8F08F00BFDFF834D0002103E0B7
:105430000C4B5B58435004310B480C4B42189A42BA
:10544000F6D30B4A02E0002342F8043B094B9A4290
:10545000F9D3FCF72DF912F01DF9FBF71FFD70478A
:1054600000000420FCCC010800000020B80000204F
:10547000B8000020E0070020FEE70000011DFBF758
:1054800095BB00BF10B5044682B0684601A9FBF782
:105490008DFB6068019B984219D8181A0023216877
:1054A000009A521AD31A41F2C502934206D941F228
:1054B000C602934207D1094A904204D8084A02FB27
:1054C000030002B010BD4FF0FF3002B010BD03F575
:1054D000742303F51073181A0123E0E77EC20E004F
:1054E00040420F0010B443684C68A3421BD8E41A32
:1054F00000230A680068121AD31A41F2C5029342C7
:1055000006D941F2C602934208D10A4A944205D80C
:10551000094800FB03405DF8044B70474FF0FF3033
:105520005DF8044B704704F5742404F51074E41A14
:105530000123DEE77EC20E0040420F00F0B5374E79
:10554000374F384D85B0044601A96846A6FB04369E
:10555000FBF72CFBB60C07FB1647AC4223D903A97B
:1055600002A8FBF723FBDDE900103B18AB4206EB7A
:10557000010204D9A3F57423A3F5107301328A4202
:1055800031D08CBF4FF0010C4FF0000CBCF1000F7C
:1055900016D0DDF808C0944539D08CBF0123002314
:1055A000BBB105B0F0BD002CFBD002A803A9FBF7EE
:1055B000FDFADDE900202318AB4214D91146D9E7E2
:1055C000DDF808C094451CD08CBF01230023002BBC
:1055D000C3D08C450FD08CBF0120002080F001008B
:1055E0000028BAD0DDE798428CBF4FF0000C4FF096
:1055F000010C1146CAE7039B834234BF00200120FF
:10560000ECE7039A9A4234BF00230123DFE7039AB1
:105610009A4234BF00230123C2E700BF83DE1B434D
:1056200040420F003F420F0070B5324DA94282B098
:105630000C46064626D901A96846FBF7B7FA2E4B59
:105640002E49D6E90062A3FB04039B0C01FB134126
:105650001144A942334420D8B34235D08CBF012035
:105660000020009CF8B19C423CD08CBF012100215D
:1056700039BBB4421FD08CBF0120002080F0010054
:1056800002B070BDE9B101A96846FBF78FFAD6E90F
:105690000032A118A94217D91E46A1F57421A1F51F
:1056A00010710133D8E79C4214D08CBF0120002038
:1056B00040B1B442DFD10198904234BF00200120B4
:1056C000DCE7012002B070BD914234BF0020012010
:1056D0001E46C6E70198884234BF002001200028FA
:1056E000F0D0E6E70198884234BF0021012100296B
:1056F000BFD0E6E73F420F0083DE1B4340420F006E
:1057000070B5B1F57A7F82B00C46054629D368465C
:1057100001A9FBF74BFA334B334ED5E90012A3FB3B
:1057200004039B094FF47A7505FB134005FB002029
:10573000B0420B4425D88B423BD08CBF01240024BF
:105740002CB3009C9C4244D08CBF0120002068BB3D
:105750008C4225D08CBF0120002080F0010002B0D7
:1057600070BD4FF47A7000FB04F4FCB101A96846E7
:10577000FBF71CFA6A681C492B68A018884218D9E4
:105780001946A0F57420A0F510700133D3E7009CF2
:105790009C4216D08CBF0120002040B18C42D9D150
:1057A0000198904234BF00200120D6E7012002B0CA
:1057B00070BD904234BF002401241946002CE6D06D
:1057C000BFE7019B834234BF002001200028EED0B8
:1057D000E4E7019B834234BF002001200028E5D18B
:1057E000B6E700BFD34D62103F420F002DE9F04FE6
:1057F000ADF5077D002800F0888004464FF47F62F5
:105800008B46002111F08CFF04F6F4086FF00603BC
:1058100004F1080604F5F277A360404631463A46A3
:1058200000F0C8F9051E38DB04F6944A04F57F79C8
:1058300050464B463A46314600F094FF051E43DB86
:10584000CDF800B0524643464946304608F0B6FE11
:10585000051E2BDB43463246394648460CF0BAFF5C
:10586000051E3ADB42463146384602F0EFFD051E82
:105870003CDB484610F078FA051E20DB02A93846CA
:1058800003F078FC051E36DB02A9384602F014FE50
:10589000051E35DB204B236003E029461F48FBF73C
:1058A000D7FA28460DF5077DBDE8F08F29461C483C
:1058B000FBF7CEFA28460DF5077DBDE8F08F2946A7
:1058C0001848FBF7C5FAECE729461748FBF7C0FA7A
:1058D00028460DF5077DBDE8F08F29461348FBF7F4
:1058E000B7FA28460DF5077DBDE8F08F2946104828
:1058F000FBF7AEFAD5E729460E48FBF7A9FAD0E741
:1059000029460D48FBF7A4FACBE70C48FBF7A0FAB1
:105910006FF00405C5E700BF5085FB0A948B0108B2
:10592000408C0108488D0108E88B01089C8C010817
:10593000F08C0108A08D0108F48D0108648B01082A
:1059400011F0CCBE10B54FF47F60FFF7F9FF0446AD
:1059500038B14FF47F62002111F0E2FE6FF00603D0
:10596000A360204610BD00BFC8B108B502680D4B4A
:105970009A4211D1083009F009F867280AD005DDEC
:10598000A0F1C103032B98BF022008BD642808BF03
:10599000022008BD022008BD6FF0060008BD6FF0B0
:1059A000040070475085FB0A70B540B31A4B02687B
:1059B0009A42044629D100F1080528460E4608F00F
:1059C000E5FF67280BD011DDA0F1C103032B06D939
:1059D000002804DA284609F0D3FD002814DB3146FC
:1059E00004F6F400BDE8704000F042B96428EFD13D
:1059F000314604F6F400BDE8704000F039B90748BC
:105A0000FBF726FA6FF0040070BD0548FBF720FA9B
:105A10006FF0060070BD00BF5085FB0A648B010863
:105A20004C8E010870B518B31646144B02689A42A2
:105A3000044614D1C9B1C6B103791BB1B38B43F08D
:105A40000803B383324604F69440002501F064FA5B
:105A500004F6F400356000F0C9F8284670BD084827
:105A6000FBF7F6F96FF0060070BD6FF0040070BD33
:105A70000448FBF7EDF96FF0040070BD5085FB0A98
:105A80004C8E0108648B0108004870470300020136
:105A900018B1104B02689A4201D00020704710B52F
:105AA00000F10804204608F071FF67280DD00ADDD8
:105AB000A0F1C103032B08D910F1650F01D0073005
:105AC00003D1002010BD6428F6D12046BDE8104067
:105AD00009F04EBB5085FB0A18B1104B02689A4280
