S02B00004465706C6F792F42696E6172792F42617369632F414642522E5335302E4578706C6F726572417070F2
S21400000000600020ED01000051240000553500007E
S21400001000000000000000000000000000000000DB
S2140000200000000000000000000000005D2400004A
S2140000300000000000000000E1000000B5500000D5
S2140000403123000079230000C123000009240000AA
S2140000500D010000150100001D0100002501000033
S2140000602D010000350100003D01000045010000A3
S2140000706D530000550100005D01000065010000A1
S2140000806D010000750100007D0100008501000083
S2140000908D010000950100009D010000A5010000F3
S2140000A0F5160000B5010000BD010000C501000006
S2140000B0CD010000D50100000D330000BD33000067
S2140000C0106D030000E0FF1FDC020000DCE2FF1FF3
S2140000D08C260000FEE7C046FEE7C046FEE7C046A8
S2140000E0FEE7C046FEE7C046FEE7C04610B5FFF78F
S2140000F0FBFF10BD10B5FFF7F7FF10BD10B5FFF7FB
S214000100F3FF10BD10B5FFF7EFFF10BD10B5FFF7FA
S214000110EBFF10BD10B5FFF7E7FF10BD10B5FFF7FA
S214000120E3FF10BD10B5FFF7DFFF10BD10B5FFF7FA
S214000130DBFF10BD10B5FFF7D7FF10BD10B5FFF7FA
S214000140D3FF10BD10B5FFF7CFFF10BD10B5FFF7FA
S214000150CBFF10BD10B5FFF7C7FF10BD10B5FFF7FA
S214000160C3FF10BD10B5FFF7BFFF10BD10B5FFF7FA
S214000170BBFF10BD10B5FFF7B7FF10BD10B5FFF7FA
S214000180B3FF10BD10B5FFF7AFFF10BD10B5FFF7FA
S214000190ABFF10BD10B5FFF7A7FF10BD10B5FFF7FA
S2140001A0A3FF10BD10B5FFF79FFF10BD10B5FFF7FA
S2140001B09BFF10BD10B5FFF797FF10BD10B5FFF7FA
S2140001C093FF10BD10B5FFF78FFF10BD10B5FFF7FA
S2140001D08BFF10BD10B5FFF787FF10BD10B5FFF7FA
S2140001E083FF10BD10B5FFF77FFF10BDF0B5DE46EC
S2140001F057464E464546E0B583B072B601F084FADF
S2140002005D4A5E4B9146934200D3B3E0002290468F
S2140002102F329346283A924619001C6889685D6812
S2140002200C331A00A446002937D02E00474608365D
S214000230B4427F4100972700404601390837BD4247
S21400024040418B45BF41009E7F42064389083742A6
S21400025000D181E0260050462E4330427CD1481C17
S2140002609C4621004708FF003F192E1B009401956D
S21400027073180C684D6808311C605D60B942F7D190
S21400028001210600009C019D8E43B1006346641860
S2140002906D18B04201D0216829609945BCD838490C
S2140002A08A4251D207230139891A994316008B4690
S2140002B0063B994600270024002594460836B3449A
S2140002C0634662461B6850681900002837D0421EF5
S2140002D096089046721C4E4692469A085242324003
S2140002E04646172E44D9002A32D00426B04680C18E
S2140002F05646B61A92009B187208D200D21830C31F
S2140003009A42FCD14B4632009A439300C9184344A4
S214000310964214D01A1D0F60904210D904324F60D6
S21400032090420CD904328F60904208D90432CF60D4
S214000330904204D914330F61984200D94F610823C4
S2140003409846C444DC45BBD162B619F01FFDFEE7F3
S214000350002188461900CBE76046261D89008919CA
S2140003602E1B040020CC855120008C42F9D194E746
S2140003700023CFE71A0092E7CC000000C000000080
S214000380D4000000FFFFFFFFFFFFFFFFFFFFFFFFA0
S214000390FFFFFFFFFFFFFFFFFFFFFFFFFFFFFFFF68
S2140003A0FFFFFFFFFFFFFFFFFFFFFFFFFFFFFFFF58
S2140003B0FFFFFFFFFFFFFFFFFFFFFFFFFFFFFFFF48
S2140003C0FFFFFFFFFFFFFFFFFFFFFFFFFFFFFFFF38
S2140003D0FFFFFFFFFFFFFFFFFFFFFFFFFFFFFFFF28
S2140003E0FFFFFFFFFFFFFFFFFFFFFFFFFFFFFFFF18
S2140003F0FFFFFFFFFFFFFFFFFFFFFFFFFFFFFFFF08
S214000400FFFFFFFFFFFFFFFFFFFFFFFFFEFFFFFFF8
S21400041070B52A4B1C785D78E4B2EDB2E30715D4CC
S214000420A30718D463071BD423071ED4A30621D41E
S214000430630624D464B2002C27DBAB072AD46B07F0
S2140004402DD42B0730D4AB0633D470BD1C4807F030
S21400045009F9A307E6D51B4807F004F96307E3D5B7
S214000460194807F0FFF82307E0D5184807F0FAF810
S214000470A306DDD5164807F0F5F86306DAD5154865
S21400048064B207F0EFF8002CD7DA134807F0EAF862
S214000490AB07D4D5114807F0E5F86B07D1D510485F
S2140004A007F0E0F82B07CED50E4807F0DBF8AB06D2
S2140004B0CBD50D4807F0D6F8C7E7C04600F0074092
S2140004C06C190300AC190300EC190300241A03008E
S2140004D05C1A0300901A0300C01A0300EC1A03000B
S2140004E01C1B0300481B0300801B0300F0B5454699
S2140004F0DE4657464E46E0B59BB00391117807930B
S214000500049015000023002900D10EE10593069300
S21400051001930B939B46BB4B00269A460CE0A846DD
S214000520049B03989847019B0133019343465978EF
S2140005305D1C002900D1F9E02529F0D110236C7844
S2140005409946083B9C46043B98462300203BDBB27A
S21400055000270220012100966A1C102B0DD8564653
S2140005609B00F3589F46634615001F436C786A1C31
S2140005702300203BDBB2102BF1D921003039009E3E
S214000580092900D9CCE00023180083001B185478F2
S2140005905B00C81821003039531C09290FD81A00EF
S2140005A0F3E70F431500E1E707431500DEE74B4688
S2140005B015001F43DAE7434615001F43D6E7984663
S2140005C0814643462E2C2DD0682C3CD06C2C08D16E
S2140005D0947880236C2C00D1B6E21F437F3B9C4668
S2140005E0E044642C3AD0692C38D0202322009A4369
S2140005F0462A00D172E1582A00D16FE12300623BFF
S214000600DBB2132B00D864E1632C00D155E3210044
S214000610732C00D163E3049B03989847019B013336
S214000620019383E75C78591C2200303A092A06D8E1
S2140006300B005C78591C2200303A092AF8D91A00B7
S2140006408846682CC2D19478682C00D176E2402384
S2140006501F433F3B9C46E044642CC4D107990B687B
S214000660FA0500D41EE10722073393431A00083226
S2140006700A601A685B68029311AB190000930023A6
S2140006800B7008333B40089301233B400A93029BC0
S214000690134353D041460023029E0C97B3460D9158
S2140006A01F00A046160000E01F000A2200233000AC
S2140006B0594630F0F1FD0A2205000C0000233000F8
S2140006C0594630F0E9FD3020002180185941002BB2
S2140006D003DA30200021801A9941009BA346DB19DB
S2140006E058702E007B1C2C43DED19B460D9B444647
S2140006F09846009B3A001E00029B0C9F5E44002B0F
S21400070022DA13000222944663449B46089B002B81
S21400071000D073E20A9B002B00D19AE22D2122E042
S2140007200023904699462A004BE7019301981BB098
S2140007303CBC90469946A246AB46F0BD30334B7063
S2140007402F3B9B4610AB5E1DBB0700D4B0E00123D9
S2140007509C46089BE344002B00D0A7E20A9B002B94
S21400076000D1A5E22B21049B03989847019B0133F7
S214000770019301230A9301230293582C00D1B5E07C
S214000780782C00D185E16F2C00D151E1622C00D18C
S214000790F6E0702C00D0DAE207990E240B6811AE52
S2140007A01A1D0A601B685E440593002306931033E7
S2140007B00B93154BE340DB0700D4F2E011AB1A00B5
S2140007C0009300231370059B069A134300D141E162
S2140007D0029961220023002901D041220023002132
S2140007E08B460A204042C11780185941059D0B9B35
S2140007F00295089009915D46069CC3460C9798465C
S214000800029811E0C81B030001400800092A15D809
S2140008103026002792197B41664600237270013508
S214000820A34215D00C00029042460023210030F06F
S21400083057FD009EB446AC44002BE7D0089E099FA7
S21400084092197B416646002372700135A342E9D1B6
S214000850029B9845E6D9009B2E009C460C9FD846E6
S2140008606644AB463B0700D400E1CB4500DB22E202
S2140008705C464D46049FB146039E3021300001344D
S214000880B847AC42F9D14E46A946019B4B441C00E2
S2140008905B46AB46E31A01933178002900D183E02A
S2140008A0019CEAE01A1D0A601A68D3170293E3E671
S2140008B07B0700D482E101239C46089BE344202169
S2140008C0002B00D09BE10A9B002B00D1FDE12021EC
S2140008D049E7C94ADA40D30700D495E601233B40EE
S2140008E00A9301230293582C00D049E707990B6816
S2140008F0FA0500D4A7E00722073393431A0008320C
S2140009000A601A685B680592069311AB1A0000939A
S21400091000231370059B069A134300D1BCE002998E
S21400092061220023002901D0412200230025AB4686
S2140009300A256D42EE17AD185E41A4460599069845
S214000940089509960C975C4609E030260027B618ED
S2140009505F415D466E700E00013406433ED00E00C9
S2140009600F252E40009D0707AB46090939430009AD
S21400097032000023A344092EE7D9089E099FE6E724
S214000980079911AE0B685E441A1D1B680A60059332
S2140009900023069302330B93623CE4B2132C00D878
S2140009A007E7002E00D077E70A9B002B00D1BDE5B5
S2140009B0D94500DCBAE55C464D46049FB146039E29
S2140009C0202130000134B847AC42F9D1019B4E4695
S2140009D09C465B466444E31A0193A7E5A3460E9241
S2140009E00F93009B64469C4610235E460C9F66440D
S2140009F03B4000933B075DD40A9B002B00D1A9E047
S214000A00009B002B00D1BEE63021049D0398A8472A
S214000A10029B039859421F2399437831A847019BAC
S214000A200233019302239C46E3446F2C00D0ADE6CC
S214000A3007990B681A1D1B680A6005930023069326
S214000A4008330B93BAE61A1D1B680A600593002349
S214000A5006935AE7009A303353702F3B9B46009B11
S214000A6001269C4666443B0700D5FEE60A9B002B03
S214000A704AD03178019C00299AD0049D039F3419EE
S214000A80013E3800A8473178A31B0029F8D101930E
S214000A908AE70023029329E7009A303353702F3BEE
S214000AA09B46009B01269C4610233B4066440093D1
S214000AB03B07A1D5009B002B00D08BE0019D0C933B
S214000AC0CB4500DB07E14B4622000897B1465C4663
S214000AD02F0093461E00049B302103980137984749
S214000AE0E3195B1B9E42F6DC33005C464E469B4693
S214000AF09946009B0197089F002B00D143E60C9B6C
S214000B00002B00D03FE67FE7CB4500DBDBE05C4612
S214000B104D46049FB146039E202130000134B8475D
S214000B20AC42F9D14E46A946019B4B441C005B469D
S214000B30E41A31780029A0D10194F7E420231F435A
S214000B40D31CD47898464CE55B001F43D31CD4785E
S214000B50984646E5009B002B71D1CB4576DA434696
S214000B600C93049B019A9846039B019708964F4660
S214000B705E461500A34699461400202148460135D6
S214000B80C0472B1B9B19BB42F7DB0C9BB94698460C
S214000B90009B5C46019FB346089E002B57D0302131
S214000BA0049B039898471F23029A0398514299433F
S214000BB07831049B9847AB1C0193E4E5089B002B17
S214000BC023D10A9B002B00D0D5E500230093D945FE
S214000BD043DCD0E5049D30210398A847029B039888
S214000BE059421F2399437831A847019D0235CB45CA
S214000BF070DA01230C9366E7016008002D21049B40
S214000C0003989847019B01330193CB4560DA5D4614
S214000C10009702964F46039EA146049C3021300062
S214000C200135A047BD42F9D14C46B9465A46019B0C
S214000C30029E4B449B1A009F0193CB469BE50223E2
S214000C409C46E344CB458ADB019DA8E7019D0195C0
S214000C5099E52D230093CB453FDA43460893049B42
S214000C60019A9846039B019702964F465E461500EA
S214000C70A34699461400202148460135C0472B1B41
S214000C809B19BB42F7DB089BB9469846009B019F21
S214000C905C460195B346029E002B00D16BE5049B93
S214000CA00099039898476B1C019364E52B21A6E7EF
S214000CB02B230093CFE7CB46EEE507990B681A1D6A
S214000CC00A601978A7E4019C33E720230093C2E763
S214000CD0CB4650E50195CB4655E5019DDFE70799E4
S214000CE00B681A1D0A601D68002D01D1FFF71EFC57
S214000CF0280030F031FE012383461F4035D0297886
S214000D0000290ED0019BED1A049B03989847019B7F
S214000D100133E95C01930029F6D1002F01D1FFF7DA
S214000D2005FCCB4501DBFFF701FC5C464D46202168
S214000D300398049B01349847AC42F8D15B46E41A0A
S214000D40019B9C46A44463460193FFF7EFFB752C7A
S214000D5000D021E607990B681A1D1B680A600593E8
S214000D60002306930A330B9328E548450DDA040062
S214000D7020210398049B013498474C45F8D1019BE9
S214000D804B441C005B46E31A019329780029B9D12D
S214000D90FFF7CCFBF0B5040085B000292FD0002863
S214000DA02DD08568002D28D00B7A102B29D00E2246
S214000DB001201A401FD11E255E003540DB092B435B
S214000DC05D00EE18B600A619F768002F13D00F685E
S214000DD001A801974F684760497A0172002939D007
S214000DE0202122756254EB189B00E3181A69010053
S214000DF0DB682000984705B0F0BD0120FBE7032024
S214000E00F9E701222F33C2544368002B05D05B69F3
S214000E1000220E2100689847A5683E23022200267D
S214000E20E254023BE6541C3BE66026612675A6614A
S214000E30E661E6540C336662A662E6540C3326631B
S214000E4066630022E65401212000A8473F230020C5
S214000E50E654D0E73175C6E7F0B557464E464546E8
S214000E60DE46E0B505000E0048001E2101400120C8
S214000E700143273084460F01EC19A44460464079AC
S214000E8083B04006C00F08D122626246A0622020CE
S214000E9063625279024360464271EA19948DA40552
S214000EA0A40D9C4200D91C006123EB5CEF19984608
S214000EB04246BB6A002A0ED0012290461C4302D14D
S214000EC00F231E4045D0404603B03CBC9046994692
S214000ED0A246AB46F0BD023109014A5901A8914627
S214000EE00F223240994492465300012213439B46F8
S214000EF000F0F8FB5B4640211B01EB1828335A79BB
S214000F0048460A4351465A716A684901520A5202D3
S214000F100A4310210A435979C906C90FC90011436B
S214000F2048605B79D906C90F1B07C900DB0F0A4367
S214000F309B0121040B4388210B431360019800F0AA
S214000F40D5FB94222020A9688B5C83438B54BB6A14
S214000F50B4E72D272A00EB5D0C32DC06E40FE40034
S214000F60141908226A6220329343202213432C620B
S214000F70AE6201A8EB5500F0B5FB2A0040212C32EA
S214000F8053780B4353706A68DB06510ADB0F49023D
S214000F90DB000B435C60EB5DDA06D20FD2001B076A
S214000FA00A43DB0F06499B010B431360019800F0D0
S214000FB09DFB94222020A9688B5C83438B5482E798
S214000FC088000800F0B5C64605001E2000B54C0097
S214000FD0204082B00001002B03D10F240C4000D12A
S214000FE06CE02E183400283464796406E40F02D1CD
S214000FF0B4623262736220272C18283466793E4326
S2140010006671A488A405A40D9C4215D8281806006D
S214001010876AEB692836D719002B03D06022A85CB4
S21400102000280BD06123EE5C002E18D0012630007D
S21400103002B004BC9046F0BD1C00E7E7402CF1D897
S214001040380020438007EDD020277079B8437071B0
S21400105001201F006123A854EE5C002EE6D1523B0F
S2140010600B40984601A800F03DFB434640205B013C
S214001070EA18283251792404014351716968490AF3
S214001080490219435379DB06DB0FDB000B435F6035
S2140010905379DA061B07DB0F9B011C438823D20F0C
S2140010A0D20011431C430C60019800F01FFB9422F1
S2140010B02020A9688B5C83438B54B8E740222D27F9
S2140010C028182830437993432A004371EB5D0C328D
S2140010D0DE06F60FF600961908226A62203293435F
S2140010E0202213432E62AC6201A8EB5500F0FAFAF8
S2140010F02A0040212C3253780B4353706A68DB0673
S214001100510ADB0F4902DB000B435E60EB5D0126F4
S214001110DA06D20FD2001B070A43DB0F06499B01F3
S2140011200B431360019800F0E1FA94222020A9688E
S2140011308B5C83438B547AE788000800F0B5DE4664
S21400114057464E464546E0B589B000280FD004689D
S21400115080200826A3681D5CEDB22E420ED1012326
S2140011602B4200D073E06DB2002D00DA81E009B0AA
S2140011703CBC90469946A246AB46F0BD90229A5C8F
S2140011800127D2B211098A461E545346D108394067
S21400119089465901636802915B0A5B020B43494624
S2140011A092083A40D000090101431943086849688B
S2140011B0844601918106090F0D2900D1E4E05246CC
S2140011C04E46002057003E433101621828325279BD
S2140011D000905206C3D56246120C9005800D8346D9
S2140011E04846002800D132E1631898464246180067
S2140011F001269B6A28305B449362526AD31A9C4647
S21400120043791A07D20F7240D20001920822934304
S214001210019A1A43D306DB0F5E4010239A434346D7
S2140012203601324342711A6A6346002B00D1BFE092
S21400123083889B059B0D9B4500D2B9E080215346D1
S2140012400B43190020006346FFF706FE87E761227E
S214001250A354A1681F328B54002305A905934B6045
S21400126010330B8120686DB2FFF794FD002D00DB74
S2140012707DE78023A2688021D35C5BB2002B04DA72
S2140012805154535C5BB2002BFADB3D23E15C393BE7
S2140012900B4204D12D21615C0B4200D167E73D2152
S2140012A00C201025635CC02683436354A18F6368BB
S2140012B089055B0A04385B0289091D4301432960DE
S2140012C01825A18F1D438905890901432960022538
S2140012D02027915DAC46A94391559235515DBA469B
S2140012E0B94351552C218946A144494649781C3FAB
S2140012F0B9434F467970A18D890589090143196064
S214001300A18D034389058909014319606146935DF0
S2140013108B4393552D2322009846E35C0C32DE0661
S214001320F60FF60096190022A26228329343202276
S214001330134342466062266205A8A35400F0D2F921
S21400134040227B7813437B706268DB06510ADB0F12
S2140013504902DB000B435E604346E35CDA06D20FCD
S214001360D2001B070A43DB0FD9499B010B431360CE
S214001370059800F0BBF95146A3685A5D8A435A5552
S2140013805A5D8A435A55F2E651464E464F003E4352
S21400139031016018804628208346D844404640796C
S2140013A0400600D4DBE6632022540122009212E7B6
S2140013B028239C4661188C446346896A05AE0592CC
S2140013C040227160614601935B7993434B715B46A3
S2140013D0002B00D1DAE0898858468905890D2FF060
S2140013E06BFE8B46002900D0D0E05346002B00D081
S2140013F03EE16333E35CDB00E3185A8A43465B6AEC
S2140014009A4200D8C2E004A800F06CF922004021FD
S2140014103C3253780B43102153706268DB06520A45
S21400142052020A435146DB0FDB00134359603D234B
S214001430E35CD906C90FC9000A4388211B07DB0FE6
S2140014409B010B431360049800F050F9A9E0504646
S214001450002800D1ACE0282084466718BC446046CB
S2140014604079BF6A84468006C00F804651D16046E8
S214001470C006C00FC00003435B6802369C463601B8
S2140014803359D819029084453ED0584600283BD0A0
S2140014900437DF19664643464046BE425B41371D69
S2140014A0029EBE42404118435B460827013B9F42CE
S2140014B09B415B42034200D1FAE0634633439B07FD
S2140014C000D0F5E05B469F086346F01A904602009F
S2140014D0BF0067441868D0500433BB42FAD1FF23DC
S2140014E042469B001A4093450ED063469B5CB3541D
S2140014F0531C9B4508D96046C75C0232F754934597
S21400150002D963469B5CB35460230022E2546318FE
S2140015109F6A3B006218506A5B44C01A170002902C
S21400152050462837936200284BD0012084466046F8
S2140015307B791E07F60F4640082083436046F60078
S2140015401E43F306DB0F434010201B018643334344
S2140015507B71536A002B08D0029B002B05D0BB88FA
S2140015609B059B0D9B4500D3B4E063189B6A05AEB4
S2140015707360009B002B01D1136A01934022019BEC
S2140015806118059328314B7993434B71009B737216
S2140015904B46D90153460B43337231002068FFF7A0
S2140015A0F9FB94222020A1688B5C83438B54D6E5FC
S2140015B05846002800D04EE74B4605AE73600593AC
S2140015C0E4E70098002827D00820844623006046D9
S2140015D02C335E7806435E7026003C3673780343F1
S2140015E001208446604673707E79F306DB0F434025
S2140015F010201B01864333437B71536A002B07D0B0
S214001600029B002B04D0BB889B059B0D9B4561D29B
S214001610936A05AE7360B1E70120804640467E7946
S21400162001963607F60F4640F00003900820019E0C
S21400163086433000039E06430196F0064646C00FDA
S21400164070400001102680460198B04306004046D0
S21400165030437871506A002807D00298002804D0DA
S214001660B8888005800D834534D205AE736083E765
S214001670019B5B79DB0989D0012304A81F4300F096
S21400168031F840213F01E71928377A790A431021BB
S2140016907A7163685A0A029B52021A435B460A43EF
S2140016A07979C906C90FC90011434B607B79C0E63A
S2140016B0634602985A46C01A8046474601986244D6
S2140016C01E78FE5401339342FAD101901CE7C046BF
S2140016D088000800126A029B51462000FFF772FC41
S2140016E03DE5C04610B501F04FFF10BD10B501F046
S2140016F03FFF10BD10B5024B1868FFF71FFD10BD69
S214001700DCE2FF1F7047C04610B5FFF7FBFF10BDB9
S21400171030B580250C4A41680C4B0D4CD1500378EF
S2140017206D021B0411592B400A4D29400B431351DF
S2140017304378C0209B04000311680340064801401C
S2140017400B43136030BDC0460070044044100000D8
S21400175004100000FFFFFEFFFFFFF3FF10B51B4B5A
S2140017605A78920716D49A79920613D49A79D206A2
S21400177012D5174B186800280DD0144AD378D278A3
S2140017805B069B0FD2095B009B18124A5B009B5AB4
S214001790584300E0002010BD0F4A10680028FAD019
S2140017A01A785B789206520F9B06D0409B0FE2D0C9
S2140017B0062A03D0072A05D04009DCE714212FF0BB
S2140017C0F5FBD8E70C212FF0F1FBD4E700400640EC
S2140017D008E0FF1F401C030000E3FF1F70B5174C16
S2140017E0A3791B079B0F022B06D0032B0DD0012BD2
S2140017F005D0FFF7B3FF70BD114B1868FBE7A27961
S214001800134212D10F4B1868F5E7A3795B0613D580
S2140018101F2521790A4B2940186801312FF0C6FB95
S21400182063791D4018356843E5E7237A064A1B07A7
S21400183010685B0FD840DEE70020DCE7004006407B
S21400184000E3FF1F08E0FF1F04E0FF1F70B52F4BEB
S2140018509A79D20615D52E4B1C68002C0ED02B4D2F
S214001860AB791B079B0F022B35D0032B22D0012B05
S21400187019D0FFF773FFC008A04200D20024200052
S21400188070BD244A1468002CF8D01A785B7892064B
S214001890520F9B06D4409B0FDFD0062A29D0072A7A
S2140018A02DD06409D9E7AA79134218D1184B1868C5
S2140018B0C008E1E7AB795B0619D51F262979154BD9
S2140018C03140186801312FF071FB6B791E401836D5
S2140018D07043C008D0E70F4B1868C008CCE72B7AD7
S2140018E00D4A1B0710685B0FD840C008C4E70020ED
S2140018F0C2E7200014212FF059FB0400ADE72000BA
S2140019000C212FF053FB0400A7E7C046004006401A
S21400191008E0FF1F00E3FF1F04E0FF1F70B50C2860
S2140019200ED8434B80001B589F46424B1868000356
S214001930800F022800D177E0032803D000285FD06C
S214001940002070BDFA208000FBE73A4A3A4BD35895
S214001950DB0343D4FFF702FFF3E7FFF73FFF354A09
S214001960364BD158090F01312FF020FBE9E7344DF3
S214001970AB795B06E4D51F242979324B21401868E1
S21400198001312FF013FB6B791C4018346043D8E705
S214001990FFF75CFFD5E72A4B1A789207D0D59A79DD
S2140019A0D2073AD4284B1868CBE7224D234CFFF7D2
S2140019B015FF2959090F01312FF0F8FA2959490363
S2140019C0490F01312FF0F2FABBE7204B00201B78BD
S2140019D05BB2002BB5DA1B4B1868B2E7184DAB7933
S2140019E05B06ADD51F242979164B214018680131B6
S2140019F02FF0DCFA6B791C40183460434008A0E7EF
S214001A00124B1B785BB2002B9BDA80220D4B120226
S214001A101B68934295D1180093E71B7A0C4A1B0764
S214001A2010685B0FD8408CE70A4B186889E7C046F9
S214001A300C1C03000070044004100000441000005A
S214001A400040064000E3FF1F08E0FF1F005006406E
S214001A5004E0FF1F04E3FF1F70B51E4DAB79AE799F
S214001A602C7A1B0724079B0FF6B2640F94420AD009
S214001A70F40720D40E24174E5200357A2240213423
S214001A80A5432A4332720125124C6278AA430D40C0
S214001A902A43032562702278AA4302432270012B50
S214001AA001D0830705D501220A48837913408B426B
S214001AB0FBD1002070BD012B02D02C78A407D9D50D
S214001AC00126044D6C78B4436C70AC792642FCD188
S214001AD0D0E7C046004006400268174930B50023EC
S214001AE08A4206D9154991425B410F225B429343D5
S214001AF020330F2412493C250A78A2430479224356
S214001B000A705F220C782240847922430D4C0A70BA
S214001B1062784079AA4302431343DBB2637000281D
S214001B2003D00B785BB2002B00DB30BD0222A3791A
S214001B301A42FCD0F9E7C0469798000000127A00D7
S214001B40005006400040064010B526494B785B071B
S214001B5003D502208B791842FCD0022021494B780D
S214001B6083434B703B2308780340802003430B706D
S214001B7064388B790340082BFBD140204B79834394
S214001B804B71184920388B791842FCD11F245378A2
S214001B9023400B7148799378A043234003434B714D
S214001BA00B7912781343402213430B7140210D4AE0
S214001BB093791942FCD0402153790B43202153716D
S214001BC0084A93791942FCD03F2311780B401370D2
S214001BD0032204498B799B081340032BFAD100207B
S214001BE010BDC0460040064030B5464C2378002B5A
S214001BF000D030BD802244481203016811430160C2
S214001C0001680A43026080220168D2000A4302602B
S214001C103E4A3F49D5690D40D561156A0D401562AB
S214001C20956A0D409562D56A0D40D562556D0D409A
S214001C305565956D0D409565D56D0D40D565802231
S214001C40056812012A430260324A556C0D405564FD
S214001C50956C0D4095648022056852012A432E4DEE
S214001C6002602A680A402A608022056892012A4398
S214001C7002602A4A02251069084010615069014036
S214001C805161274A274948201160C0210903536043
S214001C9091612549D161254911612549516125493F
S214001CA0936013620B624B628B62CB620B634B6377
S214001CB08B63CB630B644B648B64CB640B654B65A7
S214001CC08B65012111540C301554213802351554FA
S214001CD001380435155413301354143813540A3885
S214001CE01354013013542D3013540F3813541C382A
S214001CF01354013013541368553003431360217096
S214001D0077E7C0464C0900203880044000A0044015
S214001D10FFF8FFFF00B0044000C0044000D00440BD
S214001D20003005404B08B00800011000800D0E0082
S214001D306001300004300540F0B5C646414B00B5A2
S214001D400400984262D80023312245263E4D904634
S214001D50AB55AB540A3AAB540132AB542D32AB54AC
S214001D600F3AAB541C3AAB540132AB54374B984243
S214001D7019D8632862D8364F364E092831D80A213A
S214001D8020002FF013F98300C0184000241A0F20FB
S214001D902A220440395D2C4B9954315D0132995406
S214001DA004BC9046F0BDFA2189002FF0FFF84146AA
S214001DB0274F82B2BB5CAB55264EB35C6B545001CA
S214001DC0801A80008018C0006421201A2FF0EEF8D8
S214001DD00F2327221840395C1B4B9954315C013283
S214001DE09954642120002FF0E1F883B26420584310
S214001DF00A21201A2FF0DAF80F2355221840395CF2
S214001E00114B9954315C0F3A9954B8E745220F218B
S214001E100D4B46209954143A073999540A3A043916
S214001E2099540021013299540B312D329954473A76
S214001E301A541C38195420315A54B1E70022044F62
S214001E40044EBCE70F27000000300540E703000003
S214001E50501C0300601C0300F0B5DE4657464E4695
S214001E604546E0B5040083B0002854DB904B98420A
S214001E7039DC83B231229846452600238D4D9146A3
S214001E80AB55AB540A3AAB540132AB542D32AB547B
S214001E900F3AAB541C3AAB540132AB54864B9842C3
S214001EA000DDB9E04346632B00D9F9E0092B00D9E1
S214001EB0FAE0824F824E0A2140462FF077F88300E0
S214001EC0C0184000241A0F202A220440395D794B9E
S214001ED09954315D0132995403B03CBC9046994602
S214001EE0A246AB46F0BD45220F21724B46209954C0
S214001EF0143A073999540A3A0439995400210132A0
S214001F0099540B312D329954473A1A541C381954A7
S214001F1020315A54E0E76B4B9842E4DB002327203D
S214001F20452131222A272B26624D83466B54AB541B
S214001F302B5401302B5482462D302B5481460F38BB
S214001F402B548046E0B2EB55AB5501902000633031
S214001F5029DB2200093200DB93E0042259466A544A
S214001F6052460A21AB54494220002FF0A9F84A46AF
S214001F70524B0A219A461B5CAB544246504B99463C
S214001F801B5C2000AB542FF09BF88300C018019B0D
S214001F904000C01A0F23184053461B5CEB554B46B7
S214001FA01B5CAB5598E7042068546421AB54494247
S214001FB020002FF085F85A46404B64211B5CAB543A
S214001FC052463F4B9B461B5C2000AB542FF078F8E4
S214001FD003B2642058430A21001B2FF071F80F2328
S214001FE04A4618409A46354B0A211B5CAB545B4662
S214001FF042461B5C2000AB542FF062F88300C018EA
S214002000019B4000C01A534618402C4B1B5CEB55F6
S2140020105B461B5CAB555FE7FA21404689002EF015
S214002020C5FF4946254F82B2BB5CAB55244EB35C18
S2140020306B545001801A80008018C0006421201A5A
S2140020402EF0B4FF0F23272225001840395C194BC9
S2140020509954315C01329954642140462EF0A6FF13
S21400206083B2642058430A21281A2EF09FFF0F23BC
S21400207055221840395C0F4B9954315C0F3A9954ED
S21400208019E7042249466A544246AB54019B0B4A60
S2140020905B42DBB2D25CEA55094AD35CAB551BE720
S2140020A00022064F064EC4E74546044F044ED3E7CB
S2140020B00F27000000300540E7030000501C030017
S2140020C0601C030019FCFFFF312110B51A4B5A5C47
S2140020D0012829D00124A2435A54022812D12821CB
S2140020E001245A5C22435A5446210124124B5A5C5E
S2140020F0A2435A54042810D12B2101205A5C0243D3
S2140021005A5410BD28215A5CA2435A540328EBD1D6
S214002110462101205A5C02435A542B2201200649CC
S2140021208B5C83438B54ECE7012422435A540939D1
S2140021305A5C82435A54D7E70030054004214522B2
S214002140084B3120995400221A540A381954013089
S2140021501A542D3019540F381A541C381954273174
S2140021605A5470470030054088220C20044952011A
S2140021708B5883438B500122024B1A707047C0461F
S214002180007004404D090020BFF34F8F034B044AF4
S214002190DA60BFF34F8FC046FDE7C04600ED00E0B3
S2140021A00400FA05244810B50378002B42D1234AD0
S2140021B001331168FF330B4302211360204AFF24CA
S2140021C013680B431360C0231E4A9B00D158A143DB
S2140021D07F3C2143D150D1581B4C0C408021090232
S2140021E02143D150D158194C2140C024D150D15848
S2140021F024060902090A2143D1507F22144B19787C
S214002200114019703F211C788C431C705C78144078
S2140022105C705C788C435C709C7814409C709C78F6
S2140022208C439C70DC782240DA70DA788A43DA7065
S2140022300123037010BDC0464E09002040800440B4
S2140022403C80044000E100E0FF00FFFFFFFF00FFCE
S21400225000100240014B8000C150704708E3FF1F8A
S21400226030B51F250B4B3F241B5C0B4A1D4001233A
S214002270AB407F251360094B1A5C15401D541A5C51
S214002280A2430C40802122431A541A5C0A431A5473
S21400229030BDC046781C030000E100E0001002409C
S2140022A070B502292FD004291DD100251849022A0D
S2140022B01ED98024174A00018518174A640482181C
S2140022C0166834431460802464002B518223049CD7
S2140022D05B00EC50059B1B021B0A13600F4B9C46D1
S2140022E06044016070BD90250D496D03022AE0D858
S2140022F00C498C5C0C49E404895C89050C43044950
S2140023002C432143D5E790250849AD03CFE7C046C7
S214002310800000A000800040088100400C81004042
S214002320800012A0741C0300701C0300800024A010
S214002330842380210E4A5B00D05810B5D458490437
S2140023402143D1500B4B1B68002B04D0420003D511
S2140023503D204042984710BDC20003D53F20404272
S2140023609847F8E73D228000C01790439847F2E769
S2140023700080004008E3FF1F8C2380210E4A5B008C
S214002380D05810B5D45849042143D1500B4B5B6844
S214002390002B04D0420003D53D204042984710BD94
S2140023A0C20003D53F2040429847F8E73D22800010
S2140023B0C01790439847F2E70080004008E3FF1FED
S2140023C0942380210E4A5B00D05810B5D458490497
S2140023D02143D1500B4B9B68002B04D0420003D501
S2140023E03D204042984710BDC20003D53F204042E2
S2140023F09847F8E73D228000C01790439847F2E7D9
S2140024000080004008E3FF1F9C2380210E4A5B00EB
S214002410D05810B5D45849042143D1500B4BDB6833
S214002420002B04D0420003D53D204042984710BD03
S214002430C20003D53F2040429847F8E73D2280007F
S214002440C01790439847F2E70080004008E3FF1F5C
S21400245010B500BEFFF798FEC046FDE710B5FFF7C3
S214002460F7FFC0461F4A10B51368002B30DB242444
S2140024701D4B19681D4B19621D490978C9B21955BB
S2140024801C490978C9B299621B490968D9621B4977
S214002490098889B2198612685A63194A12689A63BB
S2140024A0184A1268DA6302681A6042685A608268DC
S2140024B09A60C268DA6002691A6142695A61826982
S2140024C09A61C269DA6100BEFFF75EFEC046FDE7AC
S2140024D0802311681B060B431360836902338361F4
S2140024E010BDC0462CED00E024ED00E018E3FF1F11
S2140024F028ED00E029ED00E038ED00E02AED00E0F0
S21400250030ED00E03CED00E010B5074C3422002131
S21400251020002FF011FA200000F0FAF8431E0343C3
S214002520DB17184010BDC04658E3FF1F70B5141ED9
S21400253015D0002B13D080255A18ED00AA420BD8D0
S214002540FF22920294468002091A61441A00200073
S2140025502FF0E9F9002070BD04204042FBE705207B
S2140025604042F8E7F0B5C64600B52B4C0D00A54432
S214002570904604001F00002A4BD0002F49D080262A
S2140025807B18F600B34241D800F0FEFFFF239B0203
S2140025909C46A402644264443200210006A82FF040
S2140025A0C2F906AB58193A0041462FF0BCF91B4F4A
S2140025B01B4B32002100380000F068FB051E1CDBB8
S2140025C0012332002100380000F0FCF8051E14DB61
S2140025D0330006AA2100380000F09EFA051E0CDB28
S2140025E005AB029304AB0193012332000093210054
S2140025F006AB380000F0CCF9050000F0B9FF280063
S2140026008323DB009D4404BC9046F0BD04256D4248
S214002610F5E705256D42F2E7E8FBFFFF58E3FF1FED
S2140026206B66656BF0B5284C0D00A54417000400DA
S214002630002A46D080265318F600B3423ED800F053
S214002640A3FFFF239B029C46A4026442644432001C
S214002650210006A82FF067F906AB58193A000021AA
S2140026602FF06AF9194F1A4B32002100380000F09B
S2140026700DFB051E1CDB012332002100380000F094
S214002680A1F8051E14DB330006AA2100380000F06E
S21400269043FA051E0CDB05AB029304AB0193012342
S2140026A032000093210006AB380000F071F90500F7
S2140026B000F05EFF2800074B9D44F0BD04256D42E8
S2140026C0F8E705256D42F5E7E4FBFFFF58E3FF1F3B
S2140026D06B66656B1C04000080B584B000AF786044
S2140026E07B6818002FF0FEF80300FB60FB68002BE9
S2140026F005D1054B1B68054A1000984700E0C04608
S214002700BD4604B080BDC0468CE3FF1F0C3000F011
S21400271070B5041E3FD0214A214BD3581B011B0F16
S2140027200F2B19D01F4A5B009A5A9202626002224F
S2140027300023A260802223606361A3612361E369B2
S214002740D200E260002B0AD01B68022B07D10023C0
S21400275000202362636270BD8022D202E6E7002377
S214002760114D124E2B60124B0C2212493000E561BF
S2140027706E60AB602FF0D7F80F4B01361E60AE6868
S214002780142230000D492FF0CEF80D4B01361E6096
S21400279002232B60DBE705204042DCE700700440A4
S2140027A04C1000007C1C0300D4E3FF1FE0E3FF1F77
S2140027B094E3FF1FB01C030090E3FF1F9C1C030064
S2140027C08CE3FF1F70B556464D464446DE4670B550
S2140027D08AB08046894616000193002800D1CCE0D6
S2140027E02022002102A82FF0A7F843461B680424E5
S2140027F09A464B4652469B1A02934346DB6804258C
S214002800039343465B689B464346584699682EF0BA
S214002810CDFB042305934B4633430490069407955B
S214002820089409959A0700D0A1E0D14500D2A1E00E
S2140028304A46DA449219524500D99BE020220021EC
S21400284002A82FF079F84246126893464A4659463F
S214002850521A924602924246D268039242469168C3
S21400286050682EF0A3FB0423059353465A42434276
S214002870134006940795089409955C4200900490CE
S214002880544500D1C41A002E66D05B464A469D1AAF
S2140028902D19B5425ED853461A028023120A5B04ED
S2140028A01343374A1360019B1A02AB081B040192BC
S2140028B01343FF221343334A13607023324A1370C4
S2140028C04346DB69002B3CD09146304A93462200B3
S2140028D05446924632E05B462B481B6898474B4668
S2140028E020221B78DBB21A423BD1DA063CD4DB0747
S2140028F034D4009B761B9C466419E244002E2BD0F1
S21400290053461D1BB54200D93500079928002EF006
S2140029104DFB80232202120A5B041343184A00046C
S2140029201360019B4A461843FF231843154B186053
S214002930702313704346DB69002B02D01B68022B02
S214002940C9D0592040420AB03CBC90469946A2469F
S214002950AB4670BD35009EE70020F4E755204042A8
S214002960F1E753204042EEE754204042EBE7512087
S2140029704042E8E752204042E5E705204042E2E7D1
S21400298004000240080002400000024090E3FF1FDF
S21400299070B5444656464D46DE4670B58AB01E00B3
S2140029A012AB1B788146884614000193002E00D196
S2140029B0A3E0002800D1A0E02022002102A82EF0EB
S2140029C0BBFF4B461B689A46434652469D1A4B46EB
S2140029D0DB68029503934B465B689B464B4658461E
S2140029E099682EF0E3FA0423042205930423069242
S2140029F00793089209934346234304909B0700D00D
S214002A0075E0D04500D275E0434652461B195A443D
S214002A1093426FD8002C5FD080232A02120A9B04B0
S214002A201343374A1360019B364A1B061A43364B3C
S214002A3092461A603268354B1A607023344A137017
S214002A404B46DB69002B34D01B68022B31D1314B4F
S214002A5090469B465B462E481B6898474346202276
S214002A601B78DBB21A423CD1103A1A423CD1DB0743
S214002A7034D4099B0D3A19009143E41A7618ED18E0
S214002A80002C29D080232A02120A9B0413431C4AD6
S214002A90136052461C4B1A6032681C4B1A60702337
S214002AA0424613704B46DB69002B02D01B68022B94
S214002AB0D0D059204042139B002B00D01D60149BA1
S214002AC0002B02D01A00002313600AB03CBC9046CC
S214002AD09946A246AB4670BD0020F6E75520404218
S214002AE0E9E753204042E6E754204042E3E751201E
S214002AF04042EAE752204042E7E705204042E4E74A
S214002B0004000240FFFFFF00080002400C000240E5
S214002B100000024090E3FF1F70B54D4656464446FF
S214002B20DE4670B5914688B006000C001D00002AEF
S214002B3000D19EE0002800D19BE0202200216846BC
S214002B402EF0FAFE3368B1689A46E31A0093984668
S214002B50F3680193736818009B462EF027FA042347
S214002B6004220393042304920593069207932300FA
S214002B702B4302909B0700D075E0544500D275E0C9
S214002B80534664195B449C4200D96FE0002D4DD03B
S214002B904C46394B04CC9A46384B9B46384B1A6009
S214002BA0039B042B35D0082B0DD14B465A68354B6A
S214002BB04C461A6043461A02E023120ADB0413430B
S214002BC0314A08341360534670221A70F369002B9A
S214002BD02ED01B68022B2BD15B4627481B689847D4
S214002BE053461B78DBB29A0636D43269D90637D4F8
S214002BF0DB072ED4002A15D09047039B9844ED1A85
S214002C0014D0A1464C461E4B04CC1A60039B042BE2
S214002C10C9D143461A02C023120ADB0413431A4AD8
S214002C201360D0E7039B9844ED1AEAD1002405E030
S214002C30592432696442002A00D090473000FFF7DA
S214002C404BFD200008B03CBC90469946A246AB46D9
S214002C5070BD55246442EEE7532432696442EAE7C5
S214002C6054246442E7E751246442EAE7522464426B
S214002C70E7E705246442E4E70000024090E3FF1F14
S214002C80080002400C0002400400024070B55646A0
S214002C904D464446DE4670B58AB005000E009046A6
S214002CA00193002800D19CE02022002102A82EF0EB
S214002CB043FE2B68A968F41A9A46EB6802940393BD
S214002CC099466B6818009B462EF070F90423042280
S214002CD005930423069207930892099343463343C9
S214002CE004909B0700D073E0564500D273E053462D
S214002CF046445B449E426ED801235B429C46E044B9
S214002D00A044494640462EF0D7F900294ED1A045AA
S214002D1052D390232202120A1B051343324A136031
S214002D20324B019A9A4259D17023314E3370EB6977
S214002D30002B2AD01B68022B27D12E4B9B46202324
S214002D409A465B462A481B68984752463378DBB259
S214002D501A4236D110212A69194236D1DB072DD402
S214002D60002A00D090474C44444525D890232202A0
S214002D70120A1B0513431C4A136070233370EB6959
S214002D80002B02D01B68022BDBD059242A69644230
S214002D90002A00D090472800FFF79EFC20000AB0CB
S214002DA03CBC90469946A246AB4670BD4B460130A9
S214002DB05843431E9846AAE70024ECE7552464428D
S214002DC0E6E753242A696442E2E754246442DFE7D4
S214002DD051246442E2E752246442DFE75724644207
S214002DE0DCE705246442D9E7040002406B66656BA5
S214002DF00000024090E3FF1FF0B55746DE464E4601
S214002E004546C74BE0B59A461B78002B00D080E1BC
S214002E108020C44A80001468204310608020146814
S214002E20C00020431060802014680001204310601A
S214002E3080201468400120431060802014688001C0
S214002E4020431060B8480268002A00D1C6E09168A6
S214002E50082788468D005168FF378C461168654400
S214002E602F804E698C46444601218B46A1408E43F6
S214002E7061464E6113615361AC4E2A6832402A6047
S214002E804268002A00D1A9E0916889468D00516801
S214002E904C468C46116865442F80884649698C46A6
S214002EA05946A140894661464C46A1438C46414658
S214002EB064464C61136153612A6832402A60826816
S214002EC0002A00D18AE0916889468D0051684C46F8
S214002ED08C46116865442F80884649698C46594659
S214002EE0A140894661464C46A1438C46414664460D
S214002EF04C61136153612A6832402A60C268002A16
S214002F006CD0916889468D0051684C468C46116895
S214002F1065442F80884649698C465946A1408946B3
S214002F2061464C46A1438C46414664464C6113615B
S214002F3053612A6832402A600269002A4ED091689E
S214002F4089468D0051684C468C46116865442F8032
S214002F50884649698C465946A140894661464C4692
S214002F60A1438C46414664464C61136153612A680E
S214002F7032402A604269002A30D0916889468D0026
S214002F8051684C468C46116865442F8088464969CE
S214002F908C465946A140894661464C46A1438C461C
S214002FA0414664464C61136153612A6832402A6088
S214002FB08269002A12D05068916880468C46890043
S214002FC041440F8064465F46A74015686869B84369
S214002FD06861136153610B681E400E60544B1A689B
S214002FE0002A79D0516882208C4696684000B4004A
S214002FF0644420801468D268A26001221500B5409F
S21400300067693D4365615C68002C65D06168A668A9
S2140030108C46B500654428802568E468AC601400DA
S214003020B4406F693C436C619C68002C54D0616866
S214003030A6688C46B500654428802568E468AC60C0
S2140030401400B4406F693C436C61DC68002C43D0CC
S2140030506168A6688C46B500654428802568E468E3
S214003060AC601400B4406F693C436C611C69002C72
S21400307032D06168A6688C46B5006544288025680D
S214003080E468AC601400B4406F693C436C615C69F2
S214003090002C21D06168A6688C46B500654428805F
S2140030A02568E468AC601400B4406F693C436C610A
S2140030B09C69002C10D06168A6688C46B5006544F3
S2140030C028802568E468AC601400B4406F693C430F
S2140030D06C61DC69002C33D1C720164A8000135877
S2140030E0154C1C4080231B04234380241350135884
S2140030F024061B021B0A234313508023DB051360A0
S2140031000E4B14601B681A68DB6853600123524636
S21400311013703CBC90469946A246AB46F0BDC046EE
S2140031204F090020388004403CE0FF1FFFFFF0FFFF
S21400313038E2FF1F00E100E0FFFF00FF0CE0FF1F8A
S2140031406168A6688C46B500654428802568E468F2
S214003150AC601400B4406F693C436C611C6A002C80
S214003160BAD06168A6688C46B240B500654428802F
S2140031702068E46884604469224342615A6A002AEF
S214003180AAD0516882208C4696684000B4006444F9
S21400319020801468D268A26001221500B5406769D5
S2140031A03D4365619C6A002C96D06168A6688C4693
S2140031B0B500654428802568E468AC601400B44017
S2140031C06F693C436C61DC6A002C00D184E761685F
S2140031D0A6688C46B500654428802568E468AC601F
S2140031E01400B4406F693C436C611C6B002C00D12A
S2140031F072E76168A6688C46B50065442880256835
S214003200E468AC601400B4406F693C436C615C6B6E
S214003210002C00D160E76168A6688C46B50065445E
S21400322028802568E4689B6BAC601400B4406F6926
S2140032303C436C61002B00D14EE75D689C68AC4651
S214003240A240A100614408801968DB688B604B6966
S2140032501A434A61836842619A00436801619B1879
S2140032601A6803491140A02212030A431A607047E5
S214003270FFFFF0FF836809029A004368E0209B186E
S214003280C0001A68014002480240114319607047A6
S214003290FFF8FFFF0368C2685A6070470368C26899
S2140032A09A6070470368C268002901D19A60704727
S2140032B05A60FCE7036882681B690120D340184007
S2140032C07047C0460123026880688340002903D106
S2140032D0516999435161704751690B435361FAE74D
S2140032E0032183689A0043689B181A680A431A6089
S2140032F07047C0460321836842689B00D218136853
S2140033008B4301390B4313607047C046A0232949FD
S214003310294AC858136810B5002B31D05C688C4217
S21400332033D05368002B2BD022495C688C4230D0B7
S2140033309368002B24D01F495C688C422DD0D3683C
S214003340002B1DD01B495C688C422AD01369002BC9
S21400335016D018495C688C4213D05369002B0FD0E6
S21400336014495C688C4220D09369002B08D0D96839
S214003370A022104881501A69002A01D05869904747
S21400338010BDD9680142E8D0F2E7D9680142C8D03A
S214003390EEE7D9680142CBD0EAE7D9680142CED041
S2140033A0E6E7D9680142D1D0E2E7D9680142DBD02E
S2140033B0DEE7C046009004403CE0FF1F70B5A02446
S2140033C0614A105900283DD060490B68002B00D197
S2140033D0B6E05C68944200D17FE04A68002A00D1DB
S2140033E06EE0594C5568A54200D180E08A68002AF4
S2140033F066D0554C5568A54200D17DE0CA68002AC3
S2140034005ED0514C5568A54200D182E00A69002A78
S21400341056D04D4C5568A54200D17FE04A69002A37
S2140034204ED0494C5568A54200D180E08A69002AF2
S21400343046D0D468A020444D2C501469002C3FD0B0
S2140034405069A047A023424AD258002A00D170BD36
S2140034503E490B68002BFAD03D485C68844238D061
S2140034604B68002BF3D03A485C6884423BD08B68AC
S214003470002BECD036485C68844242D0CB68002BE8
S214003480E5D033485C6884423FD00B69002BDED021
S2140034902F485C68844246D04B69002BD7D02C4816
S2140034A05C68844248D08B69002BD0D0D868A022B4
S2140034B0274988501A69002AC9D058699047C6E734
S2140034C0A02223488258002AC1D021485C68844242
S2140034D0C6D1D8680242C3D0E9E7DC68044200D10E
S2140034E07BE71A00A6E7D8681042C0D0DFE7D468AA
S2140034F0044200D17AE79DE7D468044200D17DE714
S21400350098E7D8681042B9D0D1E7D8681042BCD046
S214003510CDE7D468044200D178E78BE7D46804424C
S21400352000D17BE786E7D8681042B5D0BFE7D468FD
S214003530044200D17AE77DE7D8681042B3D0B6E7F8
S214003540034B1B5983E7C04600B004403CE0FF1F16
S21400355000C0044004207146084202D1EFF3088000
S21400356001E0EFF30980014A1047000065240000DF
S214003570044A1368013B1360002B02DC002313602F
S21400358062B6704720E4FF1F72B6024A1368013322
S2140035901360704720E4FF1FC022002312018242FE
S2140035A05B4158426323184063387047802210B549
S2140035B0D20000210220FFF735F800280DDB80221C
S2140035C00021D2000320FFF72DF8002805DB80221B
S2140035D00021D2000420FFF725F810BDF0B5C6463E
S2140035E01500C0220B00411800B5120191422CD8DC
S2140035F0174A904225D9174A8418A40A800503342E
S214003600800D002B1FD08022D20090460EE043464D
S2140036101F1A01003B002A002000FEF7A3FF002827
S2140036200CDB00200B4BED19F3180134C618464589
S214003630EDD801002A002000FEF794FF04BC904657
S214003640F0BD0224DDE70020F8E763204042F5E7FE
S214003650FF03000000FCFFFFF0B5C6461500C022C1
S2140036600B00411800B5120191422CD8174A90421F
S21400367025D9174A8418A40A80050334800D002B28
S2140036801FD08022D20090460EE043461F1A01004B
S2140036903B002A002000FEF749FF00280CDB002034
S2140036A00B4BED19F3180134C6184645EDD801004A
S2140036B02A002000FEF73AFF04BC9046F0BD022424
S2140036C0DDE70020F8E763204042F5E7FF0300004F
S2140036D000FCFFFF0021054B10B59A681960002A10
S2140036E002D09960D968904710BDC04624E4FF1FF9
S2140036F010B5002800DB10BD0021044B9A68196045
S214003700002AF8D09960D9689047F4E724E4FF1FB0
S214003710F0B54E46DE4657464546E0B585B006004F
S214003720009101920293002900D142E2002B00D1C1
S2140037303FE2FFF729FFBC4C2568002D00D0C5E00E
S21400374002232360FFF714FF6368B34234D10E9B55
S2140037500199A3600F9BE360002900D1BAE08A229A
S214003760B24B520099508E218022490058581203BD
S21400377002435A508023AD4A00995B00D1508C21F9
S214003780029B8E241B021B0A4900535080216400B2
S2140037901059C90508431051842040001350862351
S2140037A05B00D0580143D150280005B03CBC904681
S2140037B09946A246AB46F0BD9D4B1868FF2E00D139
S2140037C04EE10121FFF77EFD9A4B012118689A46CB
S2140037D0FFF778FD984B002118689B46FFF772FDAF
S2140037E0964B012118689946FFF76CFD944B002113
S2140037F01B6818000393FFF765FD924B01211B68B9
S21400380018000393FFF75EFD8F4B00211B6818001E
S2140038100393FFF757FD8D4B01211B681800039398
S214003820FFF750FD8A4B00211B6818000393FFF733
S21400383049FD884B012118689846FFF743FD864FDF
S21400384000213868FFF73EFD794B1B68180003938C
S214003850FFF720FD53461868FFF71CFD4B46186817
S214003860FFF718FD774B1B6818000393FFF712FD50
S214003870764B1B6818000393FFF70CFD4346186849
S214003880FFF708FD5B461868FFF72AFD6C4B1B68C0
S21400389018000393FFF724FD6B4B1B681800039377
S2140038A0FFF71EFD6A4B1B6818000393FFF718FD11
S2140038B03868FFF715FD012E00D18FE0022E55D097
S2140038C0002E13D0256037256D426DE7FFF750FEBA
S2140038D0256869E78A228E21544B520010349C508A
S2140038E049005A585D4802405A5043E75B4600215B
S2140038F01868FFF7BFFC4E4B00211868FFF7BAFCAC
S214003900534600211868FFF7B5FC4B46002118689F
S214003910FFF7B0FC4A4B00211868FFF7ABFC494B99
S21400392000211868FFF7A6FC484B00211868FFF72F
S214003930A1FC434600211868FFF79CFC424B00217F
S2140039401868FFF797FC424B00211868FFF792FCB7
S21400395038680021FFF78EFC66600E9B0199A36015
S2140039600F9BE360002900D0F9E6B3E75B4602212F
S2140039701868FFF77FFC2E4B02211868FFF77AFCC9
S214003980534602211868FFF775FC4B46012118685C
S214003990FFF770FC2B4B02211868FFF76BFC2B4BD4
S2140039A001211868FFF766FC434601211868FFF7F7
S2140039B061FC234B18680121FFF75CFC224B0121B8
S2140039C01868FFF757FC224B18680121FFF752FCD6
S2140039D038680121FFF74EFC6660BEE75B460221B1
S2140039E01868FFF747FC124B02211868FFF742FCE5
S2140039F0534602211868FFF73DFC4B460221186823
S214003A00FFF738FC0E4B01211868FFF733FC0D4B0F
S214003A1001211868FFF72EFC0C4B01211868FFF7F0
S214003A2029FC4346C6E7C04624E4FF1F008000404A
S214003A3038E0FF1F10E0FF1F34E0FF1F14E0FF1FF9
S214003A4024E0FF1F18E0FF1F28E0FF1F1CE0FF1FF9
S214003A502CE0FF1F20E0FF1F30E0FF1FFFFFF7FFF7
S214003A600021FFF72FFC544B1B6818000393FFF749
S214003A7041FC524B00219A461868FFF723FC534638
S214003A801868FFF737FC4E4B00219B461868FFF777
S214003A9019FC5B461868FFF72DFC4A4B00211B6893
S214003AA018000393FFF70EFC464B1B6818000393A1
S214003AB0FFF720FC444B00211B6818000393FFF718
S214003AC001FC414B1B6818000393FFF713FC3F4BA8
S214003AD000211B6818000393FFF7F4FB3B4B1B68A1
S214003AE018000393FFF706FC394B00211B681800EB
S214003AF00393FFF7E7FB364B1B6818000393FFF7AB
S214003B00F9FB344B00211B6818000393FFF7DAFB20
S214003B10304B1B6818000393FFF7ECFB2E4B00217D
S214003B2098461868FFF7CEFB43461868FFF7E2FB97
S214003B302A4B002199461868FFF7C4FB4B461868C5
S214003B40FFF7D8FB264F00213868FFF7BBFB386825
S214003B50FFF7D0FB5B4601211868FFF78BFB164B7F
S214003B6001211868FFF786FB534601211868FFF706
S214003B7081FB144B01211868FFF77CFB124B0121D7
S214003B801868FFF777FB114B01211868FFF772FBE7
S214003B90104B01211868FFF76DFB4B460121186892
S214003BA0FFF768FB0A4B01211868FFF763FB4346E3
S214003BB00AE705256D42F7E538E0FF1F10E0FF1F16
S214003BC034E0FF1F14E0FF1F24E0FF1F18E0FF1F74
S214003BD028E0FF1F1CE0FF1F2CE0FF1F20E0FF1F58
S214003BE030E0FF1F014B18687047C04624E4FF1FF3
S214003BF070B5FFF7C9FC144C2568002D21D023684A
S214003C00022B0BD18E22114B5200995810480140BE
S214003C109950862149005A5802405A50FFF7A8FC8E
S214003C200022A3682260002B09D00220A260E1686F
S214003C30404298470500831C01D0280070BD00252F
S214003C40FBE7FFF795FCF8E724E4FF1F0080004041
S214003C50FFFFFFBFF0B5DE4657464E464546E0B589
S214003C60654C83B06368002B00D1B5E0FFF78CFC91
S214003C7023680093002B00D0B8E002232360FFF7F0
S214003C8077FC5E4B012118689A46FFF71BFB5C4BDE
S214003C90012118689946FFF715FB5A4B0021186852
S214003CA09B46FFF70FFB584B012118689846FFF715
S214003CB009FB564F00213868FFF704FB544B0121DF
S214003CC01B6818000193FFF7FDFA524B00211B6892
S214003CD018000193FFF7F6FA4F4B01211B681800F6
S214003CE00193FFF7EFFA4D4B00211B681800019374
S214003CF0FFF7E8FA4A4E01213068FFF7E3FA494D2C
S214003D0000212868FFF7DEFA53461868FFF7C2FA64
S214003D104B461868FFF7BEFA43461868FFF7BAFA2C
S214003D203B4B1B6818000193FFF7B4FA3A4B1B682D
S214003D3018000193FFF7AEFA3068FFF7ABFA5B4660
S214003D401868FFF7CDFA3868FFF7CAFA314B1B68D8
S214003D5018000193FFF7C4FA304B1B681800019354
S214003D60FFF7BEFA2868FFF7BBFA5B460021186823
S214003D70FFF780FA534600211868FFF77BFA4B4698
S214003D8000211868FFF776FA434600211868FFF707
S214003D9071FA38680021FFF76DFA1D4B002118688C
S214003DA0FFF768FA1C4B00211868FFF763FA3068C3
S214003DB00021FFF75FFA174B00211868FFF75AFA41
S214003DC0164B00211868FFF755FA28680021FFF700
S214003DD051FA009B6360236000230020236003B039
S214003DE03CBC90469946A246AB46F0BDFFF7C0FBEA
S214003DF020680028F3D1EFE724E4FF1F38E0FF1F18
S214003E0010E0FF1F34E0FF1F14E0FF1F24E0FF1F39
S214003E1018E0FF1F28E0FF1F1CE0FF1F2CE0FF1F1D
S214003E2020E0FF1F30E0FF1FF0B5DE4657464E4647
S214003E304546E0B5664C83B06368FF2B00D1B6E01C
S214003E40FFF7A2FB23680093002B00D0B9E0022303
S214003E502360FFF78DFB5F4B00219A461868FFF73B
S214003E6031FA53461868FFF745FA5B4B002199462E
S214003E701868FFF727FA4B461868FFF73BFA574BC8
S214003E8000219B461868FFF71DFA5B461868FFF787
S214003E9031FA534B002198461868FFF713FA434649
S214003EA01868FFF727FA4F4F00213868FFF70AFA1D
S214003EB03868FFF71FFA4C4B00211B681800019367
S214003EC0FFF700FA484B1B6818000193FFF712FA39
S214003ED0464B00211B6818000193FFF7F3F9434B8C
S214003EE01B6818000193FFF705FA414B00211B6879
S214003EF018000193FFF7E6F93D4B1B681800019385
S214003F00FFF7F8F93B4B00211B6818000193FFF7F9
S214003F10D9F9384B1B6818000193FFF7EBF9364EBA
S214003F2000213068FFF7CEF93068FFF7E3F9334D2C
S214003F3000212868FFF7C6F92868FFF7DBF95B461B
S214003F4001211868FFF796F9534601211868FFF714
S214003F5091F94B4601211868FFF78CF94346012179
S214003F601868FFF787F938680121FFF783F91E4BB9
S214003F7001211868FFF77EF91D4B01211868FFF72D
S214003F8079F930680121FFF775F9184B0121186897
S214003F90FFF770F9174B01211868FFF76BF92868CF
S214003FA00121FFF767F9FF236360009B236000236E
S214003FB00020236003B03CBC90469946A246AB4620
S214003FC0F0BDFFF7D5FA20680028F3D1EFE7C0462A
S214003FD024E4FF1F38E0FF1F10E0FF1F34E0FF1F40
S214003FE014E0FF1F24E0FF1F18E0FF1F28E0FF1F5C
S214003FF01CE0FF1F2CE0FF1F20E0FF1F30E0FF1F2C
S21400400070B50600FFF7C0FA1D4D2C68002C32D1A3
S21400401002232B60FFF7ACFA012E1CD0022E16D11D
S214004020184E01213068FFF725F93068FFF736F99A
S2140040303068FFF72FF902213068FFF71BF9306868
S2140040400221FFF717F900232B60200070BD2C60BB
S21400405005246442F9E70C4E01213068FFF70AF99F
S2140040603068FFF71BF93068FFF714F93068022153
S214004070FFF700F9E7E7FFF77BFA2C68E5E7C046AD
S21400408024E4FF1F18E0FF1F14E0FF1F10B50128EF
S2140040900AD0022805D1074B1868FFF7DBF8002086
S2140040A010BD37204042FBE7034B1868FFF7D2F8F5
S2140040B00020F5E728E0FF1F24E0FF1F10B50128C9
S2140040C008D0022804D1064B1868FFF7F3F810BD95
S2140040D00120FCE7034B1868FFF7ECF8F7E7C0464B
S2140040E028E0FF1F24E0FF1FF0B5DE4657464E4689
S2140040F04546E0B583B0FFF747FA404C2368009387
S214004100002B00D074E033232360FFF731FA3C4BDA
S21400411018689846FFF7BEF83A4E3068FFF7BAF8C8
S214004120394D2868FFF7B6F8384C2068FFF7B2F824
S214004130374B18689A46FFF7ADF8364B186899461D
S214004140FFF7A8F8344B9B461868FFF7C9F8334FBB
S2140041503868FFF7C5F8324B1B6818000193FFF765
S214004160BFF8304B1B6818000193FFF7B9F82E4BC9
S2140041701B6818000193FFF7B3F85B460121186827
S214004180FFF778F8534601211868FFF773F84B4697
S21400419001211868FFF76EF8434601211868FFF7FB
S2140041A069F838680121FFF765F830680121FFF7E4
S2140041B061F828680121FFF75DF820680121FFF704
S2140041C059F8174B01211868FFF754F8154B0121D1
S2140041D01868FFF74FF8144B01211868FFF74AF8E4
S2140041E0009803B03CBC90469946A246AB46F0BD4C
S2140041F0FFF7BEF923680093F2E7C04624E4FF1FEA
S21400420014E0FF1F18E0FF1F1CE0FF1F20E0FF1F49
S21400421038E0FF1F10E0FF1F34E0FF1F24E0FF1F01
S21400422028E0FF1F2CE0FF1F30E0FF1FF0B5DE4642
S21400423057464E464546E0B583B0FFF7A5F9DB4C3A
S2140042402368332B09D0FFF793F9206803B03CBCF2
S21400425090469946A246AB46F0BDFFF789F96368DB
S2140042600093FF2B00D182E0D14B012118689946BC
S214004270FFF728F8CF4B012118689846FFF722F879
S214004280CD4B002118689A46FFF71CF8CB4F01214A
S2140042903868FFF717F8CA4E00213068FFF712F8A3
S2140042A0C84B012118689B46FFF70CF8C64B002147
S2140042B01B6818000193FFF705F8C44B01211B6823
S2140042C018000193FEF7FEFFC14B00211B68180083
S2140042D00193FEF7F7FFBF4D01212868FEF7F2FFB6
S2140042E0BD4B00211B6818000193FEF7EBFF4B4601
S2140042F01868FEF7CFFF43461868FEF7CBFF38680E
S214004300FEF7C8FF5B461868FEF7C4FFAF4B1B6896
S21400431018000193FEF7BEFF2868FEF7BBFF534662
S2140043201868FEF7DDFF3068FEF7DAFFA64B1B685D
S21400433018000193FEF7D4FFA54B1B6818000193E5
S214004340FEF7CEFFA44B1B6818000193FEF7C8FFCC
S214004350009B012B00D10EE1022B00D1E8E0002BE0
S21400436000D1B0E037204042002323606EE7904B38
S21400437000219A461868FEF7A5FF53461868FEF710
S214004380B9FF8C4B002199461868FEF79BFF4B46F9
S2140043901868FEF7AFFF884B00219B461868FEF7AB
S2140043A091FF5B461868FEF7A5FF844B00219846F0
S2140043B01868FEF787FF43461868FEF79BFF804F96
S2140043C000213868FEF77EFF3868FEF793FF7D4EC3
S2140043D000213068FEF776FF3068FEF78BFF7A4BD9
S2140043E000211B6818000193FEF76CFF764B1B68D4
S2140043F018000193FEF77EFF744B00211B6818001F
S2140044000193FEF75FFF714B1B6818000193FEF7E0
S21400441071FF6F4B00211B6818000193FEF752FFD7
S2140044206B4B1B6818000193FEF764FF694D002173
S2140044302868FEF747FF2868FEF75CFF664B0021FA
S2140044401B6818000193FEF73DFF634B1B681800BE
S2140044500193FEF74FFF5B4601211868FEF70AFF3F
S214004460534601211868FEF705FF4B4601211868E0
S214004470FEF700FF434601211868FEF7FBFE38688A
S2140044800121FEF7F7FE30680121FEF7F3FE4F4BE1
S21400449001211868FEF7EEFE28680121FEF7EAFE05
S2140044A0494B01211868FEF7E5FE494B01211868C3
S2140044B0FEF7E0FE484B01211868FEF7DBFE009B86
S2140044C00020636050E7534600211868FEF7D2FECE
S2140044D04B4600211868FEF7CDFE434600211868BB
S2140044E0FEF7C8FE38680021FEF7C4FE30680021DB
S2140044F0FEF7C0FE5B4600211868FEF7BBFE334B96
S21400450000211868FEF7B6FE28680021FEF7B2FE06
S2140045102D4B00211868FEF7ADFE2D4B00211868C4
S214004520FEF7A8FE2C4B00211868FEF7A3FEC6E790
S214004530534602211868FEF79DFE4B460221186876
S214004540FEF798FE434602211868FEF793FE386889
S2140045500121FEF78FFE5B4602211868FEF78AFEF1
S2140045601A4B01211868FEF785FE28680121FEF720
S21400457081FE306891E7534602211868FEF77AFEFE
S2140045804B4602211868FEF775FE4346022118685E
S214004590FEF770FE38680221FEF76CFE30680121D7
S2140045A0FEF768FE5B4618686EE7C04624E4FF1F09
S2140045B038E0FF1F10E0FF1F34E0FF1F14E0FF1F6E
S2140045C024E0FF1F18E0FF1F28E0FF1F1CE0FF1F6E
S2140045D02CE0FF1F20E0FF1F30E0FF1F70B5060035
S2140045E00C001500FEF7D0FF194B1B68332B2AD1A1
S2140045F0FEF7BEFF012C16D0002C0ED0022C02D0E7
S2140046000520404270BD134B29001868FEF74AFE8D
S2140046100A2015F02DFC0020F4E70F4B290018683F
S214004620FEF740FEF4E7012E07D0022EE8D10B4B32
S21400463029001868FEF736FEEAE7094B29001868D5
S214004640FEF730FEE4E7FEF793FF35204042D9E759
S21400465024E4FF1F38E0FF1F10E0FF1F18E0FF1FD5
S21400466014E0FF1F70B505000C001600FEF78CFF67
S214004670154B1B68332B21D1FEF77AFF032C0FD086
S214004680042C02D00520404270BD012D0FD0022D13
S214004690F8D10E4B1868FEF70DFE30600020F3E7E9
S2140046A00B4B1868FEF706FE30600020ECE7094B5F
S2140046B01868FEF7FFFD30600020E5E7FEF758FFBC
S2140046C035204042E0E7C04624E4FF1F28E0FF1FF5
S2140046D034E0FF1F24E0FF1F014B58697047C046B7
S2140046E024E4FF1FF0B5DE4657464E464546E0B585
S2140046F08E4B83B00400984200D90FE10220FDF7EC
S2140047000DF98B4B01255B6907009A460023009341
S214004710984608339B46013B99466D4243465E1CCD
S214004720710038002CF042FC231A844200D2031B8E
S214004730AB4209D2002B00D1CAE01D000123009332
S21400474000238246C1469B46B10038002CF02EFC62
S214004750231A844200D2031BAB4208D2002B00D19E
S214004760C0E01D0001238246C1469B460093F1002F
S21400477038002CF01BFC231A844200D2031BAB42E9
S21400478009D2002B00D1B1E01D00012300930133B4
S2140047908246C1469B46310138002CF007FC231A9E
S2140047A0844200D2031BAB4209D2002B00D1A1E009
S2140047B01D000123009302338246C1469B467101C9
S2140047C038002CF0F3FB231A844200D2031BAB42C2
S2140047D009D2002B00D191E01D0001230093033382
S2140047E08246C1469B46B10138002CF0DFFB231AF7
S2140047F0844200D2031BAB4209D2002B00D181E0D9
S2140048001D000123009304338246C1469B46F101F6
S21400481038002CF0CBFB231A844200D2031BAB4299
S21400482009D2002B00D171E01D000123009305334F
S2140048308246C1469B46310238002CF0B7FB231A4D
S214004840844200D2031BAB4208D2002B62D01D006C
S2140048500123009306338246C1469B467102380008
S2140048602CF0A4FB231A0193844201D2031B01936C
S214004870019BAB420CD2082E13D0002B51D008233C
S2140048809B46073B0093C1468246B046019D45E7DE
S21400489050460195C846082EF5D1009B5E46002B73
S2140048A001D0234B586143461B011E43214BF6B2F1
S2140048B05E700A2120002CF079FB019B98422DD3D4
S2140048C0002003B03CBC90469946A246AB46F0BDDD
S2140048D0174B58610023424616013343154ADBB294
S2140048E05370EDE7124B58610123F4E7104B586103
S2140048F00223F0E70E4B58610323ECE70C4B58619C
S2140049000423E8E70A4B58610523E4E7084B58619F
S2140049100623E0E7064B58610723DCE736204042D3
S214004920CFE7034B58610823D5E7C046001BB70006
S21400493024E4FF1F00600740F0B557464E46454644
S214004940DE46E0B5E84D85B02B7806000F00002B5C
S21400495007D0002005B03CBC90469946A246AB4620
S214004960F0BDE24C23606361A360E360FEF744FAA7
S21400497063689E4200D19AE0FEF706FE2368002B8D
S21400498000D0F2E002232360FEF7F2FDD84B9A46F1
S214004990FF2E00D1EDE018680121FEF793FCD54B01
S2140049A0012118689946FEF78DFCD34B0021186844
S2140049B09B46FEF787FCD14B01211B68180003932A
S2140049C0FEF780FCCE4B00211B6818000393FEF711
S2140049D079FCCC4B01211B6818000393FEF772FC90
S2140049E0C94B00211B6818000393FEF76BFCC74BEE
S2140049F001211B6818000393FEF764FCC44B0021DA
S214004A001B6818000393FEF75DFCC24B01211B6870
S214004A1018000393FEF756FCBF4B00211868984613
S214004A20FEF750FC53461868FEF734FC4B461868F1
S214004A30FEF730FCB14B1B6818000393FEF72AFC08
S214004A40B04B1B6818000393FEF724FCAF4B1B68A3
S214004A5018000393FEF71EFCAE4B1B68180003936A
S214004A60FEF718FC5B461868FEF73AFCA44B1B687A
S214004A7018000393FEF734FCA34B1B68180003933F
S214004A80FEF72EFCA24B1B6818000393FEF728FCCB
S214004A9043461868FEF724FC012E00D1AAE1022E38
S214004AA000D182E1002E00D146E1002323600026DB
S214004AB0FDF778FB11210020FDF7D2FB1021012025
S214004AC0FDF7CEFB954C96490020FDF7C3FB9549B4
S214004AD00120FDF7BFFB019600940023012201216F
S214004AE00020FDF7DDFB2300019600960022012141
S214004AF00120FDF7D5FB80238B4ADB0311688B482A
S214004B000B43C221136089004358894A894C1A40D6
S214004B1080231B041343435010210223E670A67023
S214004B20667066712671E27804260A43E270E278BF
S214004B3038001A43E2700822A3780B43A370E37888
S214004B401343E370E3783343E370FFF7CBFD202293
S214004B50A3783343A370A37813434022A370E3786B
S214004B601343E37001232B70F3E6FEF701FD236881
S214004B709DE700211868FEF7A5FB53461868FEF768
S214004B80B9FB5C4B00211B6818000393FEF79AFBE9
S214004B90584B1B6818000393FEF7ACFB564B0021DE
S214004BA09B461868FEF78EFB5B461868FEF7A2FB6E
S214004BB0524B00211B6818000393FEF783FB4F4BF4
S214004BC01B6818000393FEF795FB4D4B00211B68EE
S214004BD018000393FEF776FB494B1B6818000393F7
S214004BE0FEF788FB474B00211B6818000393FEF76F
S214004BF069FB444B1B6818000393FEF77BFB424B94
S214004C0000211B6818000393FEF75CFB3E4B1B68F5
S214004C1018000393FEF76EFB3C4B00211B68180040
S214004C200393FEF74FFB394B1B6818000393FEF700
S214004C3061FB374B00211B6818000393FEF742FB0D
S214004C40334B1B6818000393FEF754FB314B0021CF
S214004C5099461868FEF736FB4B461868FEF74AFB7F
S214004C602D4B002198461868FEF72CFB4346186823
S214004C70FEF740FB5B4601211868FEF7FBFA534639
S214004C8001211868FEF7F6FA1A4B01211868FEF79C
S214004C90F1FA1A4B01211868FEF7ECFA184B0121BD
S214004CA01868FEF7E7FA174B01211868FEF7E2FAD4
S214004CB0164B01211868FEF7DDFA4B4618680121ED
S214004CC0FEF7D8FA104B01211868FEF7D3FA104BFE
S214004CD001211868FEF7CEFA434601211868FEF750
S214004CE0C9FA6660E1E6C0465009002024E4FF1FCA
S214004CF038E0FF1F10E0FF1F34E0FF1F14E0FF1F27
S214004D0024E0FF1F18E0FF1F28E0FF1F1CE0FF1F26
S214004D102CE0FF1F20E0FF1F30E0FF1F066007406B
S214004D20F1360000D53600003480044000E100E093
S214004D30FFFF00FF006007405B4600211868FEF793
S214004D4099FA534600211868FEF794FA4B4600215C
S214004D501868FEF78FFA3A4B00211868FEF78AFAB1
S214004D60384B00211868FEF785FA374B0021186883
S214004D70FEF780FA354B00211868FEF77BFA344BB5
S214004D8000211868FEF776FA324B00211868FEF705
S214004D9071FA314B00211868FEF76CFA4346002181
S214004DA01868FEF767FA66607FE65B4602211868B9
S214004DB0FEF760FA534602211868FEF75BFA4B4688
S214004DC002211868FEF756FA1D4B01211868FEF7F7
S214004DD051FA1D4B02211868FEF74CFA1B4B0121B5
S214004DE01868FEF747FA1A4B01211868FEF742FAD0
S214004DF0144B63E75B4602211868FEF73BFA5346FE
S214004E0002211868FEF736FA4B4602211868FEF7AC
S214004E1031FA0B4B02211868FEF72CFA094B0121D8
S214004E201868FEF727FA084B01211868FEF722FAE1
S214004E30064B01211868FEF71DFA054B3EE7C046F3
S214004E4014E0FF1F24E0FF1F18E0FF1F1CE0FF1FF9
S214004E5020E0FF1F28E0FF1F2CE0FF1F70B5234D4A
S214004E602B78002B40D18023214A1B041168214C4B
S214004E700B4302211360204B1A688A431A601A6893
S214004E8001390A431A600220FCF748FDA042FAD115
S214004E908C2100220424184B49005A505858174EAB
S214004EA0204358508820053C40001C500A34FF34EC
S214004EB010381A511E505E58FF3806435E50195976
S214004EC0014319510E4B0F491A600F4B1A600F4BD6
S214004ED05A609A6007321A6080220B6AD2051B025B
S214004EE01B0A13430B62287070BDC0465109002090
S214004EF03C80044000366E0100700340FF356E01B2
S214004F0040E4FF1F00ED00E048E4FF1F10E000E073
S214004F10F0B5E0234F46D64646468246C0B589469B
S214004F209846E4270E4DFEF72FFB43460D4CEE58F1
S214004F30EB59E41AFEF71CFB002CF4D05346F6435C
S214004F40640A1E60A3001C192301E4182302E41857
S214004F504B46A40A1C601CBC90469946A246F0BD6F
S214004F6000700340FF356E01014B1860002070474B
S214004F7040E4FF1FF8B5041E2AD01A4B1A4F1960DA
S214004F803B68834222D0194B194918682CF00EF85A
S214004F9001000600802040042CF008F80500FEF70B
S214004FA0F3FA0123134A1360AC4205D91368640868
S214004FB05B001360A542F9D3664312680E4B013EB0
S214004FC01A600E4B5E603C60FEF7D2FA0020F8BD19
S214004FD00A4B5860084B1860024B1860024B18606A
S214004FE0F4E7C04648E4FF1F44E4FF1F00E0FF1F4D
S214004FF040420F004CE4FF1F3CE4FF1F10E000E0BF
S214005000F8B500231A4D041E2B6029D0194B1960E1
S2140050102B68984222D0184B184918682BF0C6FF08
S21400502001000600802040042BF0C0FF0700FEF7BA
S214005030ABFA0123124A1360BC4205D91368640810
S2140050405B001360A742F9D3664312680D4B013E1E
S2140050501A600D4B5E602C60FEF78AFA0020F8BDE1
S214005060094B5860074B1860024B28601860F5E73C
S21400507044E4FF1F48E4FF1F00E0FF1F40420F000C
S2140050804CE4FF1F3CE4FF1F10E000E00023054A4D
S21400509000205360044A1360044A1360044A1360F5
S2140050A07047C04610E000E03CE4FF1F48E4FF1FE6
S2140050B044E4FF1F084A10B51368013B1360002B39
S2140050C009D1064B1B681360054B1B68002B02D0EA
S2140050D0044A1068984710BD3CE4FF1F4CE4FF1FCD
S2140050E040E4FF1F48E4FF1F00220A4B10B5041ED1
S2140050F01A7008DB084B1B68002B03D0074A2000F9
S2140051001168984710BD064B1B68002BF2D09847D5
S214005110F0E7C0465309002058E4FF1F5CE4FF1F79
S21400512050E4FF1FF0B5DE4657464E464546E0B50E
S214005130664B85B01C789B460020002C06D005B038
S2140051403CBC90469946A246AB46F0BD80236049DB
S2140051509B000A685F481A430A605F4904254A684C
S21400516002401A434A608A68024013438B60FDF788
S21400517019F803210220FDF773F858490220FDF7BD
S21400518069F8574B01220093012100230220019465
S214005190FDF786F853485449544A43581A4080232A
S2140051A0DB04134343508023514ADB001168002080
S2140051B00B430C2113604F4AD3788B43D370FCF714
S2140051C0ADFBE123DB029846002302930393E12321
S2140051D05B0281469A4625E0414648462BF0E6FEAD
S2140051E02900414386B2441C48462BF0DFFE2100CE
S2140051F0414B6943C71848462BF0D8FEE1235B02B3
S214005200181A874202D907000136B6B2574502D8A7
S214005210BA4602950396E1235B029C460135E044BC
S214005220212D05D0C145D7D2290002240126DBE76F
S214005230D8231B019A4545D8029B043B032B04D870
S21400524002212C4AD37A0B43D3721F20294B029A91
S214005250997A013A81430A43D2B29A72997A814383
S2140052600398020A0A431321D2B21A70C2B25A70C5
S2140052709A78FF208A439A701A780D318A4308215B
S2140052801A701A78D2B21A709A790A4304219A715F
S2140052909A790A4320219A71DA780A438021DA70D3
S2140052A0DA7A0A430C21DA72DA780A43DA70C32211
S2140052B0124992008B5883438B5001235A46002094
S2140052C013703CE74720404239E7C04652090020A9
S2140052D038800440FFF8FFFF00900440E9500000CB
S2140052E007A006400070044004100000FFFFFFF314
S2140052F03480044000A00640003EFEFF00E100E0CF
S21400530030B5154C2478002C23D0144C2578002D6D
S2140053101AD100281AD0002918D001352570104C53
S214005320090222600F4A090A136090220E4B5200AF
S2140053309850083299509621802249005858D20534
S214005340024300205A5030BD0220FCE705204042B0
S214005350F9E707204042F6E75209002053090020EB
S21400536058E4FF1F5CE4FF1F0080004010B51A4B96
S2140053701C79E4B2A20629D422070AD508211A7994
S2140053800A431A71154B1B68002B02D04820404276
S214005390984763070BD504210F4A13790B43137103
S2140053A00E4B1B68002B02D0492040429847A307AB
S2140053B00BD50221084A13790B431371074B1B6860
S2140053C0002B02D04A204042984710BDD879044BA3
S2140053D0C0B21B689847F8E700A0064050E4FF1FDD
S2140053E054E4FF1F10B50400FEF7CEF8084B1C600F
S2140053F0002C06D08022074B52011A60FEF7B8F840
S21400540010BD80218023034A4901D150F6E7C046EB
S21400541054E4FF1F00E100E0014B18607047C046EF
S21400542050E4FF1F10B50F4C0F4A20000F4B1049D9
S2140054301430D150FCF750FB0E4B0F4A00211A6077
S2140054400020E21DFCF780FB002200210220FCF772
S21400545003FB20000C30FCF75BF9084B084A1A6087
S21400546010BDC046BC1C0300007004404410000081
S2140054700000031000E3FF1F00127A0000E0FF1F89
S214005480006CDC020023034A1360034A1360034ADD
S2140054901360704768E4FF1F64E4FF1F60E4FF1FAB
S2140054A030B5002817D0002A15D0002B13D00729B6
S2140054B011D8CD00691A094C89000D59002D0AD162
S2140054C00851002061180B61039B4A608A60CA601D
S2140054D04D618B6130BD05204042FBE76CE4FF1F49
S2140054E0F0B5C646070000B5884607282AD8C50086
S2140054F01A4E2C1AA4003359002B26D0FEF744F877
S21400550033195A6919698A4222D244469868890032
S21400551010C05C6898606118884211D0ED1BAD0021
S214005520531C75196B61012B04D1BB400C4A1168E2
S2140055300B431360FEF71CF8002004BC9046F0BD39
S2140055409C60EBE705204042F7E707204042F4E77F
S214005550FEF70EF8E7204042EFE7C0466CE4FF1F78
S21400556068E4FF1FF8B5CE464746364E364D3368DC
S2140055702C6880B59C4309D10024344A1368013353
S214005580136020000CBC90469946F8BDFDF7FCFF62
S2140055900F2322009A43131E06D000230F2124094E
S2140055A0220004338A43FAD1294A175DFF18294B93
S2140055B0FC009846E21B92004244D168506808C935
S2140055C099461369D1609B00C31899422FD0E31BFC
S2140055D09B0043445A69013A5A61002A1FD0FDF7DE
S2140055E0C7FF4346E51BAD0048465B599847041E77
S2140055F01FDBE728C5D1012549463800FFF770FFB5
S214005600BD40FF2332682B40ED4313433360FFF762
S214005610A9FF3268EDB2154004003560B1E70132EB
S214005620BA40D2432968D3B20B402B60D7E7D0608C
S214005630CDE745440300A9693A00074802F012F88E
S2140056409FE7C04664E4FF1F68E4FF1F60E4FF1F97
S2140056502C1D03006CE4FF1FDC1C0300D04BF0B5D0
S214005660DE469B460F2357464E4645469A46E0B5CD
S214005670CC4CCD4ECD4D87B033682F689F4306D1B6
S21400568023680133236033682F689F43F8D0FDF703
S2140056907BFF3B005246934306D000233F093A0067
S2140056A0514604338A43F9D1C14AD25D90469844A4
S2140056B04346DF00FB1A9B005B44D968586804C960
S2140056C091461A69D96092008218914239D04346B1
S2140056D0FB1A9B005B445A69013A5A61002A07D1BB
S2140056E0434601329A40D2432968D3B20B402B601E
S2140056F0FDF73EFF4346FF1A5B46BF004846DB59B0
S214005700984700281FDBE728B6D149464046FFF7F2
S214005710E7FE434601229A40D3B29946FF233168FA
S21400572013400B43336033682F689F4313D12368BD
S214005730013323604B46DB433168DBB20B403360FA
S2140057409AE7D860C3E75F440300B96942469948C0
S21400575001F088FF90E7FDF717FF3B0052469343A2
S21400576006D000233F093A00514604338A43F9D154
S2140057708F4AD25D904698444346DF00FB1A9B0052
S2140057805B44D968586804C900921A69D9609200C7
S2140057908218914239D04346FB1A9B005B445A69F3
S2140057A0013A5A61002A07D1434601329A40D24351
S2140057B02968D3B20B402B60FDF7DAFE4346FF1A8A
S2140057C05B46BF000098DB59984700281FDBE72898
S2140057D0B0D100994046FFF783FE434601229A4027
S2140057E0D3B20093FF23316813400B433360336812
S2140057F02F689F4313D1236801332360009B3268D0
S214005800DB43DBB21340336094E7D860C3E75F4402
S2140058100300B9694246674801F024FF8AE7FDF7AE
S214005820B3FE3B005246934306D000233F093A009E
S214005830514604338A43F9D15D4AD75DFF18FB0011
S2140058409846DB1B9B005B44D968586804C90192E4
S2140058501A69D96092008218914241D04346DB1BF8
S2140058609B005B445A69013A5A61002A06D101231B
S214005870BB40DB432A68DBB213402B60FDF778FEA3
S2140058804346DB1B9B0098465B46424601989B5866
S2140058909847031E1CDBE728B0D101993800FFF7B4
S2140058A01FFE0122BA40D3B20293FF233168134091
S2140058B00B43336033682F689F4313D1236801334B
