S02B00004465706C6F792F42696E6172792F42617369632F414642522E5335302E4578706C6F726572417070F2
S21400000000600020ED010000D13A0000D54B000052
S21400001000000000000000000000000000000000DB
S214000020000000000000000000000000DD3A0000B4
S2140000300000000000000000E1000000356700003E
S214000040B1390000F9390000413A0000893A000051
S2140000500D010000150100001D0100002501000033
S2140000602D010000350100003D01000045010000A3
S21400007069670000550100005D0100006501000091
S2140000806D010000750100007D0100008501000083
S2140000908D010000950100009D010000A5010000F3
S2140000A0A92B0000B5010000BD010000C50100003D
S2140000B0CD010000D50100008D4900003D4A00003A
S2140000C0C881030000E0FF1FA003000000E4FF1F3C
S2140000D08C2A0000FEE7C046FEE7C046FEE7C046A4
S2140000E0FEE7C046FEE7C046FEE7C04610B5FFF78F
S2140000F0FBFF10BD10B5FFF7F7FF10BD10B5FFF7FB
S214000100F3FF10BD10B5FFF7EFFF10BD10B5FFF7FA
S214000110EBFF10BD10B5FFF7E7FF10BD10B5FFF7FA
S214000120E3FF10BD10B5FFF7DFFF10BD10B5FFF7FA
S214000130DBFF10BD10B5FFF7D7FF10BD10B5FFF7FA
S214000140D3FF10BD10B5FFF7CFFF10BD10B5FFF7FA
S214000150CBFF10BD10B5FFF7C7FF10BD10B5FFF7FA
S214000160C3FF10BD10B5FFF7BFFF10BD10B5FFF7FA
S214000170BBFF10BD10B5FFF7B7FF10BD10B5FFF7FA
S214000180B3FF10BD10B5FFF7AFFF10BD10B5FFF7FA
S214000190ABFF10BD10B5FFF7A7FF10BD10B5FFF7FA
S2140001A0A3FF10BD10B5FFF79FFF10BD10B5FFF7FA
S2140001B09BFF10BD10B5FFF797FF10BD10B5FFF7FA
S2140001C093FF10BD10B5FFF78FFF10BD10B5FFF7FA
S2140001D08BFF10BD10B5FFF787FF10BD10B5FFF7FA
S2140001E083FF10BD10B5FFF77FFF10BDF0B5DE46EC
S2140001F057464E464546E0B583B072B602F094FDCB
S2140002005D4A5E4B9146934200D3B3E0002290468F
S2140002102F329346283A924619001C6889685D6812
S2140002200C331A00A446002937D02E00474608365D
S214000230B4427F4100972700404601390837BD4247
S21400024040418B45BF41009E7F42064389083742A6
S21400025000D181E0260050462E4330427CD1481C17
S2140002609C4621004708FF003F192E1B009401956D
S21400027073180C684D6808311C605D60B942F7D190
S21400028001210600009C019D8E43B1006346641860
S2140002906D18B04201D0216829609945BCD838490C
S2140002A08A4251D207230139891A994316008B4690
S2140002B0063B994600270024002594460836B3449A
S2140002C0634662461B6850681900002837D0421EF5
S2140002D096089046721C4E4692469A085242324003
S2140002E04646172E44D9002A32D00426B04680C18E
S2140002F05646B61A92009B187208D200D21830C31F
S2140003009A42FCD14B4632009A439300C9184344A4
S214000310964214D01A1D0F60904210D904324F60D6
S21400032090420CD904328F60904208D90432CF60D4
S214000330904204D914330F61984200D94F610823C4
S2140003409846C444DC45BBD162B61AF00BFFFEE704
S214000350002188461900CBE76046261D89008919CA
S2140003602E1B040020CC855120008C42F9D194E746
S2140003700023CFE71A0092E7CC000000C000000080
S214000380D4000000FFFFFFFFFFFFFFFFFFFFFFFFA0
S214000390FFFFFFFFFFFFFFFFFFFFFFFFFFFFFFFF68
S2140003A0FFFFFFFFFFFFFFFFFFFFFFFFFFFFFFFF58
S2140003B0FFFFFFFFFFFFFFFFFFFFFFFFFFFFFFFF48
S2140003C0FFFFFFFFFFFFFFFFFFFFFFFFFFFFFFFF38
S2140003D0FFFFFFFFFFFFFFFFFFFFFFFFFFFFFFFF28
S2140003E0FFFFFFFFFFFFFFFFFFFFFFFFFFFFFFFF18
S2140003F0FFFFFFFFFFFFFFFFFFFFFFFFFFFFFFFF08
S214000400FFFFFFFFFFFFFFFFFFFFFFFFFEFFFFFFF8
S21400041070B52A4B1C785D78E4B2EDB2E30715D4CC
S214000420A30718D463071BD423071ED4A30621D41E
S214000430630624D464B2002C27DBAB072AD46B07F0
S2140004402DD42B0730D4AB0633D470BD1C4808F02F
S214000450F5FAA307E6D51B4808F0F0FA6307E3D5DC
S214000460194808F0EBFA2307E0D5184808F0E6FA32
S214000470A306DDD5164808F0E1FA6306DAD5154876
S21400048064B208F0DBFA002CD7DA134808F0D6FA84
S214000490AB07D4D5114808F0D1FA6B07D1D5104870
S2140004A008F0CCFA2B07CED50E4808F0C7FAAB06F4
S2140004B0CBD50D4808F0C2FAC7E7C04600F00740A3
S2140004C0442D0300842D0300C42D0300FC2D0300DF
S2140004D0342E0300682E0300982E0300C42E03005B
S2140004E0F42E0300202F0300582F0300F0B54546D6
S2140004F0DE4657464E46E0B59BB00391117807930B
S214000500049015000023002900D10EE10593069300
S21400051001930B939B46BB4B00269A460CE0A846DD
S214000520049B03989847019B0133019343465978EF
S2140005305D1C002900D1F9E02529F0D110236C7844
S2140005409946083B9C46043B98462300203BDBB27A
S21400055000270220012100966A1C102B0DD8564653
S2140005609B00F3589F46634615001F436C786A1C31
S2140005702300203BDBB2102BF1D921003039009E3E
S214000580092900D9CCE00023180083001B185478F2
S2140005905B00C81821003039531C09290FD81A00EF
S2140005A0F3E70F431500E1E707431500DEE74B4688
S2140005B015001F43DAE7434615001F43D6E7984663
S2140005C0814643462E2C2DD0682C3CD06C2C08D16E
S2140005D0947880236C2C00D1B6E21F437F3B9C4668
S2140005E0E044642C3AD0692C38D0202322009A4369
S2140005F0462A00D172E1582A00D16FE12300623BFF
S214000600DBB2132B00D864E1632C00D155E3210044
S214000610732C00D163E3049B03989847019B013336
S214000620019383E75C78591C2200303A092A06D8E1
S2140006300B005C78591C2200303A092AF8D91A00B7
S2140006408846682CC2D19478682C00D176E2402384
S2140006501F433F3B9C46E044642CC4D107990B687B
S214000660FA0500D41EE10722073393431A00083226
S2140006700A601A685B68029311AB190000930023A6
S2140006800B7008333B40089301233B400A93029BC0
S214000690134353D041460023029E0C97B3460D9158
S2140006A01F00A046160000E01F000A2200233000AC
S2140006B0594631F0DDFF0A2205000C000023300009
S2140006C0594631F0D5FF3020002180185941002BC3
S2140006D003DA30200021801A9941009BA346DB19DB
S2140006E058702E007B1C2C43DED19B460D9B444647
S2140006F09846009B3A001E00029B0C9F5E44002B0F
S21400070022DA13000222944663449B46089B002B81
S21400071000D073E20A9B002B00D19AE22D2122E042
S2140007200023904699462A004BE7019301981BB098
S2140007303CBC90469946A246AB46F0BD30334B7063
S2140007402F3B9B4610AB5E1DBB0700D4B0E00123D9
S2140007509C46089BE344002B00D0A7E20A9B002B94
S21400076000D1A5E22B21049B03989847019B0133F7
S214000770019301230A9301230293582C00D1B5E07C
S214000780782C00D185E16F2C00D151E1622C00D18C
S214000790F6E0702C00D0DAE207990E240B6811AE52
S2140007A01A1D0A601B685E440593002306931033E7
S2140007B00B93154BE340DB0700D4F2E011AB1A00B5
S2140007C0009300231370059B069A134300D141E162
S2140007D0029961220023002901D041220023002132
S2140007E08B460A204042C11780185941059D0B9B35
S2140007F00295089009915D46069CC3460C9798465C
S214000800029811E0A02F030001400800092A15D81D
S2140008103026002792197B41664600237270013508
S214000820A34215D00C00029042460023210031F06E
S21400083043FF009EB446AC44002BE7D0089E099FB9
S21400084092197B416646002372700135A342E9D1B6
S214000850029B9845E6D9009B2E009C460C9FD846E6
S2140008606644AB463B0700D400E1CB4500DB22E202
S2140008705C464D46049FB146039E3021300001344D
S214000880B847AC42F9D14E46A946019B4B441C00E2
S2140008905B46AB46E31A01933178002900D183E02A
S2140008A0019CEAE01A1D0A601A68D3170293E3E671
S2140008B07B0700D482E101239C46089BE344202169
S2140008C0002B00D09BE10A9B002B00D1FDE12021EC
S2140008D049E7C94ADA40D30700D495E601233B40EE
S2140008E00A9301230293582C00D049E707990B6816
S2140008F0FA0500D4A7E00722073393431A0008320C
S2140009000A601A685B680592069311AB1A0000939A
S21400091000231370059B069A134300D1BCE002998E
S21400092061220023002901D0412200230025AB4686
S2140009300A256D42EE17AD185E41A4460599069845
S214000940089509960C975C4609E030260027B618ED
S2140009505F415D466E700E00013406433ED00E00C9
S2140009600F252E40009D0707AB46090939430009AD
S21400097032000023A344092EE7D9089E099FE6E724
S214000980079911AE0B685E441A1D1B680A60059332
S2140009900023069302330B93623CE4B2132C00D878
S2140009A007E7002E00D077E70A9B002B00D1BDE5B5
S2140009B0D94500DCBAE55C464D46049FB146039E29
S2140009C0202130000134B847AC42F9D1019B4E4695
S2140009D09C465B466444E31A0193A7E5A3460E9241
S2140009E00F93009B64469C4610235E460C9F66440D
S2140009F03B4000933B075DD40A9B002B00D1A9E047
S214000A00009B002B00D1BEE63021049D0398A8472A
S214000A10029B039859421F2399437831A847019BAC
S214000A200233019302239C46E3446F2C00D0ADE6CC
S214000A3007990B681A1D1B680A6005930023069326
S214000A4008330B93BAE61A1D1B680A600593002349
S214000A5006935AE7009A303353702F3B9B46009B11
S214000A6001269C4666443B0700D5FEE60A9B002B03
S214000A704AD03178019C00299AD0049D039F3419EE
S214000A80013E3800A8473178A31B0029F8D101930E
S214000A908AE70023029329E7009A303353702F3BEE
S214000AA09B46009B01269C4610233B4066440093D1
S214000AB03B07A1D5009B002B00D08BE0019D0C933B
S214000AC0CB4500DB07E14B4622000897B1465C4663
S214000AD02F0093461E00049B302103980137984749
S214000AE0E3195B1B9E42F6DC33005C464E469B4693
S214000AF09946009B0197089F002B00D143E60C9B6C
S214000B00002B00D03FE67FE7CB4500DBDBE05C4612
S214000B104D46049FB146039E202130000134B8475D
S214000B20AC42F9D14E46A946019B4B441C005B469D
S214000B30E41A31780029A0D10194F7E420231F435A
S214000B40D31CD47898464CE55B001F43D31CD4785E
S214000B50984646E5009B002B71D1CB4576DA434696
S214000B600C93049B019A9846039B019708964F4660
S214000B705E461500A34699461400202148460135D6
S214000B80C0472B1B9B19BB42F7DB0C9BB94698460C
S214000B90009B5C46019FB346089E002B57D0302131
S214000BA0049B039898471F23029A0398514299433F
S214000BB07831049B9847AB1C0193E4E5089B002B17
S214000BC023D10A9B002B00D0D5E500230093D945FE
S214000BD043DCD0E5049D30210398A847029B039888
S214000BE059421F2399437831A847019D0235CB45CA
S214000BF070DA01230C9366E7016008002D21049B40
S214000C0003989847019B01330193CB4560DA5D4614
S214000C10009702964F46039EA146049C3021300062
S214000C200135A047BD42F9D14C46B9465A46019B0C
S214000C30029E4B449B1A009F0193CB469BE50223E2
S214000C409C46E344CB458ADB019DA8E7019D0195C0
S214000C5099E52D230093CB453FDA43460893049B42
S214000C60019A9846039B019702964F465E461500EA
S214000C70A34699461400202148460135C0472B1B41
S214000C809B19BB42F7DB089BB9469846009B019F21
S214000C905C460195B346029E002B00D16BE5049B93
S214000CA00099039898476B1C019364E52B21A6E7EF
S214000CB02B230093CFE7CB46EEE507990B681A1D6A
S214000CC00A601978A7E4019C33E720230093C2E763
S214000CD0CB4650E50195CB4655E5019DDFE70799E4
S214000CE00B681A1D0A601D68002D01D1FFF71EFC57
S214000CF0280032F01DF8012383461F4035D029789E
S214000D0000290ED0019BED1A049B03989847019B7F
S214000D100133E95C01930029F6D1002F01D1FFF7DA
S214000D2005FCCB4501DBFFF701FC5C464D46202168
S214000D300398049B01349847AC42F8D15B46E41A0A
S214000D40019B9C46A44463460193FFF7EFFB752C7A
S214000D5000D021E607990B681A1D1B680A600593E8
S214000D60002306930A330B9328E548450DDA040062
S214000D7020210398049B013498474C45F8D1019BE9
S214000D804B441C005B46E31A019329780029B9D12D
S214000D90FFF7CCFBF0B5C64600B582B098466B466A
S214000DA0DC1C0E00170006212200050000F05AFC8D
S214000DB02378012B1CD81F2433781C400AD0012C22
S214000DC018D0022C1ED00520184E3E6002B004BC7F
S214000DD09046F0BD154E04213200280000F042FC7B
S214000DE00323328813403380424602231360ECE725
S214000DF00520EBE7002342460C4E002033800233EA
S214000E001360E2E76A46B3880521137100232800C1
S214000E10D38001AA00F026FC6B46DA880323034E33
S214000E201340338043461C60CFE7C046700E002058
S214000E3030B583B06B460D00DA1D0621040000F0C5
S214000E4011FC6B46DB79032B0ED0013B0520012BF2
S214000E5001D903B030BD6A466B880732137007218C
S214000E60200000F051FCF4E700220721200000F0EB
S214000E704BFC0028EDD16A46012307321370062189
S214000E80200000F041FCE4E7F0B5C64600B582B0AD
S214000E901F006B46DC1D0E00904606212200050052
S214000EA000F0E0FB2378022B09D843463A003100D5
S214000EB0280001F065FC02B004BC9046F0BD052099
S214000EC0F9E7C046F0B583B06B46DC1D0D00220086
S214000ED00621060000F0C6FB2378012B23D86F7886
S214000EE0FA1E53425A411F23D4B22A78134005D122
S214000EF06B880520012B18D003B0F0BD0520022B0F
S214000F00FAD16B88002BF7D1AB88D9B21B0705D175
S214000F103000032F0ED100F071FB2979220030003B
S214000F2001F05AFEE8E70520E6E72100300001F070
S214000F3051FEE1E700F07CFB2979EFE7F0B5C64605
S214000F4000B582B01E006B46DC1D884617000621E1
S214000F502200050000F086FB2378002B0FD14346C5
S214000F60084C9B88220008212800238000F07AFB8A
S214000F7002233C60336002B004BC9046F0BD0520FE
S214000F80F9E7C046700E002070B582B06B46DC1DD7
S214000F900E0022000621050000F064FB2378002BDB
S214000FA006D1B2783179280001F048FC02B070BD55
S214000FB00520FBE7F0B5C64600B582B098466B46FE
S214000FC0DC1D0E00170006212200050000F04AFB7B
S214000FD02378002B0CD1424601331360054A2800C3
S214000FE03A60317901F03AFC02B004BC9046F0BD9C
S214000FF00520F9E7700E002030B583B06B460D0073
S214001000DA1D0621040000F02DFB6B46DB79052077
S214001010012B0ED800236A460621D3712000073222
S21400102000F072FB6988002905D0C9B2200001F0E3
S214001030E9FB03B030BD01236A460631D3712000B8
S214001040073200F061FB6988EFE7C046F0B583B071
S2140010501F006B46DC1D160006212200050000F06E
S21400106001FB23780520012B06D8012303493B60AA
S2140010702800316001F0DAFB03B0F0BD700E0020EE
S214001080F0B500264B6887B005000C000496059660
S214001090013347D002A901F08FFD6B460621DA1D09
S2140010A0280000F0DFFA237A002B34D06368082B80
S2140010B038D12368002B35D060205A88029C628085
S2140010C09A88A280D988E1805A7862701B7823704B
S2140010D018423BD1534B9200D658002E31D02100F7
S2140010E005AB04AA2800B047029C052800D192E070
S2140010F0059BE288934201D913000592049A0021C9
S214001100280000F09DF900280DD123787F2B00D908
S21400111071E0002007E06B46DB79032B40D0636864
S214001120002B02D1052007B0F0BD0299CB88002B1A
S214001130F8D00B785AB2002AF4DB9A0655D45B0630
S21400114041D48021280000F059FAECE720271F4000
S214001150002918D05AB2002A15DB002F52D15B06A0
S21400116016D5059103AB05AA2100280001F02EFD37
S2140011700597029C0028B8D1E388039A002128002E
S21400118000F0A0F9CFE7002F27D15A0613D45AB2A1
S2140011908021002AD6DBE1884B425941C901D1E7BC
S2140011A0029B204A5B7802999B009C58280005AB5E
S2140011B004AAA047B7E7210004AB05AA280001F05F
S2140011C007FD029C91E7221D2300280001F000FD88
S2140011D0029C052800D08BE7B3E7210004AB05AAE4
S2140011E0280001F0FDFC029C7FE7221D230028005A
S2140011F001F0F6FCECE7002300220021280000F0B6
S21400120061F990E7059103AB05AA2100280001F0DB
S214001210E5FC0596ADE76022237880211A4291D03E
S214001220B5E7C046E42F030030B5104B87B00393F4
S2140012300F4B6A460193012301A9137203AA050006
S214001240049000F08BF9041E02D0200007B030BDD9
S2140012506B4603AA987101A9280000F07FF9041EC6
S214001260F3D08021280000F0A1F9EEE781100000FD
S21400127040008000F0B5040085B000292FD000287B
S2140012802DD08568002D28D00B7A102B29D00E2261
S21400129001201A401FD11E255E003540DB092B4376
S2140012A05D00EE18B600A619F768002F13D00F6879
S2140012B001A801974F684760497A0172002939D022
S2140012C0202122756254EB189B00E3181A6901006E
S2140012D0DB682000984705B0F0BD0120FBE703203F
S2140012E0F9E701222F33C2544368002B05D05B690F
S2140012F000220E2100689847A5683E230222002699
S214001300E254023BE6541C3BE66026612675A66165
S214001310E661E6540C336662A662E6540C33266336
S21400132066630022E65401212000A8473F230020E0
S214001330E654D0E73175C6E7F0B5CE46474680B5E9
S214001340060083B08946171E51D001A801F010FA96
S214001350314C2568002D0DD03D23E35C0198B34247
S21400136041D001F009FA0226300003B00CBC9046CA
S2140013709946F0BD3D230198E654984601F0FCF9E5
S2140013804B46A3604346E654013BE5540333E5541D
S2140013901F3BE5540C33E5540C33E5602561257599
S2140013A0A561E5616562A56225636563E554012E66
S2140013B00ED81A4B300063603C60636822001B68DE
S2140013C021009847061E14D13E230222E254CBE7A2
S2140013D001A801F0CDF943462560E554019801F0D7
S2140013E0CBF90626C0E701F0C7F90126BCE70326BD
S2140013F0BAE76368002B03D05B682068984765608F
S21400140001A801F0B5F900253D232560E5540198B3
S21400141001F0B2F93D60A7E708E6FF1F6C30030055
S21400142010B500280AD04368002B05D000685B6919
S21400143000220021984710BD0620FCE70320FAE7AB
S214001440F0B54746CE4680B5060083B017009846EE
S214001450002835D04368002B27D00F250D4080216B
S21400146001230D436C001C43E4B263001C19A40066
S2140014700419237D9946002B15D101A801F078F9AF
S21400148001230198237501F077F909CE29009E689B
S2140014903A004346B047051E09D1280003B00CBCED
S2140014A090469946F0BD0225F7E70625F5E701A820
S2140014B001F05EF94B460198237501F05DF9ECE703
S2140014C00325EAE7F0B54746CE4680B5050083B06B
S2140014D017009846002830D04368002B22D00F26ED
S2140014E00E4073005C00E418A4000419237D99469E
S2140014F0002B15D101A801F03BF9012301982375B3
S21400150001F03AF909CD3A00DD6831004346A847B4
S214001510051E09D1280003B00CBC90469946F0BDC4
S2140015200225F7E70625F5E701A801F021F94B4665
S2140015300198237501F020F9ECE70325EAE7C04699
S21400154010B5002808D04368002B03D000681B693C
S214001550984710BD0620FCE70320FAE770B5002880
S21400156022D000291CD0002A1AD00E258C78E30938
S214001570254015D11E26640034401C4363001B1909
S2140015809B00C318146852681D75DC601A614368B6
S214001590002B07D00A0000685B690221984770BDDF
S2140015A00420FCE70620FAE70320F8E730B583B00E
S2140015B06B46DA1D050011700C0000281BD043682E
S2140015C0002B16D05B690321006898470E23234042
S2140015D00DD11E2162001140E40921434C0064181D
S2140015E0A4002C19E3602361237503B030BD0420EA
S2140015F0FBE70620EAE70320F7E7C04600B583B01E
S2140016006B46DA1D0E2311700B420AD100280CD04F
S2140016104368002B07D000685B690421984703B035
S21400162000BD0420FBE70620F9E70320F7E7C046E5
S21400163000B583B06B46DA1D0E2311700B420AD13B
S21400164000280CD04368002B07D000685B69052192
S214001650984703B000BD0420FBE70620F9E7032007
S214001660F7E7C04610B5002A43D008293FD8254CD6
S2140016708B00E3589F4600283FD04368002B3AD0A3
S21400168000685B690921984710BD002835D043687B
S214001690002B30D05B690F2100689847F4E70028DC
S2140016A02BD04368002B26D05B690621006898473C
S2140016B0EAE7002821D04368002B1CD05B6907218D
S2140016C000689847E0E73E23C35C00201370DBE722
S2140016D03C23C35C00201370D6E700280FD0436875
S2140016E0002B08D05B69102100689847CCE70120E2
S2140016F0CAE70420C8E70620C6E70320C4E70800B8
S214001700C2E7C04618300300CB1EDBB210B50B2B69
S21400171049D82E4C9B00E3589F46002847D0436884
S214001720002B42D000685B690B21984710BD00284B
S21400173049D04368002B38D05B6911210068984770
S214001740F4E7002A2FD03E231278C2540020EDE79B
S2140017503E23C15C03292CD0002A24D011783C22D9
S2140017608154393AC2540020E0E700281FD043686D
S214001770002B1AD05B690C2100689847D6E7002832
S21400178015D04368002B10D05B690D210068984780
S214001790CCE700280BD04368002B06D05B690A21F3
S2140017A000689847C2E70120C0E70620BEE703208E
S2140017B0BCE7020043683C32002BF6D05B69082188
S2140017C000689847B2E70800B0E7C0463C30030020
S2140017D0F0B5CE464746914680B500286BD16223C9
S2140017E0364DFF24E85428006430E8618020344BEE
S2140017F0AB601C54187F420758D4842410279C26BC
S2140018002F4B6400185DFF22B84318552D4C9446A4
S214001810200AC0B26C609855200CC0B21436985599
S214001820B420260E1E542C381A54022290469426B3
S2140018304246985D274310439855982200209854B6
S214001840903A22432060106038601827274338609B
S214001850C0272200E862E863D855A03F3A431060EC
S214001860282222431060302222431060382214437C
S2140018702060C424E864E8651855643C28559C5DDF
S214001880363A94439C5562468C241A55083C763A60
S2140018901A55233C2855985DB84398554B4600206A
S2140018A01D6029600CBC90469946F0BD7F201C7FC9
S2140018B020401877A1E70620F4E7C04648E6FF1F59
S2140018C00020074000E4FF1F002812D08022FF21DE
S2140018D08368C02099547B395A5C00225A541431CC
S2140018E05A5404395A546C315A5C024300205A54F4
S2140018F070470320FCE7C046F0B557464E464546BF
S214001900DE46E0B505000E0048001E21014001201D
S2140019100143273084460F01EC19A4446046407901
S21400192083B04006C00F08D122626246A062202023
S21400193063625279024360464271EA19948DA405A7
S214001940A40D9C4200D91C006123EB5CEF1998465D
S2140019504246BB6A002A0ED0012290461C4302D1A2
S2140019600F231E4045D0404603B03CBC90469946E7
S214001970A246AB46F0BD023109014A5901A891467C
S2140019800F223240994492465300012213439B464D
S21400199000F0EEFE5B4640211B01EB1828335A7917
S2140019A048460A4351465A716A684901520A520229
S2140019B00A4310210A435979C906C90FC9001143C1
S2140019C048605B79D906C90F1B07C900DB0F0A43BD
S2140019D09B0121040B4388210B431360019800F000
S2140019E0CBFE94222020A9688B5C83438B54BB6A71
S2140019F0B4E72D272A00EB5D0C32DC06E40FE4008A
S214001A00141908226A6220329343202213432C6260
S214001A10AE6201A8EB5500F0ABFE2A0040212C3246
S214001A2053780B4353706A68DB06510ADB0F490292
S214001A30DB000B435C60EB5DDA06D20FD2001B07BF
S214001A400A43DB0F06499B010B431360019800F025
S214001A5093FE94222020A9688B5C83438B5482E7F4
S214001A6088000800F0B5C64605001E2000B54C00EC
S214001A70204082B00001002B03D10F240C4000D17F
S214001A806CE02E183400283464796406E40F02D122
S214001A90B4623262736220272C18283466793E437B
S214001AA06671A488A405A40D9C4215D828180600C3
S214001AB0876AEB692836D719002B03D06022A85C0A
S214001AC000280BD06123EE5C002E18D001263000D3
S214001AD002B004BC9046F0BD1C00E7E7402CF1D8ED
S214001AE0380020438007EDD020277079B843707106
S214001AF001201F006123A854EE5C002EE6D1523B65
S214001B000B40984601A800F033FE434640205B0198
S214001B10EA18283251792404014351716968490A48
S214001B20490219435379DB06DB0FDB000B435F608A
S214001B305379DA061B07DB0F9B011C438823D20F61
S214001B40D20011431C430C60019800F015FE94224D
S214001B502020A9688B5C83438B54B8E740222D274E
S214001B6028182830437993432A004371EB5D0C32E2
S214001B70DE06F60FF600961908226A6220329343B4
S214001B80202213432E62AC6201A8EB5500F0F0FD54
S214001B902A0040212C3253780B4353706A68DB06C8
S214001BA0510ADB0F4902DB000B435E60EB5D01264A
S214001BB0DA06D20FD2001B070A43DB0F06499B0149
S214001BC00B431360019800F0D7FD94222020A968EB
S214001BD08B5C83438B547AE7880008001E234A00F8
S214001BE030B51340CA0913431A01821828325479B3
S214001BF085B0640602D4002005B030BD02331B0158
S214001C001B5801250193002301AC217240216D422F
S214001C100295637253798B43537121000068FFF776
S214001C2029FBE8E7F0B5DE4657464E464546E0B5A2
S214001C30040087B0002800D120E20F2900D91BE25B
S214001C40B3488B00C3589F463D23E35C5B0600D534
S214001C5028E2C0230020A268D054A38F9B0A9B02D0
S214001C60A3872D23E35C5B0600D509E2C023002191
S214001C70D154A38D9B0A9B02A3855D23E35C5B0680
S214001C8000D534E2C4230021A268D1545C31635AE3
S214001C909B0A9B0263524D23E35C5B0600D513E26E
S214001CA0C4239C4600236146FF27942002255354F4
S214001CB03C395754115C2026294311549821082595
S214001CC053546168490A49020D430B602B60102586
S214001CD00D432B6018250D432B60C025E362E3639C
S214001CE053550D0035432B6028250D432B603025BA
S214001CF00D432B60382529430B606146E364E3659A
S214001D00535464396354115C363DA94311548C21F5
S214001D10873557540839555423396354135CB343F5
S214001D201354002005E0002A00D1A5E1002300207E
S214001D30137007B03CBC90469946A246AB46F0BD31
S214001D4080220020A368520098541A7F520703D5B9
S214001D501A7F803002431A778420102440001A5CD1
S214001D60224301241A5474381A5C22431A54080079
S214001D70DFE7A3681A7F520703D57F22197F0A4040
S214001D801A778421102049005A5C82435A54002056
S214001D90CFE70120002ACCD00F2115780C27294048
S214001DA0E8094A000243120113002833E3185E795B
S214001DB0A218BE435E7106014B0133436668043FBA
S214001DC0760A76023343968D2832B605B6093E4328
S214001DD01E6092883B43920592093A431A608A0035
S214001DE09146A3683E0099444A46B836B446965D86
S214001DF00222BA4696434F466246BE54002900D099
S214001E00BEE1002835D12D262200A35D0C32DD066A
S214001E10ED0FED00551952466262282293432022A8
S214001E201343A062256203A8A35500F0A1FC22007C
S214001E3040212C3253780B4353706268DB06510AFC
S214001E40DB0F4902DB000B435D60A35DDA06D20FB1
S214001E50D2001B070A43DB0F2E499B010B4313607E
S214001E60039800F089FC94212020A3685A5C8243E2
S214001E705A54942120205A5C82435A54002058E732
S214001E800120002A00D154E70F25107805406A008B
S214001E90C30913431E01A21928325179490600D5F9
S214001EA05BE10023A2683035AD00AB54A419A38DC6
S214001EB000209B0A9B02A3853BE70120002A00D155
S214001EC037E70F2510780540C6096A003243170128
S214001ED0E31928335979490600D529E10421E71981
S214001EE028377A796D010A437A71636836015A0A8F
S214001EF05202354315437A79BB88D206D20FD200F8
S214001F0015438C229B059B0913432B608BE0C04630
S214001F1084300300880008000120002A00D108E76A
S214001F200F269078A16806408B46D178C0097300CA
S214001F3015880343012900D1EBE0291C402D00D968
S214001F40402189B20191B1008C46C021D94688460D
S214001F50E14445464946495D0125AA465546474659
S214001F6029434D46E9551B01E11828314F7928339E
S214001F70B8464027B94647464D46AF434F71019D88
S214001F80E318AD05AD0DA84647468D88AD0AAD02EF
S214001F903D430C278D805D79BD435D717F231279AB
S214001FA04D79D2012B405F461343C0224B716744E4
S214001FB0BB5CDBB2012800D1B5E008210B43BB5463
S214001FC0002E00D0B5E62D272200E35D0C32DD069C
S214001FD0ED0FED005519082262622032934320224D
S214001FE013432562A66203A8E35500F0C1FB220056
S214001FF040212C3253780B4353706268DB06510A3B
S214002000DB0F4902DB000B435D60E35DDA06D20FAF
S214002010D2001B070A43DB0F69499B010B43136081
S214002020039800F0A9FB94222020A1688B5C8343D0
S2140020308B5400207DE6002A1ED00E2015782840FE
S2140020401AD11E2369000B40ED092B431B01E4182F
S214002050283463795B07DB0F53806AE6002A0BD0CF
S2140020609823A16812780020CA5462E6002A03D09A
S2140020700123002013805CE601205AE6032058E680
S214002080236A22000393012303A95B4208812C32B2
S2140020904B6053784030834353702068FFF7EAF86C
S2140020A0A268E3E5236B220003930123402003A9E3
S2140020B05B424B6081330B813C32537883435370D1
S2140020C02068FFF7D7F8C4E5236C220003930123AA
S2140020D0402003A95B424B6002334C320B8153789D
S2140020E0834353702068FFF7C5F8A268D8E5236DD0
S2140020F0220003930123402003A95B424B608233F6
S2140021000B815C325378834353702068FFF7B2F834
S214002110B8E52C4F291CBD4200D9391C89B2019163
S214002120B1008C461FE704210B43BB54002000E699
S2140021300232120112590121039202AA10730022E0
S21400214040204942049102A94A735A7903A982435E
S2140021505A712068FFF78EF8C0E602331B011B5940
S21400216001270393002303A9087240207F424F6093
S2140021704B725379834353712068FFF77BF890E6E0
S2140021806900A23A0A4010430201A2182832517987
S214002190490600D46DE60123023003A95B42000124
S2140021A04B6003594020039300230D724B72537902
S2140021B0834353712068FFF75DF8A36859E6C0466D
S2140021C088000800FF030000F0B5DE4657464E467E
S2140021D04546E0B589B000280FD004688020082660
S2140021E0A3681D5CEDB22E420ED101232B4200D017
S2140021F073E06DB2002D00DA81E009B03CBC904679
S2140022009946A246AB46F0BD90229A5C0127D2B210
S21400221011098A461E545346D10839408946590149
S214002220636802915B0A5B020B43494692083A4098
S214002230D0000901014319430868496884460191A2
S2140022408106090F0D2900D1E4E052464E460020D3
S21400225057003E43310162182832527900905206E8
S214002260C3D56246120C9005800D8346484600286A
S21400227000D132E1631898464246180001269B6A50
S21400228028305B449362526AD31A9C4643791A07F5
S214002290D20F7240D200019208229343019A1A4349
S2140022A0D306DB0F5E4010239A4343463601324383
S2140022B042711A6A6346002B00D1BFE083889B05F3
S2140022C09B0D9B4500D2B9E0802153460B43190075
S2140022D020006346FFF710FB87E76122A354A1683E
S2140022E01F328B54002305A905934B6010330B81D6
S2140022F020686DB2FEF7BEFF002D00DB7DE7802371
S214002300A2688021D35C5BB2002B04DA5154535C84
S2140023105BB2002BFADB3D23E15C393B0B4204D178
S2140023202D21615C0B4200D167E73D210C20102572
S214002330635CC02683436354A18F636889055B0A88
S21400234004385B0289091D43014329601825A18FC3
S2140023501D43890589090143296002252027915DCF
S214002360AC46A94391559235515DBA46B94351558D
S2140023702C218946A144494649781C3FB9434F461B
S2140023807970A18D8905890901431960A18D0343E0
S21400239089058909014319606146935D8B4393550E
S2140023A02D2322009846E35C0C32DE06F60FF6007C
S2140023B096190022A26228329343202213434246F3
S2140023C06062266205A8A35400F0D2F940227B780A
S2140023D013437B706268DB06510ADB0F4902DB00A1
S2140023E00B435E604346E35CDA06D20FD2001B075F
S2140023F00A43DB0FD9499B010B431360059800F095
S214002400BBF95146A3685A5D8A435A555A5D8A43BA
S2140024105A55F2E651464E464F003E43310160188B
S214002420804628208346D84440464079400600D45B
S214002430DBE6632022540122009212E728239C4602
S21400244061188C446346896A05AE05924022716025
S214002450614601935B7993434B715B46002B00D139
S214002460DAE0898858468905890D30F011F88B46E0
S214002470002900D0D0E05346002B00D03EE1633365
S214002480E35CDB00E3185A8A43465B6A9A4200D84C
S214002490C2E004A800F06CF9220040213C325378D8
S2140024A00B43102153706268DB06520A52020A433D
S2140024B05146DB0FDB00134359603D23E35CD9062E
S2140024C0C90FC9000A4388211B07DB0F9B010B437A
S2140024D01360049800F050F9A9E05046002800D197
S2140024E0ACE0282084466718BC4460464079BF6A42
S2140024F084468006C00F804651D16046C006C00F95
S214002500C00003435B6802369C4636013359D8192F
S214002510029084453ED0584600283BD00437DF1949
S214002520664643464046BE425B41371D029EBE425B
S214002530404118435B460827013B9F429B415B4254
S214002540034200D1FAE0634633439B0700D0F5E030
S2140025505B469F086346F01A90460200BF00674439
S2140025601868D0500433BB42FAD1FF2342469B0082
S2140025701A4093450ED063469B5CB354531C9B4550
S21400258008D96046C75C0232F754934502D96346C1
S2140025909B5CB35460230022E25463189F6A3B009E
S2140025A06218506A5B44C01A1700029050462837DB
S2140025B0936200284BD00120844660467B791E0734
S2140025C0F60F4640082083436046F6001E43F30697
S2140025D0DB0F434010201B01864333437B71536A55
S2140025E0002B08D0029B002B05D0BB889B059B0DBB
S2140025F09B4500D3B4E063189B6A05AE7360009BEE
S214002600002B01D1136A01934022019B61180593A8
S21400261028314B7993434B71009B73724B46D9011B
S21400262053460B43337231002068FEF723FE942294
S2140026302020A1688B5C83438B54D6E5584600283F
S21400264000D04EE74B4605AE73600593E4E700986E
S214002650002827D008208446230060462C335E7866
S21400266006435E7026003C3673780343012084469A
S214002670604673707E79F306DB0F434010201B0123
S214002680864333437B71536A002B07D0029B002B93
S21400269004D0BB889B059B0D9B4561D2936A05AE13
S2140026A07360B1E70120804640467E790196360782
S2140026B0F60F4640F00003900820019E8643300047
S2140026C0039E06430196F0064646C00F7040000182
S2140026D0102680460198B043060040463043787185
S2140026E0506A002807D00298002804D0B8888005D1
S2140026F0800D834534D205AE736083E7019B5B791A
S214002700DB0989D0012304A81F4300F031F84021DB
S2140027103F01E71928377A790A4310217A716368EE
S2140027205A0A029B52021A435B460A437979C90643
S214002730C90FC90011434B607B79C0E66346029817
S2140027405A46C01A80464746019862441E78FE5490
S21400275001339342FAD101901CE7C0468800080076
S214002760126A029B51462000FFF77CF93DE5C04601
S21400277010B502F049FA10BD10B502F039FA10BDD6
S21400278030B54878062807D14888040A022C1FD09E
S214002790032C09D0012C01D0052030BD164900209D
S2140027A0196012231360F8E7C0B2002816D0134C45
S2140027B08D88A46821898D4216D1022818D90C214B
S2140027C0052025686D581D6063685B581360E4E754
S2140027D00B490020196020231360DEE707490C68C8
S2140027E01C604B681360D8E70C340C210520E8E722
S2140027F081000020E5E7C04620E0FF1F40E0FF1F05
S21400280000E0FF1F00B583B06B46DA1D1170012390
S214002810002905D0044B1970092100F099F803002F
S214002820180003B000BDC046720E0020024B002008
S2140028301B780B707047C046720E002010B582B031
S2140028406B46054CD971073362541A000A2100F012
S2140028507FF802B010BDC046ECE6FF1F024B00201A
S2140028605B5C13707047C046ECE6FF1F70B500292E
S21400287025D01C4A1C4B486815681E68411C10D0A1
S21400288000201860106000230022002417490A6008
S2140028904B60174B1870002D01D03100A847200060
S2140028A070BD002119601160002300220F4801242A
S2140028B00260436002200E4B40421970EBE7002492
S2140028C000251E20074B40421960074B1960074B36
S2140028D01C605D60064B01341970064B1B689847F8
S2140028E0DDE7C046F8E6FF1FFCE6FF1F00E6FF1F19
S2140028F0740E0020F0E6FF1FF0B5C646124C4A687C
S214002900236A00B5070009681800E260236130F00A
S214002910F6F9E6682569002E09D00C4BAE199846E4
S214002920434628781B6801359847AE42F8D1002305
S2140029303800E3602361226A6389217AFEF7C2FDCC
S214002940002004BC9046F0BD08E8FF1FF4E6FF1F19
S214002950F0B5060087B00C00012918D0092913D15C
S2140029601378012B1FD001231B4C00226371002318
S214002970217DA361E3613000FEF762FD6389226A70
S214002980217A3000FEF79EFD002007B0F0BD00273C
S214002990114D6F71FEF748FC40232C726B81EF607F
S2140029A02F612C75F0E700250C4B01AC03930C4B04
S2140029B003AA2100019304902571FEF7CFFD094B71
S2140029C003AA0393084B2100300004960193257157
S2140029D0FEF7C4FDC7E7C04608E8FF1FF928000059
S2140029E0400001026D2800004000810270B5174DBE
S2140029F000242B78002B01D0200070BD00F0F2F8E8
S214002A00042000F0CBFA0100A020C00200F0B6F9C6
S214002A100F4E104BB48032000F49002034603362F2
S214002A20FEF78AFC01340028E6D1C6210B4B89004C
S214002A305A58FF3082435A50802252041A60306837
S214002A40FEF7EEFC2C700024D6E7C046730E00207E
S214002A5008E8FF1F08E7FF1F5129000000E100E01B
S214002A60F0B5D64646464F469A46274BC0B51B7825
S214002A7004000D009046002B33D002F0C5F8234E1C
S214002A803378002B27D1002C2ED0002D2CD00123FC
S214002A90337002F0ADF81E4F380018F06BFB42465C
S214002AA01C4B1A60524699461B4B1A6098461B4BA5
S214002AB0220018689D61DC61197D2B00FEF7C0FCC2
S214002AC0030002280BD00020002B12D11CBC90461D
S214002AD09946A246F0BD02F08BF80220F6E70220E7
S214002AE0F4E707204042F1E702F082F80520404272
S214002AF0ECE74B461860434600221860002330700F
S214002B003A607B601E38E1E7730E0020740E0020EA
S214002B1000E6FF1FF8E6FF1FFCE6FF1F08E8FF1FA2
S214002B2070B502F071F8134D2B78002B0FD064218E
S214002B30114818F013FD041E09D0104B1B78002B0B
S214002B4002D02B78002B07D102F052F802E002F0F8
S214002B504FF80024200070BD0022094BDA619A610C
S214002B60197D186880231943FEF7EAFC02F040F846
S214002B70F0E7C046740E002000E6FF1F730E00202C
S214002B8008E8FF1F014B18607047C046F0E6FF1FBD
S214002B9010B5040002F038F8024B1C6002F028F86A
S214002BA010BDC046F4E6FF1F10B5024B1868FFF7CD
S214002BB00BFB10BD08E8FF1F002903D00020024BC6
S214002BC00B6070470420FCE700E7FF1F00207047FB
S214002BD00020704700207047002070470020704794
S214002BE0052070473F2270B5444C237893432DD17F
S214002BF063795B0614D51F252179414829400131A8
S214002C002FF0C0FB63791D40183568433D4B3E4AA4
S214002C10D158090F01312FF0B5FB3C4B186070BD41
S214002C2023785B071CD5802000021F22334BDB78FD
S214002C309343602B4ED02DD9A02B57D024D9C02B30
S214002C4058D0E02BE2D1324B5843DFE7237893434A
S214002C50402B29D023789343802BE0D12848D5E712
S214002C6063780F3A1A422BD0382322781340302B41
S214002C702ED0382B2AD02021237821489B065B0FA4
S214002C8099402FF07FFBD0E7802BBFD1B7239B0066
S214002C905843BBE7202B21D0402B23D0002BB5D1A7
S214002CA083001818C001B1E76378DB0705D5237ADF
S214002CB018481B075B0FD840A8E780200002A5E74E
S214002CC023780F489B065B0FD840AEE71248ACE768
S214002CD01248AAE783001818400297E783001818DE
S214002CE0000293E70301181AC0018FE7B723DB0041
S214002CF058438BE70A4B584388E7C04600400640D7
S214002D0000127A004410000000700440C4E0FF1F68
S214002D10710B000000093D00581400006A180000FE
S214002D20950800007047C04610B5FFF7FBFF10BDC2
S214002D3030B580250C4A41680C4B0D4CD1500378B9
S214002D406D021B0411592B400A4D29400B431351A9
S214002D504378C0209B0400031168034006480140E6
S214002D600B43136030BDC0460070044044100000A2
S214002D7004100000FFFFFEFFFFFFF3FF114A30B50F
S214002D801368114C2340136000280DD10F49104AD8
S214002D908B581C408C50012180230A4ADB021068A5
S214002DA003431360080030BD0A4B084C9C46614440
S214002DB04B425941064A084DA358C9B22B4003431B
S214002DC0A350E9E734800440FFFFFBFF0070044097
S214002DD004100000009423FDFFFFFAFF10B51B4B04
S214002DE05A78920716D49A79920613D49A79D2060C
S214002DF012D5174B186800280DD0144AD378D2780D
S214002E005B069B0FD2095B009B18124A5B009B5A1D
S214002E10584300E0002010BD0F4A10680028FAD082
S214002E201A785B789206520F9B06D0409B0FE2D032
S214002E30062A03D0072A05D04009DCE714212FF024
S214002E40A1FAD8E70C212FF09DFAD4E700400640FF
S214002E50CCE0FF1FF83003002CE8FF1F70B5174CBE
S214002E60A3791B079B0F022B06D0032B0DD0012B3B
S214002E7005D0FFF7B3FF70BD114B1868FBE7A279CA
S214002E80134212D10F4B1868F5E7A3795B0613D5EA
S214002E901F2521790A4B2940186801312FF072FA54
S214002EA063791D4018356843E5E7237A064A1B0711
S214002EB010685B0FD840DEE70020DCE700400640E5
S214002EC02CE8FF1FCCE0FF1FC8E0FF1F70B52F4B9C
S214002ED09A79D20615D52E4B1C68002C0ED02B4D99
S214002EE0AB791B079B0F022B35D0032B22D0012B6F
S214002EF019D0FFF773FFC008A04200D200242000BC
S214002F0070BD244A1468002CF8D01A785B789206B4
S214002F10520F9B06D4409B0FDFD0062A29D0072AE3
S214002F202DD06409D9E7AA79134218D1184B18682E
S214002F30C008E1E7AB795B0619D51F262979154B42
S214002F403140186801312FF01DFA6B791E40183693
S214002F507043C008D0E70F4B1868C008CCE72B7A40
S214002F600D4A1B0710685B0FD840C008C4E7002056
S214002F70C2E7200014212FF005FA0400ADE7200078
S214002F800C212FF0FFF90400A7E7C04600400640DA
S214002F90CCE0FF1F2CE8FF1FC8E0FF1F70B50C2811
S214002FA00ED8434B80001B589F46424B18680003C0
S214002FB0800F022800D177E0032803D000285FD0D6
S214002FC0002070BDFA208000FBE73A4A3A4BD358FF
S214002FD0DB0343D4FFF702FFF3E7FFF73FFF354A73
S214002FE0364BD158090F01312FF0CCF9E9E7344DB3
S214002FF0AB795B06E4D51F242979324B214018684B
S21400300001312FF0BFF96B791C4018346043D8E7C4
S214003010FFF75CFFD5E72A4B1A789207D0D59A7946
S214003020D2073AD4284B1868CBE7224D234CFFF73B
S21400303015FF2959090F01312FF0A4F92959490321
S214003040490F01312FF09EF9BBE7204B00201B787B
S2140030505BB2002BB5DA1B4B1868B2E7184DAB799C
S2140030605B06ADD51F242979164B2140186801311F
S2140030702FF088F96B791C40183460434008A0E7AD
S214003080124B1B785BB2002B9BDA80220D4B120290
S2140030901B68934295D1180093E71B7A0C4A1B07CE
S2140030A010685B0FD8408CE70A4B186889E7C04663
S2140030B0C4300300007004400410000044100000F8
S2140030C0004006402CE8FF1FCCE0FF1F00500640E3
S2140030D0C8E0FF1F30E8FF1F70B51E4DAB79AE7914
S2140030E02C7A1B0724079B0FF6B2640F94420AD073
S2140030F0F40720D40E24174E5200357A224021348D
S214003100A5432A4332720125124C6278AA430D4029
S2140031102A43032562702278AA4302432270012BB9
S21400312001D0830705D501220A48837913408B42D4
S214003130FBD1002070BD012B02D02C78A407D9D576
S2140031400126044D6C78B4436C70AC792642FCD1F1
S214003150D0E7C046004006400268174930B5002355
S2140031608A4206D9154991425B410F225B4293433E
S21400317020330F2412493C250A78A24304792243BF
S2140031800A705F220C782240847922430D4C0A7024
S21400319062784079AA4302431343DBB26370002887
S2140031A003D00B785BB2002B00DB30BD0222A37984
S2140031B01A42FCD0F9E7C0469798000000127A0041
S2140031C0005006400040064010B526494B785B0785
S2140031D003D502208B791842FCD0022021494B7877
S2140031E083434B703B2308780340802003430B70D7
S2140031F064388B790340082BFBD140204B798343FE
S2140032004B71184920388B791842FCD11F2453780B
S21400321023400B7148799378A043234003434B71B6
S2140032200B7912781343402213430B7140210D4A49
S21400323093791942FCD0402153790B4320215371D6
S214003240084A93791942FCD03F2311780B4013703B
S214003250032204498B799B081340032BFAD10020E4
S21400326010BDC0460040064030B5464C2378002BC3
S21400327000D030BD8022444812030168114301602B
S21400328001680A43026080220168D2000A43026095
S2140032903E4A3F49D5690D40D561156A0D40156215
S2140032A0956A0D409562D56A0D40D562556D0D4004
S2140032B05565956D0D409565D56D0D40D56580229B
S2140032C0056812012A430260324A556C0D40556467
S2140032D0956C0D4095648022056852012A432E4D58
S2140032E002602A680A402A608022056892012A4302
S2140032F002602A4A022510690840106150690140A0
S2140033005161274A274948201160C02109035360AC
S21400331091612549D16125491161254951612549A8
S214003320936013620B624B628B62CB620B634B63E0
S2140033308B63CB630B644B648B64CB640B654B6510
S2140033408B65012111540C30155421380235155463
S21400335001380435155413301354143813540A38EE
S2140033601354013013542D3013540F3813541C3893
S21400337013540130135413685530034313602170FF
S21400338077E7C046750E00203880044000A0044051
S214003390FFF8FFFF00B0044000C0044000D0044027
S2140033A0003005404B08B00800011000800D0E00EC
S2140033B06001300004300540F0B5C646414B00B50C
S2140033C00400984262D80023312245263E4D90469E
S2140033D0AB55AB540A3AAB540132AB542D32AB5416
S2140033E00F3AAB541C3AAB540132AB54374B9842AD
S2140033F019D8632862D8364F364E092831D80A21A4
S21400340020002EF0BFFF8300C0184000241A0F20B3
S2140034102A220440395D2C4B9954315D013299546F
S21400342004BC9046F0BDFA2189002EF0ABFF414661
S214003430274F82B2BB5CAB55264EB35C6B54500133
S214003440801A80008018C0006421201A2EF09AFF8F
S2140034500F2327221840395C1B4B9954315C0132EC
S2140034609954642120002EF08DFF83B264205843C7
S2140034700A21201A2EF086FF0F2355221840395CA9
S214003480114B9954315C0F3A9954B8E745220F21F5
S2140034900D4B46209954143A073999540A3A043980
S2140034A099540021013299540B312D329954473AE0
S2140034B01A541C38195420315A54B1E70022044FCC
S2140034C0044EBCE70F27000000300540E70300006D
S2140034D00831030018310300F0B5DE4657464E4665
S2140034E04546E0B5040083B0002854DB904B984274
S2140034F039DC83B231229846452600238D4D91460D
S214003500AB55AB540A3AAB540132AB542D32AB54E4
S2140035100F3AAB541C3AAB540132AB54864B98422C
S21400352000DDB9E04346632B00D9F9E0092B00D94A
S214003530FAE0824F824E0A2140462EF023FF830097
S214003540C0184000241A0F202A220440395D794B07
S2140035509954315D0132995403B03CBC904699466B
S214003560A246AB46F0BD45220F21724B4620995429
S214003570143A073999540A3A043999540021013209
S21400358099540B312D329954473A1A541C38195411
S21400359020315A54E0E76B4B9842E4DB00232720A7
S2140035A0452131222A272B26624D83466B54AB5485
S2140035B02B5401302B5482462D302B5481460F3825
S2140035C02B548046E0B2EB55AB550190200063309B
S2140035D029DB2200093200DB93E0042259466A54B4
S2140035E052460A21AB54494220002EF055FF4A4667
S2140035F0524B0A219A461B5CAB544246504B9946A6
S2140036001B5C2000AB542EF047FF8300C018019BC4
S2140036104000C01A0F23184053461B5CEB554B4620
S2140036201B5CAB5598E7042068546421AB544942B0
S21400363020002EF031FF5A46404B64211B5CAB54F1
S21400364052463F4B9B461B5C2000AB542EF024FF9B
S21400365003B2642058430A21001B2EF01DFF0F23DF
S2140036604A4618409A46354B0A211B5CAB545B46CB
S21400367042461B5C2000AB542EF00EFF8300C018A1
S214003680019B4000C01A534618402C4B1B5CEB5560
S2140036905B461B5CAB555FE7FA21404689002EF07F
S2140036A071FE4946254F82B2BB5CAB55244EB35CD7
S2140036B06B545001801A80008018C0006421201AC4
S2140036C02EF060FE0F23272225001840395C194B88
S2140036D09954315C01329954642140462EF052FED2
S2140036E083B2642058430A21281A2EF04BFE0F237B
S2140036F055221840395C0F4B9954315C0F3A995457
S21400370019E7042249466A544246AB54019B0B4AC9
S2140037105B42DBB2D25CEA55094AD35CAB551BE789
S2140037200022064F064EC4E74546044F044ED3E734
S2140037300F27000000300540E703000008310300B3
S2140037401831030019FCFFFF312110B51A4B5A5CE3
S214003750012829D00124A2435A54022812D1282134
S21400376001245A5C22435A5446210124124B5A5CC7
S214003770A2435A54042810D12B2101205A5C02433C
S2140037805A5410BD28215A5CA2435A540328EBD140
S214003790462101205A5C02435A542B220120064936
S2140037A08B5C83438B54ECE7012422435A5409393B
S2140037B05A5C82435A54D7E700300540042145221C
S2140037C0084B3120995400221A540A3819540130F3
S2140037D01A542D3019540F381A541C3819542731DE
S2140037E05A5470470030054088220C200449520184
S2140037F08B5883438B500122024B1A707047C04689
S21400380000700440760E0020BFF34F8F034B044A2F
S214003810DA60BFF34F8FC046FDE7C04600ED00E01C
S2140038200400FA05244810B50378002B42D1234A39
S21400383001331168FF330B4302211360204AFF2433
S21400384013680B431360C0231E4A9B00D158A14344
S2140038507F3C2143D150D1581B4C0C40802109029B
S2140038602143D150D158194C2140C024D150D158B1
S21400387024060902090A2143D1507F22144B1978E5
S214003880114019703F211C788C431C705C781440E2
S2140038905C705C788C435C709C7814409C709C7860
S2140038A08C439C70DC782240DA70DA788A43DA70CF
S2140038B00123037010BDC046770E002040800440F0
S2140038C03C80044000E100E0FF00FFFFFFFF00FF38
S2140038D000100240014B8000C150704734E8FF1FC3
S2140038E030B51F250B4B3F241B5C0B4A1D400123A4
S2140038F0AB407F251360094B1A5C15401D541A5CBB
S214003900A2430C40802122431A541A5C0A431A54DC
S21400391030BDC0463031030000E100E00010024038
S21400392070B502292FD004291DD100251849022A76
S2140039301ED98024174A00018518174A6404821885
S214003940166834431460802464002B518223049C40
S2140039505B00EC50059B1B021B0A13600F4B9C463A
S2140039606044016070BD90250D496D03022AE0D8C1
S2140039700C498C5C0C49E404895C89050C430449B9
S2140039802C432143D5E790250849AD03CFE7C04631
S214003990800000A000800040088100400C810040AC
S2140039A0800012A02C31030028310300800024A0E0
S2140039B0842380210E4A5B00D05810B5D4584904A1
S2140039C02143D1500B4B1B68002B04D0420003D57B
S2140039D03D204042984710BDC20003D53F204042DC
S2140039E09847F8E73D228000C01790439847F2E7D3
S2140039F00080004034E8FF1F8C2380210E4A5B00C5
S214003A00D05810B5D45849042143D1500B4B5B68AD
S214003A10002B04D0420003D53D204042984710BDFD
S214003A20C20003D53F2040429847F8E73D22800079
S214003A30C01790439847F2E70080004034E8FF1F25
S214003A40942380210E4A5B00D05810B5D458490400
S214003A502143D1500B4B9B68002B04D0420003D56A
S214003A603D204042984710BDC20003D53F2040424B
S214003A709847F8E73D228000C01790439847F2E742
S214003A800080004034E8FF1F9C2380210E4A5B0024
S214003A90D05810B5D45849042143D1500B4BDB689D
S214003AA0002B04D0420003D53D204042984710BD6D
S214003AB0C20003D53F2040429847F8E73D228000E9
S214003AC0C01790439847F2E70080004034E8FF1F95
S214003AD010B500BEFFF798FEC046FDE710B5FFF72D
S214003AE0F7FFC0461F4A10B51368002B30DB2424AE
S214003AF01D4B19681D4B19621D490978C9B2195525
S214003B001C490978C9B299621B490968D9621B49E0
S214003B10098889B2198612685A63194A12689A6324
S214003B20184A1268DA6302681A6042685A60826845
S214003B309A60C268DA6002691A6142695A618269EB
S214003B409A61C269DA6100BEFFF75EFEC046FDE715
S214003B50802311681B060B4313608369023383615D
S214003B6010BDC0462CED00E024ED00E044E8FF1F49
S214003B7028ED00E029ED00E038ED00E02AED00E059
S214003B8030ED00E03CED00E010B5074C342200219B
S214003B9020002FF0BDF8200000F0FAF8431E034383
S214003BA0DB17184010BDC04684E8FF1F70B5141E12
S214003BB015D0002B13D080255A18ED00AA420BD83A
S214003BC0FF22920294468002091A61441A002000DD
S214003BD02FF095F8002070BD04204042FBE705203A
S214003BE04042F8E7F0B5C64600B52B4C0D00A5449C
S214003BF0904604001F00002A4BD0002F49D0802694
S214003C007B18F600B34241D800F0FEFFFF239B026C
S214003C109C46A402644264443200210006A82FF0A9
S214003C206EF806AB58193A0041462FF068F81B4F5D
S214003C301B4B32002100380000F068FB051E1CDB21
S214003C40012332002100380000F0FCF8051E14DBCA
S214003C50330006AA2100380000F09EFA051E0CDB91
S214003C6005AB029304AB01930123320000932100BD
S214003C7006AB380000F0CCF9050000F0B9FF2800CC
S214003C808323DB009D4404BC9046F0BD04256D42B2
S214003C90F5E705256D42F2E7E8FBFFFF84E8FF1F26
S214003CA06B66656BF0B5284C0D00A5441700040044
S214003CB0002A46D080265318F600B3423ED800F0BD
S214003CC0A3FFFF239B029C46A40264426444320086
S214003CD0210006A82FF013F806AB58193A00002169
S214003CE02FF016F8194F1A4B32002100380000F05A
S214003CF00DFB051E1CDB012332002100380000F0FE
S214003D00A1F8051E14DB330006AA2100380000F0D7
S214003D1043FA051E0CDB05AB029304AB01930123AB
S214003D2032000093210006AB380000F071F9050060
S214003D3000F05EFF2800074B9D44F0BD04256D4251
S214003D40F8E705256D42F5E7E4FBFFFF84E8FF1F73
S214003D506B66656B1C04000080B584B000AF7860AD
S214003D607B6818002EF0AAFF0300FB60FB68002BA0
S214003D7005D1054B1B68054A1000984700E0C04671
S214003D80BD4604B080BDC046B8E8FF1F0C3000F04A
S214003D9070B5041E3FD0214A214BD3581B011B0F80
S214003DA00F2B19D01F4A5B009A5A920262600222B9
S214003DB00023A260802223606361A3612361E3691C
S214003DC0D200E260002B0AD01B68022B07D100232A
S214003DD000202362636270BD8022D202E6E70023E1
S214003DE0114D124E2B60124B0C2212493000E56129
S214003DF06E60AB602EF083FF0F4B01361E60AE6820
S214003E00142230000D492EF07AFF0D4B01361E604D
S214003E1002232B60DBE705204042DCE7007004400D
S214003E204C1000003431030000E9FF1F0CE9FF1FAF
S214003E30C0E8FF1F68310300BCE8FF1F54310300D1
S214003E40B8E8FF1F70B556464D464446DE4670B588
S214003E508AB08046894616000193002800D1CCE03F
S214003E602022002102A82EF053FF43461B6804249C
S214003E709A464B4652469B1A02934346DB680425F5
S214003E80039343465B689B464346584699682EF024
S214003E9079FA042305934B4633430490069407951A
S214003EA0089409959A0700D0A1E0D14500D2A1E078
S214003EB04A46DA449219524500D99BE02022002156
S214003EC002A82EF025FF4246126893464A465946F7
S214003ED0521A924602924246D2680392424691682D
S214003EE050682EF04FFA0423059353465A42434235
S214003EF0134006940795089409955C420090049038
S214003F00544500D1C41A002E66D05B464A469D1A18
S214003F102D19B5425ED853461A028023120A5B0456
S214003F201343374A1360019B1A02AB081B04019225
S214003F301343FF221343334A13607023324A13702D
S214003F404346DB69002B3CD09146304A934622001C
S214003F505446924632E05B462B481B6898474B46D1
S214003F6020221B78DBB21A423BD1DA063CD4DB07B0
S214003F7034D4009B761B9C466419E244002E2BD05A
S214003F8053461D1BB54200D93500079928002EF070
S214003F90F9F980232202120A5B041343184A00042C
S214003FA01360019B4A461843FF231843154B1860BD
S214003FB0702313704346DB69002B02D01B68022B6C
S214003FC0C9D0592040420AB03CBC90469946A24609
S214003FD0AB4670BD35009EE70020F4E75520404212
S214003FE0F1E753204042EEE754204042EBE75120F1
S214003FF04042E8E752204042E5E705204042E2E73B
S214004000040002400800024000000240BCE8FF1F17
S21400401070B5444656464D46DE4670B58AB01E001C
S21400402012AB1B788146884614000193002E00D1FF
S214004030A3E0002800D1A0E02022002102A82EF054
S21400404067FE4B461B689A46434652469D1A4B46A9
S214004050DB68029503934B465B689B464B46584687
S21400406099682EF08FF90423042205930423069200
S2140040700793089209934346234304909B0700D076
S21400408075E0D04500D275E0434652461B195A44A7
S21400409093426FD8002C5FD080232A02120A9B041A
S2140040A01343374A1360019B364A1B061A43364BA6
S2140040B092461A603268354B1A607023344A137081
S2140040C04B46DB69002B34D01B68022B31D1314BB9
S2140040D090469B465B462E481B68984743462022E0
S2140040E01B78DBB21A423CD1103A1A423CD1DB07AD
S2140040F034D4099B0D3A19009143E41A7618ED184A
S214004100002C29D080232A02120A9B0413431C4A3F
S214004110136052461C4B1A6032681C4B1A607023A0
S214004120424613704B46DB69002B02D01B68022BFD
S214004130D0D059204042139B002B00D01D60149B0A
S214004140002B02D01A00002313600AB03CBC904635
S2140041509946A246AB4670BD0020F6E75520404281
S214004160E9E753204042E6E754204042E3E7512087
S2140041704042EAE752204042E7E705204042E4E7B3
S21400418004000240FFFFFF00080002400C0002404F
S21400419000000240BCE8FF1F70B54D465646444638
S2140041A0DE4670B5914688B006000C001D00002A59
S2140041B000D19EE0002800D19BE020220021684626
S2140041C02EF0A6FD3368B1689A46E31A0093984627
S2140041D0F3680193736818009B462EF0D3F8042307
S2140041E00422039304230492059306920793230064
S2140041F02B4302909B0700D075E0544500D275E033
S214004200534664195B449C4200D96FE0002D4DD0A4
S2140042104C46394B04CC9A46384B9B46384B1A6072
S214004220039B042B35D0082B0DD14B465A68354BD3
S2140042304C461A6043461A02E023120ADB04134374
S214004240314A08341360534670221A70F369002B03
S2140042502ED01B68022B2BD15B4627481B6898473D
S21400426053461B78DBB29A0636D43269D90637D461
S214004270DB072ED4002A15D09047039B9844ED1AEE
S21400428014D0A1464C461E4B04CC1A60039B042B4C
S214004290C9D143461A02C023120ADB0413431A4A42
S2140042A01360D0E7039B9844ED1AEAD1002405E09A
S2140042B0592432696442002A00D090473000FFF744
S2140042C04BFD200008B03CBC90469946A246AB4643
S2140042D070BD55246442EEE7532432696442EAE72F
S2140042E054246442E7E751246442EAE752246442D5
S2140042F0E7E705246442E4E700000240BCE8FF1F4D
S214004300080002400C0002400400024070B5564609
S2140043104D464446DE4670B58AB005000E0090460F
S2140043200193002800D19CE02022002102A82EF054
S214004330EFFC2B68A968F41A9A46EB68029403937C
S21400434099466B6818009B462EF01CF8042304223E
S2140043500593042306920793089209934346334332
S21400436004909B0700D073E0564500D273E0534696
S21400437046445B449E426ED801235B429C46E04422
S214004380A044494640462EF083F800294ED1A04569
S21400439052D390232202120A1B051343324A13609B
S2140043A0324B019A9A4259D17023314E3370EB69E1
S2140043B0002B2AD01B68022B27D12E4B9B4620238E
S2140043C09A465B462A481B68984752463378DBB2C3
S2140043D01A4236D110212A69194236D1DB072DD46C
S2140043E0002A00D090474C44444525D8902322020A
S2140043F0120A1B0513431C4A136070233370EB69C3
S214004400002B02D01B68022BDBD059242A69644299
S214004410002A00D090472800FFF79EFC20000AB034
S2140044203CBC90469946A246AB4670BD4B46013012
S2140044305843431E9846AAE70024ECE755246442F6
S214004440E6E753242A696442E2E754246442DFE73D
S21400445051246442E2E752246442DFE75724644270
S214004460DCE705246442D9E7040002406B66656B0E
S21400447000000240BCE8FF1FF0B55746DE464E4639
S2140044804546C74BE0B59A461B78002B00D080E126
S2140044908020C44A8000146820431060802014687E
S2140044A0C000204310608020146800012043106084
S2140044B0802014684001204310608020146880012A
S2140044C020431060B8480268002A00D1C6E0916810
S2140044D0082788468D005168FF378C46116865446A
S2140044E02F804E698C46444601218B46A1408E4360
S2140044F061464E6113615361AC4E2A6832402A60B1
S2140045004268002A00D1A9E0916889468D0051686A
S2140045104C468C46116865442F80884649698C460F
S2140045205946A140894661464C46A1438C464146C1
S21400453064464C61136153612A6832402A6082687F
S214004540002A00D18AE0916889468D0051684C4661
S2140045508C46116865442F80884649698C465946C2
S214004560A140894661464C46A1438C464146644676
S2140045704C61136153612A6832402A60C268002A7F
S2140045806CD0916889468D0051684C468C461168FF
S21400459065442F80884649698C465946A14089461D
S2140045A061464C46A1438C46414664464C611361C5
S2140045B053612A6832402A600269002A4ED0916808
S2140045C089468D0051684C468C46116865442F809C
S2140045D0884649698C465946A140894661464C46FC
S2140045E0A1438C46414664464C61136153612A6878
S2140045F032402A604269002A30D0916889468D0090
S21400460051684C468C46116865442F808846496937
S2140046108C465946A140894661464C46A1438C4685
S214004620414664464C61136153612A6832402A60F1
S2140046308269002A12D05068916880468C468900AC
S21400464041440F8064465F46A74015686869B843D2
S2140046506861136153610B681E400E60544B1A6804
S214004660002A79D0516882208C4696684000B400B3
S214004670644420801468D268A26001221500B54008
S21400468067693D4365615C68002C65D06168A66813
S2140046908C46B500654428802568E468AC60140044
S2140046A0B4406F693C436C619C68002C54D06168D0
S2140046B0A6688C46B500654428802568E468AC602A
S2140046C01400B4406F693C436C61DC68002C43D036
S2140046D06168A6688C46B500654428802568E4684D
S2140046E0AC601400B4406F693C436C611C69002CDC
S2140046F032D06168A6688C46B50065442880256877
S214004700E468AC601400B4406F693C436C615C695B
S214004710002C21D06168A6688C46B50065442880C8
S2140047202568E468AC601400B4406F693C436C6173
S2140047309C69002C10D06168A6688C46B50065445C
S21400474028802568E468AC601400B4406F693C4378
S2140047506C61DC69002C33D1C720164A80001358E0
S214004760154C1C4080231B042343802413501358ED
S21400477024061B021B0A234313508023DB05136009
S2140047800E4B14601B681A68DB68536001235246A0
S21400479013703CBC90469946A246AB46F0BDC04658
S2140047A0780E00203880044000E1FF1FFFFFF0FF76
S2140047B0FCE2FF1F00E100E0FFFF00FFD0E0FF1F6C
S2140047C06168A6688C46B500654428802568E4685C
S2140047D0AC601400B4406F693C436C611C6A002CEA
S2140047E0BAD06168A6688C46B240B5006544288099
S2140047F02068E46884604469224342615A6A002A59
S214004800AAD0516882208C4696684000B400644462
S21400481020801468D268A26001221500B54067693E
S2140048203D4365619C6A002C96D06168A6688C46FC
S214004830B500654428802568E468AC601400B44080
S2140048406F693C436C61DC6A002C00D184E76168C8
S214004850A6688C46B500654428802568E468AC6088
S2140048601400B4406F693C436C611C6B002C00D193
S21400487072E76168A6688C46B5006544288025689E
S214004880E468AC601400B4406F693C436C615C6BD8
S214004890002C00D160E76168A6688C46B5006544C8
S2140048A028802568E4689B6BAC601400B4406F6990
S2140048B03C436C61002B00D14EE75D689C68AC46BB
S2140048C0A240A100614408801968DB688B604B69D0
S2140048D01A434A61836842619A00436801619B18E3
S2140048E01A6803491140A02212030A431A6070474F
S2140048F0FFFFF0FF836809029A004368E0209B18D8
S214004900C0001A680140024802401143196070470F
S214004910FFF8FFFF0368C2685A6070470368C26802
S2140049209A6070470368C268002901D19A60704790
S2140049305A60FCE7036882681B690120D340184070
S2140049407047C0460123026880688340002903D16F
S214004950516999435161704751690B435361FAE7B6
S214004960032183689A0043689B181A680A431A60F2
S2140049707047C0460321836842689B00D2181368BC
S2140049808B4301390B4313607047C046A023294967
S214004990294AC858136810B5002B31D05C688C4281
S2140049A033D05368002B2BD022495C688C4230D021
S2140049B09368002B24D01F495C688C422DD0D368A6
S2140049C0002B1DD01B495C688C422AD01369002B33
S2140049D016D018495C688C4213D05369002B0FD050
S2140049E014495C688C4220D09369002B08D0D968A3
S2140049F0A022104881501A69002A01D058699047B1
S214004A0010BDD9680142E8D0F2E7D9680142C8D0A3
S214004A10EEE7D9680142CBD0EAE7D9680142CED0AA
S214004A20E6E7D9680142D1D0E2E7D9680142DBD097
S214004A30DEE7C0460090044000E1FF1F70B5A024EA
S214004A40614A105900283DD060490B68002B00D100
S214004A50B6E05C68944200D17FE04A68002A00D144
S214004A606EE0594C5568A54200D180E08A68002A5D
S214004A7066D0554C5568A54200D17DE0CA68002A2C
S214004A805ED0514C5568A54200D182E00A69002AE2
S214004A9056D04D4C5568A54200D17FE04A69002AA1
S214004AA04ED0494C5568A54200D180E08A69002A5C
S214004AB046D0D468A020444D2C501469002C3FD01A
S214004AC05069A047A023424AD258002A00D170BDA0
S214004AD03E490B68002BFAD03D485C68844238D0CB
S214004AE04B68002BF3D03A485C6884423BD08B6816
S214004AF0002BECD036485C68844242D0CB68002B52
S214004B00E5D033485C6884423FD00B69002BDED08A
S214004B102F485C68844246D04B69002BD7D02C487F
S214004B205C68844248D08B69002BD0D0D868A0221D
S214004B30274988501A69002AC9D058699047C6E79D
S214004B40A02223488258002AC1D021485C688442AB
S214004B50C6D1D8680242C3D0E9E7DC68044200D177
S214004B607BE71A00A6E7D8681042C0D0DFE7D46813
S214004B70044200D17AE79DE7D468044200D17DE77D
S214004B8098E7D8681042B9D0D1E7D8681042BCD0B0
S214004B90CDE7D468044200D178E78BE7D4680442B6
S214004BA000D17BE786E7D8681042B5D0BFE7D46867
S214004BB0044200D17AE77DE7D8681042B3D0B6E762
S214004BC0034B1B5983E7C04600B0044000E1FF1FBB
S214004BD000C0044004207146084202D1EFF308806A
S214004BE001E0EFF30980014A10470000E53A0000B3
S214004BF0044A1368013B1360002B02DC0023136099
S214004C0062B670474CE9FF1F72B6024A136801335A
S214004C10136070474CE9FF1FC02200231201824236
S214004C205B4158426323184063387047802210B5B2
S214004C30D20000210220FFF735F800280DDB802285
S214004C400021D2000320FFF72DF8002805DB802284
S214004C500021D2000420FFF725F810BDF0B5C646A7
S214004C601500C0220B00411800B5120191422CD845
S214004C70174A904225D9174A8418A40A8005033497
S214004C80800D002B1FD08022D20090460EE04346B7
S214004C901F1A01003B002A002000FEF7A3FF002891
S214004CA00CDB00200B4BED19F3180134C6184645F3
S214004CB0EDD801002A002000FEF794FF04BC9046C1
S214004CC0F0BD0224DDE70020F8E763204042F5E768
S214004CD0FF03000000FCFFFFF0B5C6461500C0222B
S214004CE00B00411800B5120191422CD8174A904289
S214004CF025D9174A8418A40A80050334800D002B92
S214004D001FD08022D20090460EE043461F1A0100B4
S214004D103B002A002000FEF749FF00280CDB00209D
S214004D200B4BED19F3180134C6184645EDD80100B3
S214004D302A002000FEF73AFF04BC9046F0BD02248D
S214004D40DDE70020F8E763204042F5E7FF030000B8
S214004D5000FCFFFF0021054B10B59A681960002A79
S214004D6002D09960D968904710BDC04650E9FF1F31
S214004D7010B5002800DB10BD0021044B9A681960AE
S214004D80002AF8D09960D9689047F4E750E9FF1FE9
S214004D90F0B54E46DE4657464546E0B585B00600B9
S214004DA0009101920293002900D142E2002B00D12B
S214004DB03FE2FFF729FFBC4C2568002D00D0C5E078
S214004DC002232360FFF714FF6368B34234D10E9BBF
S214004DD00199A3600F9BE360002900D1BAE08A2204
S214004DE0B24B520099508E21802249005858120327
S214004DF002435A508023AD4A00995B00D1508C2163
S214004E00029B8E241B021B0A49005350802164001B
S214004E101059C905084310518420400013508623BA
S214004E205B00D0580143D150280005B03CBC9046EA
S214004E309946A246AB46F0BD9D4B1868FF2E00D1A2
S214004E404EE10121FFF77EFD9A4B012118689A4634
S214004E50FFF778FD984B002118689B46FFF772FD18
S214004E60964B012118689946FFF76CFD944B00217C
S214004E701B6818000393FFF765FD924B01211B6822
S214004E8018000393FFF75EFD8F4B00211B68180088
S214004E900393FFF757FD8D4B01211B681800039302
S214004EA0FFF750FD8A4B00211B6818000393FFF79D
S214004EB049FD884B012118689846FFF743FD864F49
S214004EC000213868FFF73EFD794B1B6818000393F6
S214004ED0FFF720FD53461868FFF71CFD4B46186881
S214004EE0FFF718FD774B1B6818000393FFF712FDBA
S214004EF0764B1B6818000393FFF70CFD43461868B3
S214004F00FFF708FD5B461868FFF72AFD6C4B1B6829
S214004F1018000393FFF724FD6B4B1B6818000393E0
S214004F20FFF71EFD6A4B1B6818000393FFF718FD7A
S214004F303868FFF715FD012E00D18FE0022E55D000
S214004F40002E13D0256037256D426DE7FFF750FE23
S214004F50256869E78A228E21544B520010349C50F3
S214004F6049005A585D4802405A5043E75B460021C4
S214004F701868FFF7BFFC4E4B00211868FFF7BAFC15
S214004F80534600211868FFF7B5FC4B460021186809
S214004F90FFF7B0FC4A4B00211868FFF7ABFC494B03
S214004FA000211868FFF7A6FC484B00211868FFF799
S214004FB0A1FC434600211868FFF79CFC424B0021E9
S214004FC01868FFF797FC424B00211868FFF792FC21
S214004FD038680021FFF78EFC66600E9B0199A3607F
S214004FE00F9BE360002900D0F9E6B3E75B46022199
S214004FF01868FFF77FFC2E4B02211868FFF77AFC33
S214005000534602211868FFF775FC4B4601211868C5
S214005010FFF770FC2B4B02211868FFF76BFC2B4B3D
S21400502001211868FFF766FC434601211868FFF760
S21400503061FC234B18680121FFF75CFC224B012121
S2140050401868FFF757FC224B18680121FFF752FC3F
S21400505038680121FFF74EFC6660BEE75B4602211A
S2140050601868FFF747FC124B02211868FFF742FC4E
S214005070534602211868FFF73DFC4B46022118688C
S214005080FFF738FC0E4B01211868FFF733FC0D4B79
S21400509001211868FFF72EFC0C4B01211868FFF75A
S2140050A029FC4346C6E7C04650E9FF1F0080004083
S2140050B0FCE0FF1FD4E0FF1FF8E0FF1FD8E0FF1F53
S2140050C0E8E0FF1FDCE0FF1FECE0FF1FE0E0FF1F53
S2140050D0F0E0FF1FE4E0FF1FF4E0FF1FFFFFF7FF15
S2140050E00021FFF72FFC544B1B6818000393FFF7B3
S2140050F041FC524B00219A461868FFF723FC5346A2
S2140051001868FFF737FC4E4B00219B461868FFF7E0
S21400511019FC5B461868FFF72DFC4A4B00211B68FC
S21400512018000393FFF70EFC464B1B68180003930A
S214005130FFF720FC444B00211B6818000393FFF781
S21400514001FC414B1B6818000393FFF713FC3F4B11
S21400515000211B6818000393FFF7F4FB3B4B1B680A
S21400516018000393FFF706FC394B00211B68180054
S2140051700393FFF7E7FB364B1B6818000393FFF714
S214005180F9FB344B00211B6818000393FFF7DAFB8A
S214005190304B1B6818000393FFF7ECFB2E4B0021E7
S2140051A098461868FFF7CEFB43461868FFF7E2FB01
S2140051B02A4B002199461868FFF7C4FB4B4618682F
S2140051C0FFF7D8FB264F00213868FFF7BBFB38688F
S2140051D0FFF7D0FB5B4601211868FFF78BFB164BE9
S2140051E001211868FFF786FB534601211868FFF770
S2140051F081FB144B01211868FFF77CFB124B012141
S2140052001868FFF777FB114B01211868FFF772FB50
S214005210104B01211868FFF76DFB4B4601211868FB
S214005220FFF768FB0A4B01211868FFF763FB43464C
S2140052300AE705256D42F7E5FCE0FF1FD4E0FF1FF7
S214005240F8E0FF1FD8E0FF1FE8E0FF1FDCE0FF1FCD
S214005250ECE0FF1FE0E0FF1FF0E0FF1FE4E0FF1FB1
S214005260F4E0FF1F014B18687047C04650E9FF1F67
S21400527070B5FFF7C9FC144C2568002D21D02368B3
S214005280022B0BD18E22114B520099581048014028
S2140052909950862149005A5802405A50FFF7A8FCF8
S2140052A00022A3682260002B09D00220A260E168D9
S2140052B0404298470500831C01D0280070BD002599
S2140052C0FBE7FFF795FCF8E750E9FF1F008000407A
S2140052D0FFFFFFBFF0B5DE4657464E464546E0B5F3
S2140052E0654C83B06368002B00D1B5E0FFF78CFCFB
S2140052F023680093002B00D0B8E002232360FFF75A
S21400530077FC5E4B012118689A46FFF71BFB5C4B47
S214005310012118689946FFF715FB5A4B00211868BB
S2140053209B46FFF70FFB584B012118689846FFF77E
S21400533009FB564F00213868FFF704FB544B012148
S2140053401B6818000193FFF7FDFA524B00211B68FB
S21400535018000193FFF7F6FA4F4B01211B6818005F
S2140053600193FFF7EFFA4D4B00211B6818000193DD
S214005370FFF7E8FA4A4E01213068FFF7E3FA494D95
S21400538000212868FFF7DEFA53461868FFF7C2FACE
S2140053904B461868FFF7BEFA43461868FFF7BAFA96
S2140053A03B4B1B6818000193FFF7B4FA3A4B1B6897
S2140053B018000193FFF7AEFA3068FFF7ABFA5B46CA
S2140053C01868FFF7CDFA3868FFF7CAFA314B1B6842
S2140053D018000193FFF7C4FA304B1B6818000193BE
S2140053E0FFF7BEFA2868FFF7BBFA5B46002118688D
S2140053F0FFF780FA534600211868FFF77BFA4B4602
S21400540000211868FFF776FA434600211868FFF770
S21400541071FA38680021FFF76DFA1D4B00211868F5
S214005420FFF768FA1C4B00211868FFF763FA30682C
S2140054300021FFF75FFA174B00211868FFF75AFAAA
S214005440164B00211868FFF755FA28680021FFF769
S21400545051FA009B6360236000230020236003B0A2
S2140054603CBC90469946A246AB46F0BDFFF7C0FB53
S21400547020680028F3D1EFE750E9FF1FFCE0FF1F8C
S214005480D4E0FF1FF8E0FF1FD8E0FF1FE8E0FF1F93
S214005490DCE0FF1FECE0FF1FE0E0FF1FF0E0FF1F77
S2140054A0E4E0FF1FF4E0FF1FF0B5DE4657464E4629
S2140054B04546E0B5664C83B06368FF2B00D1B6E086
S2140054C0FFF7A2FB23680093002B00D0B9E002236D
S2140054D02360FFF78DFB5F4B00219A461868FFF7A5
S2140054E031FA53461868FFF745FA5B4B0021994698
S2140054F01868FFF727FA4B461868FFF73BFA574B32
S21400550000219B461868FFF71DFA5B461868FFF7F0
S21400551031FA534B002198461868FFF713FA4346B2
S2140055201868FFF727FA4F4F00213868FFF70AFA86
S2140055303868FFF71FFA4C4B00211B6818000193D0
S214005540FFF700FA484B1B6818000193FFF712FAA2
S214005550464B00211B6818000193FFF7F3F9434BF5
S2140055601B6818000193FFF705FA414B00211B68E2
S21400557018000193FFF7E6F93D4B1B6818000193EE
S214005580FFF7F8F93B4B00211B6818000193FFF763
S214005590D9F9384B1B6818000193FFF7EBF9364E24
S2140055A000213068FFF7CEF93068FFF7E3F9334D96
S2140055B000212868FFF7C6F92868FFF7DBF95B4685
S2140055C001211868FFF796F9534601211868FFF77E
S2140055D091F94B4601211868FFF78CF943460121E3
S2140055E01868FFF787F938680121FFF783F91E4B23
S2140055F001211868FFF77EF91D4B01211868FFF797
S21400560079F930680121FFF775F9184B0121186800
S214005610FFF770F9174B01211868FFF76BF9286838
S2140056200121FFF767F9FF236360009B23600023D7
S2140056300020236003B03CBC90469946A246AB4689
S214005640F0BDFFF7D5FA20680028F3D1EFE7C04693
S21400565050E9FF1FFCE0FF1FD4E0FF1FF8E0FF1F2C
S214005660D8E0FF1FE8E0FF1FDCE0FF1FECE0FF1FB5
S214005670E0E0FF1FF0E0FF1FE4E0FF1FF4E0FF1F85
S21400568070B50600FFF7C0FA1D4D2C68002C32D10D
S21400569002232B60FFF7ACFA012E1CD0022E16D187
S2140056A0184E01213068FFF725F93068FFF736F904
S2140056B03068FFF72FF902213068FFF71BF93068D2
S2140056C00221FFF717F900232B60200070BD2C6025
S2140056D005246442F9E70C4E01213068FFF70AF909
S2140056E03068FFF71BF93068FFF714F930680221BD
S2140056F0FFF700F9E7E7FFF77BFA2C68E5E7C04617
S21400570050E9FF1FDCE0FF1FD8E0FF1F10B501289F
S2140057100AD0022805D1074B1868FFF7DBF80020EF
S21400572010BD37204042FBE7034B1868FFF7D2F85E
S2140057300020F5E7ECE0FF1FE8E0FF1F10B50128AA
S21400574008D0022804D1064B1868FFF7F3F810BDFE
S2140057500120FCE7034B1868FFF7ECF8F7E7C046B4
S214005760ECE0FF1FE8E0FF1FF0B5DE4657464E466A
S2140057704546E0B583B0FFF747FA404C23680093F0
S214005780002B00D074E033232360FFF731FA3C4B44
S21400579018689846FFF7BEF83A4E3068FFF7BAF832
S2140057A0394D2868FFF7B6F8384C2068FFF7B2F88E
S2140057B0374B18689A46FFF7ADF8364B1868994687
S2140057C0FFF7A8F8344B9B461868FFF7C9F8334F25
S2140057D03868FFF7C5F8324B1B6818000193FFF7CF
S2140057E0BFF8304B1B6818000193FFF7B9F82E4B33
S2140057F01B6818000193FFF7B3F85B460121186891
S214005800FFF778F8534601211868FFF773F84B4600
S21400581001211868FFF76EF8434601211868FFF764
S21400582069F838680121FFF765F830680121FFF74D
S21400583061F828680121FFF75DF820680121FFF76D
S21400584059F8174B01211868FFF754F8154B01213A
S2140058501868FFF74FF8144B01211868FFF74AF84D
S214005860009803B03CBC90469946A246AB46F0BDB5
S214005870FFF7BEF923680093F2E7C04650E9FF1F22
S214005880D8E0FF1FDCE0FF1FE0E0FF1FE4E0FF1FA3
S214005890FCE0FF1FD4E0FF1FF8E0FF1FE8E0FF1F5B
S2140058A0ECE0FF1FF0E0FF1FF4E0FF1FF0B5DE4660
S2140058B057464E464546E0B583B0FFF7A5F9DB4CA4
